
azriz2.elf:     file format elf32-littlearm

Sections:
Idx Name          Size      VMA       LMA       File off  Algn
  0 .isr_vector   0000010c  08000000  08000000  00010000  2**0
                  CONTENTS, ALLOC, LOAD, READONLY, DATA
  1 .text         000015fc  0800010c  0800010c  0001010c  2**2
                  CONTENTS, ALLOC, LOAD, READONLY, CODE
  2 .rodata       00000044  08001708  08001708  00011708  2**2
                  CONTENTS, ALLOC, LOAD, READONLY, DATA
  3 .ARM.extab    00000000  0800174c  0800174c  00020024  2**0
                  CONTENTS
  4 .ARM          00000000  0800174c  0800174c  00020024  2**0
                  CONTENTS
  5 .preinit_array 00000000  0800174c  0800174c  00020024  2**0
                  CONTENTS, ALLOC, LOAD, DATA
  6 .init_array   00000004  0800174c  0800174c  0001174c  2**2
                  CONTENTS, ALLOC, LOAD, DATA
  7 .fini_array   00000004  08001750  08001750  00011750  2**2
                  CONTENTS, ALLOC, LOAD, DATA
  8 .data         00000024  20000000  08001754  00020000  2**2
                  CONTENTS, ALLOC, LOAD, DATA
  9 .bss          00000020  20000024  08001778  00020024  2**2
                  ALLOC
 10 ._user_heap_stack 00000604  20000044  08001778  00020044  2**0
                  ALLOC
 11 .ARM.attributes 00000029  00000000  00000000  00020024  2**0
                  CONTENTS, READONLY
 12 .debug_info   00004978  00000000  00000000  0002004d  2**0
                  CONTENTS, READONLY, DEBUGGING
 13 .debug_abbrev 000011a1  00000000  00000000  000249c5  2**0
                  CONTENTS, READONLY, DEBUGGING
 14 .debug_aranges 00000480  00000000  00000000  00025b68  2**3
                  CONTENTS, READONLY, DEBUGGING
 15 .debug_ranges 000003d8  00000000  00000000  00025fe8  2**3
                  CONTENTS, READONLY, DEBUGGING
 16 .debug_macro  00012f95  00000000  00000000  000263c0  2**0
                  CONTENTS, READONLY, DEBUGGING
 17 .debug_line   00004b7f  00000000  00000000  00039355  2**0
                  CONTENTS, READONLY, DEBUGGING
 18 .debug_str    000658ba  00000000  00000000  0003ded4  2**0
                  CONTENTS, READONLY, DEBUGGING
 19 .comment      0000007b  00000000  00000000  000a378e  2**0
                  CONTENTS, READONLY
 20 .debug_frame  00000fa0  00000000  00000000  000a380c  2**2
                  CONTENTS, READONLY, DEBUGGING

Disassembly of section .text:

0800010c <__do_global_dtors_aux>:
 800010c:	b510      	push	{r4, lr}
 800010e:	4c05      	ldr	r4, [pc, #20]	; (8000124 <__do_global_dtors_aux+0x18>)
 8000110:	7823      	ldrb	r3, [r4, #0]
 8000112:	b933      	cbnz	r3, 8000122 <__do_global_dtors_aux+0x16>
 8000114:	4b04      	ldr	r3, [pc, #16]	; (8000128 <__do_global_dtors_aux+0x1c>)
 8000116:	b113      	cbz	r3, 800011e <__do_global_dtors_aux+0x12>
 8000118:	4804      	ldr	r0, [pc, #16]	; (800012c <__do_global_dtors_aux+0x20>)
 800011a:	f3af 8000 	nop.w
 800011e:	2301      	movs	r3, #1
 8000120:	7023      	strb	r3, [r4, #0]
 8000122:	bd10      	pop	{r4, pc}
 8000124:	20000024 	.word	0x20000024
 8000128:	00000000 	.word	0x00000000
 800012c:	080016f0 	.word	0x080016f0

08000130 <frame_dummy>:
 8000130:	b508      	push	{r3, lr}
 8000132:	4b03      	ldr	r3, [pc, #12]	; (8000140 <frame_dummy+0x10>)
 8000134:	b11b      	cbz	r3, 800013e <frame_dummy+0xe>
 8000136:	4903      	ldr	r1, [pc, #12]	; (8000144 <frame_dummy+0x14>)
 8000138:	4803      	ldr	r0, [pc, #12]	; (8000148 <frame_dummy+0x18>)
 800013a:	f3af 8000 	nop.w
 800013e:	bd08      	pop	{r3, pc}
 8000140:	00000000 	.word	0x00000000
 8000144:	20000028 	.word	0x20000028
 8000148:	080016f0 	.word	0x080016f0

0800014c <strlen>:
 800014c:	4603      	mov	r3, r0
 800014e:	f813 2b01 	ldrb.w	r2, [r3], #1
 8000152:	2a00      	cmp	r2, #0
 8000154:	d1fb      	bne.n	800014e <strlen+0x2>
 8000156:	1a18      	subs	r0, r3, r0
 8000158:	3801      	subs	r0, #1
 800015a:	4770      	bx	lr

0800015c <CreateCustomCharacter>:

// lcd : LCD_HandleTypeDef object pointer from lcd16x2.h library
// character : pointer to the first row of 8-row char[]
// EXAMPLE : unsigned char custom_character[] = {0x0e, 0x0e, 0x04, 0x04, 0x1f, 0x04, 0x0a, 0x0a} ---- simple body
// counter : CGram is 64byte and each character is 8 byte, only 8 character is possible, counter is from 0 to 7
void CreateCustomCharacter(LCD_HandleTypeDef *lcd,unsigned char *character,uint8_t counter){
 800015c:	b580      	push	{r7, lr}
 800015e:	b086      	sub	sp, #24
 8000160:	af00      	add	r7, sp, #0
 8000162:	60f8      	str	r0, [r7, #12]
 8000164:	60b9      	str	r1, [r7, #8]
 8000166:	4613      	mov	r3, r2
 8000168:	71fb      	strb	r3, [r7, #7]
	if ( counter >= 8)
 800016a:	79fb      	ldrb	r3, [r7, #7]
 800016c:	2b07      	cmp	r3, #7
 800016e:	d81b      	bhi.n	80001a8 <CreateCustomCharacter+0x4c>
		return;
	LCD_sendCmd(lcd,LCD16X2_SET_CGRAM_ADDRESS + counter*8 );		// set data in character generated ram
 8000170:	79fb      	ldrb	r3, [r7, #7]
 8000172:	3308      	adds	r3, #8
 8000174:	b2db      	uxtb	r3, r3
 8000176:	00db      	lsls	r3, r3, #3
 8000178:	b2db      	uxtb	r3, r3
 800017a:	4619      	mov	r1, r3
 800017c:	68f8      	ldr	r0, [r7, #12]
 800017e:	f000 f92d 	bl	80003dc <LCD_sendCmd>

	for (int i=0; i<8; i++){
 8000182:	2300      	movs	r3, #0
 8000184:	617b      	str	r3, [r7, #20]
 8000186:	e00b      	b.n	80001a0 <CreateCustomCharacter+0x44>
		 LCD_sendChar(lcd,*character);        // passing each row of 8-row character to lcd ram
 8000188:	68bb      	ldr	r3, [r7, #8]
 800018a:	781b      	ldrb	r3, [r3, #0]
 800018c:	4619      	mov	r1, r3
 800018e:	68f8      	ldr	r0, [r7, #12]
 8000190:	f000 f93b 	bl	800040a <LCD_sendChar>
		 character++;						  // set character pointer to next row
 8000194:	68bb      	ldr	r3, [r7, #8]
 8000196:	3301      	adds	r3, #1
 8000198:	60bb      	str	r3, [r7, #8]
	for (int i=0; i<8; i++){
 800019a:	697b      	ldr	r3, [r7, #20]
 800019c:	3301      	adds	r3, #1
 800019e:	617b      	str	r3, [r7, #20]
 80001a0:	697b      	ldr	r3, [r7, #20]
 80001a2:	2b07      	cmp	r3, #7
 80001a4:	ddf0      	ble.n	8000188 <CreateCustomCharacter+0x2c>
 80001a6:	e000      	b.n	80001aa <CreateCustomCharacter+0x4e>
		return;
 80001a8:	bf00      	nop
	}

}
 80001aa:	3718      	adds	r7, #24
 80001ac:	46bd      	mov	sp, r7
 80001ae:	bd80      	pop	{r7, pc}

080001b0 <PrintCustomCharacter>:


// character_number: for first character that you registered in CGRam pass 0 , for next pass 1 and ... until 8
void PrintCustomCharacter(LCD_HandleTypeDef *lcd,uint8_t character_number,uint32_t delay){
 80001b0:	b580      	push	{r7, lr}
 80001b2:	b084      	sub	sp, #16
 80001b4:	af00      	add	r7, sp, #0
 80001b6:	60f8      	str	r0, [r7, #12]
 80001b8:	460b      	mov	r3, r1
 80001ba:	607a      	str	r2, [r7, #4]
 80001bc:	72fb      	strb	r3, [r7, #11]
	LCD_sendChar(lcd,character_number);
 80001be:	7afb      	ldrb	r3, [r7, #11]
 80001c0:	4619      	mov	r1, r3
 80001c2:	68f8      	ldr	r0, [r7, #12]
 80001c4:	f000 f921 	bl	800040a <LCD_sendChar>
	HAL_Delay(delay);
 80001c8:	6878      	ldr	r0, [r7, #4]
 80001ca:	f000 fc0b 	bl	80009e4 <HAL_Delay>
}
 80001ce:	bf00      	nop
 80001d0:	3710      	adds	r7, #16
 80001d2:	46bd      	mov	sp, r7
 80001d4:	bd80      	pop	{r7, pc}

080001d6 <PrintOneCharacter>:

uint8_t RandomPlace(uint8_t from,uint8_t to){
	return from + rand() % (to - from);
}

void PrintOneCharacter(LCD_HandleTypeDef *lcd,char *character){
 80001d6:	b580      	push	{r7, lr}
 80001d8:	b082      	sub	sp, #8
 80001da:	af00      	add	r7, sp, #0
 80001dc:	6078      	str	r0, [r7, #4]
 80001de:	6039      	str	r1, [r7, #0]

	HAL_GPIO_WritePin(lcd->RS.Port, lcd->RS.Pin, GPIO_PIN_SET);
 80001e0:	687b      	ldr	r3, [r7, #4]
 80001e2:	6818      	ldr	r0, [r3, #0]
 80001e4:	687b      	ldr	r3, [r7, #4]
 80001e6:	889b      	ldrh	r3, [r3, #4]
 80001e8:	2201      	movs	r2, #1
 80001ea:	4619      	mov	r1, r3
 80001ec:	f000 fe52 	bl	8000e94 <HAL_GPIO_WritePin>

	 LCD_sendNibble(lcd,(int)character>>4);
 80001f0:	683b      	ldr	r3, [r7, #0]
 80001f2:	111b      	asrs	r3, r3, #4
 80001f4:	b2db      	uxtb	r3, r3
 80001f6:	4619      	mov	r1, r3
 80001f8:	6878      	ldr	r0, [r7, #4]
 80001fa:	f000 f91d 	bl	8000438 <LCD_sendNibble>
	 LCD_sendNibble(lcd,(int)character);
 80001fe:	683b      	ldr	r3, [r7, #0]
 8000200:	b2db      	uxtb	r3, r3
 8000202:	4619      	mov	r1, r3
 8000204:	6878      	ldr	r0, [r7, #4]
 8000206:	f000 f917 	bl	8000438 <LCD_sendNibble>

	 HAL_GPIO_WritePin(lcd->RS.Port, lcd->RS.Pin, GPIO_PIN_SET);
 800020a:	687b      	ldr	r3, [r7, #4]
 800020c:	6818      	ldr	r0, [r3, #0]
 800020e:	687b      	ldr	r3, [r7, #4]
 8000210:	889b      	ldrh	r3, [r3, #4]
 8000212:	2201      	movs	r2, #1
 8000214:	4619      	mov	r1, r3
 8000216:	f000 fe3d 	bl	8000e94 <HAL_GPIO_WritePin>
}
 800021a:	bf00      	nop
 800021c:	3708      	adds	r7, #8
 800021e:	46bd      	mov	sp, r7
 8000220:	bd80      	pop	{r7, pc}
	...

08000224 <StartCountDown>:


// function for Game Start Screen # delay in ms
void StartCountDown(LCD_HandleTypeDef *lcd,uint32_t delay){
 8000224:	b580      	push	{r7, lr}
 8000226:	b084      	sub	sp, #16
 8000228:	af00      	add	r7, sp, #0
 800022a:	6078      	str	r0, [r7, #4]
 800022c:	6039      	str	r1, [r7, #0]

	for(int i =3;i>0;i--){
 800022e:	2303      	movs	r3, #3
 8000230:	60fb      	str	r3, [r7, #12]
 8000232:	e011      	b.n	8000258 <StartCountDown+0x34>
		LCD_gotoxy(lcd,0x07,0);
 8000234:	2200      	movs	r2, #0
 8000236:	2107      	movs	r1, #7
 8000238:	6878      	ldr	r0, [r7, #4]
 800023a:	f000 f9ae 	bl	800059a <LCD_gotoxy>
		PrintCustomCharacter(lcd,i-1,500);
 800023e:	68fb      	ldr	r3, [r7, #12]
 8000240:	b2db      	uxtb	r3, r3
 8000242:	3b01      	subs	r3, #1
 8000244:	b2db      	uxtb	r3, r3
 8000246:	f44f 72fa 	mov.w	r2, #500	; 0x1f4
 800024a:	4619      	mov	r1, r3
 800024c:	6878      	ldr	r0, [r7, #4]
 800024e:	f7ff ffaf 	bl	80001b0 <PrintCustomCharacter>
	for(int i =3;i>0;i--){
 8000252:	68fb      	ldr	r3, [r7, #12]
 8000254:	3b01      	subs	r3, #1
 8000256:	60fb      	str	r3, [r7, #12]
 8000258:	68fb      	ldr	r3, [r7, #12]
 800025a:	2b00      	cmp	r3, #0
 800025c:	dcea      	bgt.n	8000234 <StartCountDown+0x10>

	}

	 LCD_clrscr(lcd);
 800025e:	6878      	ldr	r0, [r7, #4]
 8000260:	f000 f98f 	bl	8000582 <LCD_clrscr>
	 LCD_gotoxy(lcd, 0x05, 0x0);
 8000264:	2200      	movs	r2, #0
 8000266:	2105      	movs	r1, #5
 8000268:	6878      	ldr	r0, [r7, #4]
 800026a:	f000 f996 	bl	800059a <LCD_gotoxy>
	 LCD_puts(lcd, "START!");
 800026e:	4905      	ldr	r1, [pc, #20]	; (8000284 <StartCountDown+0x60>)
 8000270:	6878      	ldr	r0, [r7, #4]
 8000272:	f000 f949 	bl	8000508 <LCD_puts>
	 HAL_Delay(delay);
 8000276:	6838      	ldr	r0, [r7, #0]
 8000278:	f000 fbb4 	bl	80009e4 <HAL_Delay>

}
 800027c:	bf00      	nop
 800027e:	3710      	adds	r7, #16
 8000280:	46bd      	mov	sp, r7
 8000282:	bd80      	pop	{r7, pc}
 8000284:	08001708 	.word	0x08001708

08000288 <FirstLevelGround>:


void FirstLevelGround(LCD_HandleTypeDef *lcd,uint16_t cols,uint16_t ground){
 8000288:	b580      	push	{r7, lr}
 800028a:	b084      	sub	sp, #16
 800028c:	af00      	add	r7, sp, #0
 800028e:	6078      	str	r0, [r7, #4]
 8000290:	460b      	mov	r3, r1
 8000292:	807b      	strh	r3, [r7, #2]
 8000294:	4613      	mov	r3, r2
 8000296:	803b      	strh	r3, [r7, #0]
	unsigned char block = 0b11111111;
 8000298:	23ff      	movs	r3, #255	; 0xff
 800029a:	72fb      	strb	r3, [r7, #11]
	for(int i=0;i<cols;i++){
 800029c:	2300      	movs	r3, #0
 800029e:	60fb      	str	r3, [r7, #12]
 80002a0:	e00f      	b.n	80002c2 <FirstLevelGround+0x3a>
		LCD_gotoxy(lcd,i,ground);
 80002a2:	68fb      	ldr	r3, [r7, #12]
 80002a4:	b2db      	uxtb	r3, r3
 80002a6:	883a      	ldrh	r2, [r7, #0]
 80002a8:	b2d2      	uxtb	r2, r2
 80002aa:	4619      	mov	r1, r3
 80002ac:	6878      	ldr	r0, [r7, #4]
 80002ae:	f000 f974 	bl	800059a <LCD_gotoxy>
		PrintOneCharacter(lcd,block);
 80002b2:	7afb      	ldrb	r3, [r7, #11]
 80002b4:	4619      	mov	r1, r3
 80002b6:	6878      	ldr	r0, [r7, #4]
 80002b8:	f7ff ff8d 	bl	80001d6 <PrintOneCharacter>
	for(int i=0;i<cols;i++){
 80002bc:	68fb      	ldr	r3, [r7, #12]
 80002be:	3301      	adds	r3, #1
 80002c0:	60fb      	str	r3, [r7, #12]
 80002c2:	887b      	ldrh	r3, [r7, #2]
 80002c4:	68fa      	ldr	r2, [r7, #12]
 80002c6:	429a      	cmp	r2, r3
 80002c8:	dbeb      	blt.n	80002a2 <FirstLevelGround+0x1a>
	}
}
 80002ca:	bf00      	nop
 80002cc:	3710      	adds	r7, #16
 80002ce:	46bd      	mov	sp, r7
 80002d0:	bd80      	pop	{r7, pc}

080002d2 <ScrollingText>:


void ScrollingText(LCD_HandleTypeDef *lcd,const char* text){
 80002d2:	b580      	push	{r7, lr}
 80002d4:	b08c      	sub	sp, #48	; 0x30
 80002d6:	af00      	add	r7, sp, #0
 80002d8:	6078      	str	r0, [r7, #4]
 80002da:	6039      	str	r1, [r7, #0]
	size_t length = strlen(text);
 80002dc:	6838      	ldr	r0, [r7, #0]
 80002de:	f7ff ff35 	bl	800014c <strlen>
 80002e2:	6138      	str	r0, [r7, #16]
	LCD_clrscr(lcd);
 80002e4:	6878      	ldr	r0, [r7, #4]
 80002e6:	f000 f94c 	bl	8000582 <LCD_clrscr>
	int semi_j=0;
 80002ea:	2300      	movs	r3, #0
 80002ec:	60fb      	str	r3, [r7, #12]
	int rtl = 1;
 80002ee:	2301      	movs	r3, #1
 80002f0:	62fb      	str	r3, [r7, #44]	; 0x2c
	while(1){
		int j=semi_j;
 80002f2:	68fb      	ldr	r3, [r7, #12]
 80002f4:	60bb      	str	r3, [r7, #8]

		if (rtl){
 80002f6:	6afb      	ldr	r3, [r7, #44]	; 0x2c
 80002f8:	2b00      	cmp	r3, #0
 80002fa:	d033      	beq.n	8000364 <ScrollingText+0x92>
			for(int i=15;i>0;i--){
 80002fc:	230f      	movs	r3, #15
 80002fe:	62bb      	str	r3, [r7, #40]	; 0x28
 8000300:	e025      	b.n	800034e <ScrollingText+0x7c>
				for(int j=15,count =15-i;j>=i && count>=0;j--,count--){
 8000302:	230f      	movs	r3, #15
 8000304:	627b      	str	r3, [r7, #36]	; 0x24
 8000306:	6abb      	ldr	r3, [r7, #40]	; 0x28
 8000308:	f1c3 030f 	rsb	r3, r3, #15
 800030c:	623b      	str	r3, [r7, #32]
 800030e:	e014      	b.n	800033a <ScrollingText+0x68>
					LCD_gotoxy(lcd,j,0x0);
 8000310:	6a7b      	ldr	r3, [r7, #36]	; 0x24
 8000312:	b2db      	uxtb	r3, r3
 8000314:	2200      	movs	r2, #0
 8000316:	4619      	mov	r1, r3
 8000318:	6878      	ldr	r0, [r7, #4]
 800031a:	f000 f93e 	bl	800059a <LCD_gotoxy>
					LCD_sendChar(lcd,text[count]);
 800031e:	6a3b      	ldr	r3, [r7, #32]
 8000320:	683a      	ldr	r2, [r7, #0]
 8000322:	4413      	add	r3, r2
 8000324:	781b      	ldrb	r3, [r3, #0]
 8000326:	4619      	mov	r1, r3
 8000328:	6878      	ldr	r0, [r7, #4]
 800032a:	f000 f86e 	bl	800040a <LCD_sendChar>
				for(int j=15,count =15-i;j>=i && count>=0;j--,count--){
 800032e:	6a7b      	ldr	r3, [r7, #36]	; 0x24
 8000330:	3b01      	subs	r3, #1
 8000332:	627b      	str	r3, [r7, #36]	; 0x24
 8000334:	6a3b      	ldr	r3, [r7, #32]
 8000336:	3b01      	subs	r3, #1
 8000338:	623b      	str	r3, [r7, #32]
 800033a:	6a7a      	ldr	r2, [r7, #36]	; 0x24
 800033c:	6abb      	ldr	r3, [r7, #40]	; 0x28
 800033e:	429a      	cmp	r2, r3
 8000340:	db02      	blt.n	8000348 <ScrollingText+0x76>
 8000342:	6a3b      	ldr	r3, [r7, #32]
 8000344:	2b00      	cmp	r3, #0
 8000346:	dae3      	bge.n	8000310 <ScrollingText+0x3e>
			for(int i=15;i>0;i--){
 8000348:	6abb      	ldr	r3, [r7, #40]	; 0x28
 800034a:	3b01      	subs	r3, #1
 800034c:	62bb      	str	r3, [r7, #40]	; 0x28
 800034e:	6abb      	ldr	r3, [r7, #40]	; 0x28
 8000350:	2b00      	cmp	r3, #0
 8000352:	dcd6      	bgt.n	8000302 <ScrollingText+0x30>

				}
			}
			rtl =!rtl;
 8000354:	6afb      	ldr	r3, [r7, #44]	; 0x2c
 8000356:	2b00      	cmp	r3, #0
 8000358:	bf0c      	ite	eq
 800035a:	2301      	moveq	r3, #1
 800035c:	2300      	movne	r3, #0
 800035e:	b2db      	uxtb	r3, r3
 8000360:	62fb      	str	r3, [r7, #44]	; 0x2c
 8000362:	e7c6      	b.n	80002f2 <ScrollingText+0x20>
		}

		else{

			int counter=0;
 8000364:	2300      	movs	r3, #0
 8000366:	61fb      	str	r3, [r7, #28]
			for(int i=0;i<length;i++){
 8000368:	2300      	movs	r3, #0
 800036a:	61bb      	str	r3, [r7, #24]
 800036c:	e031      	b.n	80003d2 <ScrollingText+0x100>
				LCD_gotoxy(lcd,0x0,0x0);
 800036e:	2200      	movs	r2, #0
 8000370:	2100      	movs	r1, #0
 8000372:	6878      	ldr	r0, [r7, #4]
 8000374:	f000 f911 	bl	800059a <LCD_gotoxy>
				for(int j=0;j<16 && counter+j<length;j++){
 8000378:	2300      	movs	r3, #0
 800037a:	617b      	str	r3, [r7, #20]
 800037c:	e00d      	b.n	800039a <ScrollingText+0xc8>
						LCD_sendChar(lcd,text[counter+j]);
 800037e:	69fa      	ldr	r2, [r7, #28]
 8000380:	697b      	ldr	r3, [r7, #20]
 8000382:	4413      	add	r3, r2
 8000384:	461a      	mov	r2, r3
 8000386:	683b      	ldr	r3, [r7, #0]
 8000388:	4413      	add	r3, r2
 800038a:	781b      	ldrb	r3, [r3, #0]
 800038c:	4619      	mov	r1, r3
 800038e:	6878      	ldr	r0, [r7, #4]
 8000390:	f000 f83b 	bl	800040a <LCD_sendChar>
				for(int j=0;j<16 && counter+j<length;j++){
 8000394:	697b      	ldr	r3, [r7, #20]
 8000396:	3301      	adds	r3, #1
 8000398:	617b      	str	r3, [r7, #20]
 800039a:	697b      	ldr	r3, [r7, #20]
 800039c:	2b0f      	cmp	r3, #15
 800039e:	dc06      	bgt.n	80003ae <ScrollingText+0xdc>
 80003a0:	69fa      	ldr	r2, [r7, #28]
 80003a2:	697b      	ldr	r3, [r7, #20]
 80003a4:	4413      	add	r3, r2
 80003a6:	461a      	mov	r2, r3
 80003a8:	693b      	ldr	r3, [r7, #16]
 80003aa:	4293      	cmp	r3, r2
 80003ac:	d8e7      	bhi.n	800037e <ScrollingText+0xac>

				}
				if (counter==length-1) rtl=!rtl;
 80003ae:	693b      	ldr	r3, [r7, #16]
 80003b0:	1e5a      	subs	r2, r3, #1
 80003b2:	69fb      	ldr	r3, [r7, #28]
 80003b4:	429a      	cmp	r2, r3
 80003b6:	d106      	bne.n	80003c6 <ScrollingText+0xf4>
 80003b8:	6afb      	ldr	r3, [r7, #44]	; 0x2c
 80003ba:	2b00      	cmp	r3, #0
 80003bc:	bf0c      	ite	eq
 80003be:	2301      	moveq	r3, #1
 80003c0:	2300      	movne	r3, #0
 80003c2:	b2db      	uxtb	r3, r3
 80003c4:	62fb      	str	r3, [r7, #44]	; 0x2c
				counter++;
 80003c6:	69fb      	ldr	r3, [r7, #28]
 80003c8:	3301      	adds	r3, #1
 80003ca:	61fb      	str	r3, [r7, #28]
			for(int i=0;i<length;i++){
 80003cc:	69bb      	ldr	r3, [r7, #24]
 80003ce:	3301      	adds	r3, #1
 80003d0:	61bb      	str	r3, [r7, #24]
 80003d2:	69bb      	ldr	r3, [r7, #24]
 80003d4:	693a      	ldr	r2, [r7, #16]
 80003d6:	429a      	cmp	r2, r3
 80003d8:	d8c9      	bhi.n	800036e <ScrollingText+0x9c>
	while(1){
 80003da:	e78a      	b.n	80002f2 <ScrollingText+0x20>

080003dc <LCD_sendCmd>:
#include "lcd16x2.h"

void LCD_sendCmd(LCD_HandleTypeDef *lcd, uint8_t data) {
 80003dc:	b580      	push	{r7, lr}
 80003de:	b082      	sub	sp, #8
 80003e0:	af00      	add	r7, sp, #0
 80003e2:	6078      	str	r0, [r7, #4]
 80003e4:	460b      	mov	r3, r1
 80003e6:	70fb      	strb	r3, [r7, #3]
    HAL_GPIO_WritePin(lcd->RS.Port, lcd->RS.Pin, GPIO_PIN_RESET);
 80003e8:	687b      	ldr	r3, [r7, #4]
 80003ea:	6818      	ldr	r0, [r3, #0]
 80003ec:	687b      	ldr	r3, [r7, #4]
 80003ee:	889b      	ldrh	r3, [r3, #4]
 80003f0:	2200      	movs	r2, #0
 80003f2:	4619      	mov	r1, r3
 80003f4:	f000 fd4e 	bl	8000e94 <HAL_GPIO_WritePin>
    LCD_sendByte(lcd, data);
 80003f8:	78fb      	ldrb	r3, [r7, #3]
 80003fa:	4619      	mov	r1, r3
 80003fc:	6878      	ldr	r0, [r7, #4]
 80003fe:	f000 f86d 	bl	80004dc <LCD_sendByte>
}
 8000402:	bf00      	nop
 8000404:	3708      	adds	r7, #8
 8000406:	46bd      	mov	sp, r7
 8000408:	bd80      	pop	{r7, pc}

0800040a <LCD_sendChar>:

void LCD_sendChar(LCD_HandleTypeDef *lcd, uint8_t data) {
 800040a:	b580      	push	{r7, lr}
 800040c:	b082      	sub	sp, #8
 800040e:	af00      	add	r7, sp, #0
 8000410:	6078      	str	r0, [r7, #4]
 8000412:	460b      	mov	r3, r1
 8000414:	70fb      	strb	r3, [r7, #3]
    HAL_GPIO_WritePin(lcd->RS.Port, lcd->RS.Pin, GPIO_PIN_SET);
 8000416:	687b      	ldr	r3, [r7, #4]
 8000418:	6818      	ldr	r0, [r3, #0]
 800041a:	687b      	ldr	r3, [r7, #4]
 800041c:	889b      	ldrh	r3, [r3, #4]
 800041e:	2201      	movs	r2, #1
 8000420:	4619      	mov	r1, r3
 8000422:	f000 fd37 	bl	8000e94 <HAL_GPIO_WritePin>
    LCD_sendByte(lcd, data);
 8000426:	78fb      	ldrb	r3, [r7, #3]
 8000428:	4619      	mov	r1, r3
 800042a:	6878      	ldr	r0, [r7, #4]
 800042c:	f000 f856 	bl	80004dc <LCD_sendByte>
}
 8000430:	bf00      	nop
 8000432:	3708      	adds	r7, #8
 8000434:	46bd      	mov	sp, r7
 8000436:	bd80      	pop	{r7, pc}

08000438 <LCD_sendNibble>:

void LCD_sendNibble(LCD_HandleTypeDef *lcd, uint8_t data) {
 8000438:	b580      	push	{r7, lr}
 800043a:	b082      	sub	sp, #8
 800043c:	af00      	add	r7, sp, #0
 800043e:	6078      	str	r0, [r7, #4]
 8000440:	460b      	mov	r3, r1
 8000442:	70fb      	strb	r3, [r7, #3]

    HAL_GPIO_WritePin(lcd->EN.Port, lcd->EN.Pin, GPIO_PIN_SET);
 8000444:	687b      	ldr	r3, [r7, #4]
 8000446:	6898      	ldr	r0, [r3, #8]
 8000448:	687b      	ldr	r3, [r7, #4]
 800044a:	899b      	ldrh	r3, [r3, #12]
 800044c:	2201      	movs	r2, #1
 800044e:	4619      	mov	r1, r3
 8000450:	f000 fd20 	bl	8000e94 <HAL_GPIO_WritePin>
    HAL_Delay(1);
 8000454:	2001      	movs	r0, #1
 8000456:	f000 fac5 	bl	80009e4 <HAL_Delay>
    HAL_GPIO_WritePin(lcd->DB4.Port, lcd->DB4.Pin, !!(data & 0x01) ? GPIO_PIN_SET : GPIO_PIN_RESET);
 800045a:	687b      	ldr	r3, [r7, #4]
 800045c:	6918      	ldr	r0, [r3, #16]
 800045e:	687b      	ldr	r3, [r7, #4]
 8000460:	8a99      	ldrh	r1, [r3, #20]
 8000462:	78fb      	ldrb	r3, [r7, #3]
 8000464:	f003 0301 	and.w	r3, r3, #1
 8000468:	b2db      	uxtb	r3, r3
 800046a:	461a      	mov	r2, r3
 800046c:	f000 fd12 	bl	8000e94 <HAL_GPIO_WritePin>
    HAL_GPIO_WritePin(lcd->DB5.Port, lcd->DB5.Pin, !!(data & 0x02) ? GPIO_PIN_SET : GPIO_PIN_RESET);
 8000470:	687b      	ldr	r3, [r7, #4]
 8000472:	6998      	ldr	r0, [r3, #24]
 8000474:	687b      	ldr	r3, [r7, #4]
 8000476:	8b99      	ldrh	r1, [r3, #28]
 8000478:	78fb      	ldrb	r3, [r7, #3]
 800047a:	105b      	asrs	r3, r3, #1
 800047c:	b2db      	uxtb	r3, r3
 800047e:	f003 0301 	and.w	r3, r3, #1
 8000482:	b2db      	uxtb	r3, r3
 8000484:	461a      	mov	r2, r3
 8000486:	f000 fd05 	bl	8000e94 <HAL_GPIO_WritePin>
    HAL_GPIO_WritePin(lcd->DB6.Port, lcd->DB6.Pin, !!(data & 0x04) ? GPIO_PIN_SET : GPIO_PIN_RESET);
 800048a:	687b      	ldr	r3, [r7, #4]
 800048c:	6a18      	ldr	r0, [r3, #32]
 800048e:	687b      	ldr	r3, [r7, #4]
 8000490:	8c99      	ldrh	r1, [r3, #36]	; 0x24
 8000492:	78fb      	ldrb	r3, [r7, #3]
 8000494:	109b      	asrs	r3, r3, #2
 8000496:	b2db      	uxtb	r3, r3
 8000498:	f003 0301 	and.w	r3, r3, #1
 800049c:	b2db      	uxtb	r3, r3
 800049e:	461a      	mov	r2, r3
 80004a0:	f000 fcf8 	bl	8000e94 <HAL_GPIO_WritePin>
    HAL_GPIO_WritePin(lcd->DB7.Port, lcd->DB7.Pin, !!(data & 0x08) ? GPIO_PIN_SET : GPIO_PIN_RESET);
 80004a4:	687b      	ldr	r3, [r7, #4]
 80004a6:	6a98      	ldr	r0, [r3, #40]	; 0x28
 80004a8:	687b      	ldr	r3, [r7, #4]
 80004aa:	8d99      	ldrh	r1, [r3, #44]	; 0x2c
 80004ac:	78fb      	ldrb	r3, [r7, #3]
 80004ae:	10db      	asrs	r3, r3, #3
 80004b0:	b2db      	uxtb	r3, r3
 80004b2:	f003 0301 	and.w	r3, r3, #1
 80004b6:	b2db      	uxtb	r3, r3
 80004b8:	461a      	mov	r2, r3
 80004ba:	f000 fceb 	bl	8000e94 <HAL_GPIO_WritePin>
    HAL_Delay(1);
 80004be:	2001      	movs	r0, #1
 80004c0:	f000 fa90 	bl	80009e4 <HAL_Delay>
    HAL_GPIO_WritePin(lcd->EN.Port, lcd->EN.Pin, GPIO_PIN_RESET);
 80004c4:	687b      	ldr	r3, [r7, #4]
 80004c6:	6898      	ldr	r0, [r3, #8]
 80004c8:	687b      	ldr	r3, [r7, #4]
 80004ca:	899b      	ldrh	r3, [r3, #12]
 80004cc:	2200      	movs	r2, #0
 80004ce:	4619      	mov	r1, r3
 80004d0:	f000 fce0 	bl	8000e94 <HAL_GPIO_WritePin>
}
 80004d4:	bf00      	nop
 80004d6:	3708      	adds	r7, #8
 80004d8:	46bd      	mov	sp, r7
 80004da:	bd80      	pop	{r7, pc}

080004dc <LCD_sendByte>:

void LCD_sendByte(LCD_HandleTypeDef *lcd, uint8_t data) {
 80004dc:	b580      	push	{r7, lr}
 80004de:	b082      	sub	sp, #8
 80004e0:	af00      	add	r7, sp, #0
 80004e2:	6078      	str	r0, [r7, #4]
 80004e4:	460b      	mov	r3, r1
 80004e6:	70fb      	strb	r3, [r7, #3]
    LCD_sendNibble(lcd, data >> 4); // High order bit
 80004e8:	78fb      	ldrb	r3, [r7, #3]
 80004ea:	091b      	lsrs	r3, r3, #4
 80004ec:	b2db      	uxtb	r3, r3
 80004ee:	4619      	mov	r1, r3
 80004f0:	6878      	ldr	r0, [r7, #4]
 80004f2:	f7ff ffa1 	bl	8000438 <LCD_sendNibble>
    LCD_sendNibble(lcd, data); // Low order bit
 80004f6:	78fb      	ldrb	r3, [r7, #3]
 80004f8:	4619      	mov	r1, r3
 80004fa:	6878      	ldr	r0, [r7, #4]
 80004fc:	f7ff ff9c 	bl	8000438 <LCD_sendNibble>
}
 8000500:	bf00      	nop
 8000502:	3708      	adds	r7, #8
 8000504:	46bd      	mov	sp, r7
 8000506:	bd80      	pop	{r7, pc}

08000508 <LCD_puts>:

void LCD_puts(LCD_HandleTypeDef *lcd, char * data) {
 8000508:	b580      	push	{r7, lr}
 800050a:	b082      	sub	sp, #8
 800050c:	af00      	add	r7, sp, #0
 800050e:	6078      	str	r0, [r7, #4]
 8000510:	6039      	str	r1, [r7, #0]
    while (data[0] != '\0') {
 8000512:	e008      	b.n	8000526 <LCD_puts+0x1e>
        LCD_sendChar(lcd, data[0]);
 8000514:	683b      	ldr	r3, [r7, #0]
 8000516:	781b      	ldrb	r3, [r3, #0]
 8000518:	4619      	mov	r1, r3
 800051a:	6878      	ldr	r0, [r7, #4]
 800051c:	f7ff ff75 	bl	800040a <LCD_sendChar>
        data++;
 8000520:	683b      	ldr	r3, [r7, #0]
 8000522:	3301      	adds	r3, #1
 8000524:	603b      	str	r3, [r7, #0]
    while (data[0] != '\0') {
 8000526:	683b      	ldr	r3, [r7, #0]
 8000528:	781b      	ldrb	r3, [r3, #0]
 800052a:	2b00      	cmp	r3, #0
 800052c:	d1f2      	bne.n	8000514 <LCD_puts+0xc>
    }
}
 800052e:	bf00      	nop
 8000530:	3708      	adds	r7, #8
 8000532:	46bd      	mov	sp, r7
 8000534:	bd80      	pop	{r7, pc}

08000536 <LCD_Init>:

void LCD_Init(LCD_HandleTypeDef *lcd)
{
 8000536:	b580      	push	{r7, lr}
 8000538:	b082      	sub	sp, #8
 800053a:	af00      	add	r7, sp, #0
 800053c:	6078      	str	r0, [r7, #4]
  HAL_Delay(100);
 800053e:	2064      	movs	r0, #100	; 0x64
 8000540:	f000 fa50 	bl	80009e4 <HAL_Delay>
  LCD_sendCmd(lcd, 0x33); // Initialize controller
 8000544:	2133      	movs	r1, #51	; 0x33
 8000546:	6878      	ldr	r0, [r7, #4]
 8000548:	f7ff ff48 	bl	80003dc <LCD_sendCmd>
  LCD_sendCmd(lcd, 0x32); // Set 4-bit mode
 800054c:	2132      	movs	r1, #50	; 0x32
 800054e:	6878      	ldr	r0, [r7, #4]
 8000550:	f7ff ff44 	bl	80003dc <LCD_sendCmd>
  LCD_sendCmd(lcd, 0x28); // 4 bit, 2 line, 5x7
 8000554:	2128      	movs	r1, #40	; 0x28
 8000556:	6878      	ldr	r0, [r7, #4]
 8000558:	f7ff ff40 	bl	80003dc <LCD_sendCmd>
  LCD_sendCmd(lcd, 0x06); // Cursor direction -> right
 800055c:	2106      	movs	r1, #6
 800055e:	6878      	ldr	r0, [r7, #4]
 8000560:	f7ff ff3c 	bl	80003dc <LCD_sendCmd>
  LCD_sendCmd(lcd, 0x0C); // Display on, cursor off
 8000564:	210c      	movs	r1, #12
 8000566:	6878      	ldr	r0, [r7, #4]
 8000568:	f7ff ff38 	bl	80003dc <LCD_sendCmd>
  LCD_sendCmd(lcd, 0x01); // Clear display
 800056c:	2101      	movs	r1, #1
 800056e:	6878      	ldr	r0, [r7, #4]
 8000570:	f7ff ff34 	bl	80003dc <LCD_sendCmd>

  HAL_Delay(100);
 8000574:	2064      	movs	r0, #100	; 0x64
 8000576:	f000 fa35 	bl	80009e4 <HAL_Delay>
}
 800057a:	bf00      	nop
 800057c:	3708      	adds	r7, #8
 800057e:	46bd      	mov	sp, r7
 8000580:	bd80      	pop	{r7, pc}

08000582 <LCD_clrscr>:

void LCD_clrscr(LCD_HandleTypeDef *lcd)
{
 8000582:	b580      	push	{r7, lr}
 8000584:	b082      	sub	sp, #8
 8000586:	af00      	add	r7, sp, #0
 8000588:	6078      	str	r0, [r7, #4]
	LCD_sendCmd(lcd, LCD16X2_CLEAR_DISPLAY);
 800058a:	2101      	movs	r1, #1
 800058c:	6878      	ldr	r0, [r7, #4]
 800058e:	f7ff ff25 	bl	80003dc <LCD_sendCmd>
}
 8000592:	bf00      	nop
 8000594:	3708      	adds	r7, #8
 8000596:	46bd      	mov	sp, r7
 8000598:	bd80      	pop	{r7, pc}

0800059a <LCD_gotoxy>:
{
	LCD_sendCmd(lcd, LCD16X2_CURSOR_HOME);
}

void LCD_gotoxy(LCD_HandleTypeDef *lcd, uint8_t x, uint8_t y)
{
 800059a:	b580      	push	{r7, lr}
 800059c:	b082      	sub	sp, #8
 800059e:	af00      	add	r7, sp, #0
 80005a0:	6078      	str	r0, [r7, #4]
 80005a2:	460b      	mov	r3, r1
 80005a4:	70fb      	strb	r3, [r7, #3]
 80005a6:	4613      	mov	r3, r2
 80005a8:	70bb      	strb	r3, [r7, #2]
	if (y == 0)
 80005aa:	78bb      	ldrb	r3, [r7, #2]
 80005ac:	2b00      	cmp	r3, #0
 80005ae:	d108      	bne.n	80005c2 <LCD_gotoxy+0x28>
		LCD_sendCmd(lcd, LCD16X2_SET_DDRAM_ADDRESS | (LCD16X2_START_LINE_1 + x));
 80005b0:	78fb      	ldrb	r3, [r7, #3]
 80005b2:	f063 037f 	orn	r3, r3, #127	; 0x7f
 80005b6:	b2db      	uxtb	r3, r3
 80005b8:	4619      	mov	r1, r3
 80005ba:	6878      	ldr	r0, [r7, #4]
 80005bc:	f7ff ff0e 	bl	80003dc <LCD_sendCmd>
	else
		LCD_sendCmd(lcd, LCD16X2_SET_DDRAM_ADDRESS | (LCD16X2_START_LINE_2 + x));
}
 80005c0:	e00b      	b.n	80005da <LCD_gotoxy+0x40>
		LCD_sendCmd(lcd, LCD16X2_SET_DDRAM_ADDRESS | (LCD16X2_START_LINE_2 + x));
 80005c2:	78fb      	ldrb	r3, [r7, #3]
 80005c4:	3340      	adds	r3, #64	; 0x40
 80005c6:	b2db      	uxtb	r3, r3
 80005c8:	b25b      	sxtb	r3, r3
 80005ca:	f063 037f 	orn	r3, r3, #127	; 0x7f
 80005ce:	b25b      	sxtb	r3, r3
 80005d0:	b2db      	uxtb	r3, r3
 80005d2:	4619      	mov	r1, r3
 80005d4:	6878      	ldr	r0, [r7, #4]
 80005d6:	f7ff ff01 	bl	80003dc <LCD_sendCmd>
}
 80005da:	bf00      	nop
 80005dc:	3708      	adds	r7, #8
 80005de:	46bd      	mov	sp, r7
 80005e0:	bd80      	pop	{r7, pc}
	...

080005e4 <main>:
/**
  * @brief  The application entry point.
  * @retval int
  */
int main(void)
{
 80005e4:	b580      	push	{r7, lr}
 80005e6:	b08e      	sub	sp, #56	; 0x38
 80005e8:	af00      	add	r7, sp, #0
  /* USER CODE END 1 */

  /* MCU Configuration--------------------------------------------------------*/

  /* Reset of all peripherals, Initializes the Flash interface and the Systick. */
  HAL_Init();
 80005ea:	f000 f999 	bl	8000920 <HAL_Init>
  /* USER CODE BEGIN Init */

  /* USER CODE END Init */

  /* Configure the system clock */
  SystemClock_Config();
 80005ee:	f000 f86d 	bl	80006cc <SystemClock_Config>
  /* USER CODE BEGIN SysInit */

  /* USER CODE END SysInit */

  /* Initialize all configured peripherals */
  MX_GPIO_Init();
 80005f2:	f000 f8a7 	bl	8000744 <MX_GPIO_Init>
  /* USER CODE BEGIN 2 */
  LCD_HandleTypeDef lcd;
 lcd.RS.Port = GPIOA;
 80005f6:	4b30      	ldr	r3, [pc, #192]	; (80006b8 <main+0xd4>)
 80005f8:	607b      	str	r3, [r7, #4]
 lcd.RS.Pin = GPIO_PIN_0;
 80005fa:	2301      	movs	r3, #1
 80005fc:	813b      	strh	r3, [r7, #8]

 lcd.EN.Port = GPIOA;
 80005fe:	4b2e      	ldr	r3, [pc, #184]	; (80006b8 <main+0xd4>)
 8000600:	60fb      	str	r3, [r7, #12]
 lcd.EN.Pin = GPIO_PIN_1;
 8000602:	2302      	movs	r3, #2
 8000604:	823b      	strh	r3, [r7, #16]

 lcd.DB4.Port = GPIOA;
 8000606:	4b2c      	ldr	r3, [pc, #176]	; (80006b8 <main+0xd4>)
 8000608:	617b      	str	r3, [r7, #20]
 lcd.DB4.Pin = GPIO_PIN_3;
 800060a:	2308      	movs	r3, #8
 800060c:	833b      	strh	r3, [r7, #24]

 lcd.DB5.Port = GPIOA;
 800060e:	4b2a      	ldr	r3, [pc, #168]	; (80006b8 <main+0xd4>)
 8000610:	61fb      	str	r3, [r7, #28]
 lcd.DB5.Pin = GPIO_PIN_4;
 8000612:	2310      	movs	r3, #16
 8000614:	843b      	strh	r3, [r7, #32]

 lcd.DB6.Port = GPIOA;
 8000616:	4b28      	ldr	r3, [pc, #160]	; (80006b8 <main+0xd4>)
 8000618:	627b      	str	r3, [r7, #36]	; 0x24
 lcd.DB6.Pin = GPIO_PIN_5;
 800061a:	2320      	movs	r3, #32
 800061c:	853b      	strh	r3, [r7, #40]	; 0x28

 lcd.DB7.Port = GPIOA;
 800061e:	4b26      	ldr	r3, [pc, #152]	; (80006b8 <main+0xd4>)
 8000620:	62fb      	str	r3, [r7, #44]	; 0x2c
 lcd.DB7.Pin = GPIO_PIN_6;
 8000622:	2340      	movs	r3, #64	; 0x40
 8000624:	863b      	strh	r3, [r7, #48]	; 0x30
 LCD_Init(&lcd);
 8000626:	1d3b      	adds	r3, r7, #4
 8000628:	4618      	mov	r0, r3
 800062a:	f7ff ff84 	bl	8000536 <LCD_Init>
//     HAL_Delay(1500);
//     //LCD_gotoxy(&lcd, 0x5, 0x1);
//     //LCD_puts(&lcd, "");
//     //HAL_Delay(500);

     HAL_GPIO_WritePin(lcd.RS.Port, lcd.RS.Pin, GPIO_PIN_SET);
 800062e:	687b      	ldr	r3, [r7, #4]
 8000630:	8939      	ldrh	r1, [r7, #8]
 8000632:	2201      	movs	r2, #1
 8000634:	4618      	mov	r0, r3
 8000636:	f000 fc2d 	bl	8000e94 <HAL_GPIO_WritePin>
     LCD_gotoxy(&lcd, 0x05, 0x0);
 800063a:	1d3b      	adds	r3, r7, #4
 800063c:	2200      	movs	r2, #0
 800063e:	2105      	movs	r1, #5
 8000640:	4618      	mov	r0, r3
 8000642:	f7ff ffaa 	bl	800059a <LCD_gotoxy>
//     HAL_Delay(1000);


//     int spawner[] = {0x01,0x03,0x05,0x08,0x09,0x01,0x05,0x02};

     char block = 0b11111111;
 8000646:	23ff      	movs	r3, #255	; 0xff
 8000648:	f887 3037 	strb.w	r3, [r7, #55]	; 0x37
     CreateCustomCharacter(&lcd,yek,0);
 800064c:	1d3b      	adds	r3, r7, #4
 800064e:	2200      	movs	r2, #0
 8000650:	491a      	ldr	r1, [pc, #104]	; (80006bc <main+0xd8>)
 8000652:	4618      	mov	r0, r3
 8000654:	f7ff fd82 	bl	800015c <CreateCustomCharacter>
     CreateCustomCharacter(&lcd,dow,1);
 8000658:	1d3b      	adds	r3, r7, #4
 800065a:	2201      	movs	r2, #1
 800065c:	4918      	ldr	r1, [pc, #96]	; (80006c0 <main+0xdc>)
 800065e:	4618      	mov	r0, r3
 8000660:	f7ff fd7c 	bl	800015c <CreateCustomCharacter>
     CreateCustomCharacter(&lcd,se,2);
 8000664:	1d3b      	adds	r3, r7, #4
 8000666:	2202      	movs	r2, #2
 8000668:	4916      	ldr	r1, [pc, #88]	; (80006c4 <main+0xe0>)
 800066a:	4618      	mov	r0, r3
 800066c:	f7ff fd76 	bl	800015c <CreateCustomCharacter>

     StartCountDown(&lcd,0);
 8000670:	1d3b      	adds	r3, r7, #4
 8000672:	2100      	movs	r1, #0
 8000674:	4618      	mov	r0, r3
 8000676:	f7ff fdd5 	bl	8000224 <StartCountDown>
	  FirstLevelGround(&lcd,16,1);
 800067a:	1d3b      	adds	r3, r7, #4
 800067c:	2201      	movs	r2, #1
 800067e:	2110      	movs	r1, #16
 8000680:	4618      	mov	r0, r3
 8000682:	f7ff fe01 	bl	8000288 <FirstLevelGround>
	  HAL_Delay(500);
 8000686:	f44f 70fa 	mov.w	r0, #500	; 0x1f4
 800068a:	f000 f9ab 	bl	80009e4 <HAL_Delay>
	  LCD_clrscr(&lcd);
 800068e:	1d3b      	adds	r3, r7, #4
 8000690:	4618      	mov	r0, r3
 8000692:	f7ff ff76 	bl	8000582 <LCD_clrscr>
     LCD_gotoxy(&lcd, 0x0, 0x00);
 8000696:	1d3b      	adds	r3, r7, #4
 8000698:	2200      	movs	r2, #0
 800069a:	2100      	movs	r1, #0
 800069c:	4618      	mov	r0, r3
 800069e:	f7ff ff7c 	bl	800059a <LCD_gotoxy>
    ScrollingText(&lcd,"ahmad mansoori hastam ");
 80006a2:	1d3b      	adds	r3, r7, #4
 80006a4:	4908      	ldr	r1, [pc, #32]	; (80006c8 <main+0xe4>)
 80006a6:	4618      	mov	r0, r3
 80006a8:	f7ff fe13 	bl	80002d2 <ScrollingText>
    LCD_clrscr(&lcd);
 80006ac:	1d3b      	adds	r3, r7, #4
 80006ae:	4618      	mov	r0, r3
 80006b0:	f7ff ff67 	bl	8000582 <LCD_clrscr>
  /* USER CODE END 2 */

  /* Infinite loop */
  /* USER CODE BEGIN WHILE */
  while (1)
 80006b4:	e7fe      	b.n	80006b4 <main+0xd0>
 80006b6:	bf00      	nop
 80006b8:	40010800 	.word	0x40010800
 80006bc:	20000010 	.word	0x20000010
 80006c0:	20000008 	.word	0x20000008
 80006c4:	20000000 	.word	0x20000000
 80006c8:	08001710 	.word	0x08001710

080006cc <SystemClock_Config>:
/**
  * @brief System Clock Configuration
  * @retval None
  */
void SystemClock_Config(void)
{
 80006cc:	b580      	push	{r7, lr}
 80006ce:	b090      	sub	sp, #64	; 0x40
 80006d0:	af00      	add	r7, sp, #0
  RCC_OscInitTypeDef RCC_OscInitStruct = {0};
 80006d2:	f107 0318 	add.w	r3, r7, #24
 80006d6:	2228      	movs	r2, #40	; 0x28
 80006d8:	2100      	movs	r1, #0
 80006da:	4618      	mov	r0, r3
 80006dc:	f001 f800 	bl	80016e0 <memset>
  RCC_ClkInitTypeDef RCC_ClkInitStruct = {0};
 80006e0:	1d3b      	adds	r3, r7, #4
 80006e2:	2200      	movs	r2, #0
 80006e4:	601a      	str	r2, [r3, #0]
 80006e6:	605a      	str	r2, [r3, #4]
 80006e8:	609a      	str	r2, [r3, #8]
 80006ea:	60da      	str	r2, [r3, #12]
 80006ec:	611a      	str	r2, [r3, #16]

  /** Initializes the CPU, AHB and APB busses clocks 
  */
  RCC_OscInitStruct.OscillatorType = RCC_OSCILLATORTYPE_HSI;
 80006ee:	2302      	movs	r3, #2
 80006f0:	61bb      	str	r3, [r7, #24]
  RCC_OscInitStruct.HSIState = RCC_HSI_ON;
 80006f2:	2301      	movs	r3, #1
 80006f4:	62bb      	str	r3, [r7, #40]	; 0x28
  RCC_OscInitStruct.HSICalibrationValue = RCC_HSICALIBRATION_DEFAULT;
 80006f6:	2310      	movs	r3, #16
 80006f8:	62fb      	str	r3, [r7, #44]	; 0x2c
  RCC_OscInitStruct.PLL.PLLState = RCC_PLL_NONE;
 80006fa:	2300      	movs	r3, #0
 80006fc:	637b      	str	r3, [r7, #52]	; 0x34
  if (HAL_RCC_OscConfig(&RCC_OscInitStruct) != HAL_OK)
 80006fe:	f107 0318 	add.w	r3, r7, #24
 8000702:	4618      	mov	r0, r3
 8000704:	f000 fbde 	bl	8000ec4 <HAL_RCC_OscConfig>
 8000708:	4603      	mov	r3, r0
 800070a:	2b00      	cmp	r3, #0
 800070c:	d001      	beq.n	8000712 <SystemClock_Config+0x46>
  {
    Error_Handler();
 800070e:	f000 f84b 	bl	80007a8 <Error_Handler>
  }
  /** Initializes the CPU, AHB and APB busses clocks 
  */
  RCC_ClkInitStruct.ClockType = RCC_CLOCKTYPE_HCLK|RCC_CLOCKTYPE_SYSCLK
 8000712:	230f      	movs	r3, #15
 8000714:	607b      	str	r3, [r7, #4]
                              |RCC_CLOCKTYPE_PCLK1|RCC_CLOCKTYPE_PCLK2;
  RCC_ClkInitStruct.SYSCLKSource = RCC_SYSCLKSOURCE_HSI;
 8000716:	2300      	movs	r3, #0
 8000718:	60bb      	str	r3, [r7, #8]
  RCC_ClkInitStruct.AHBCLKDivider = RCC_SYSCLK_DIV1;
 800071a:	2300      	movs	r3, #0
 800071c:	60fb      	str	r3, [r7, #12]
  RCC_ClkInitStruct.APB1CLKDivider = RCC_HCLK_DIV1;
 800071e:	2300      	movs	r3, #0
 8000720:	613b      	str	r3, [r7, #16]
  RCC_ClkInitStruct.APB2CLKDivider = RCC_HCLK_DIV1;
 8000722:	2300      	movs	r3, #0
 8000724:	617b      	str	r3, [r7, #20]

  if (HAL_RCC_ClockConfig(&RCC_ClkInitStruct, FLASH_LATENCY_0) != HAL_OK)
 8000726:	1d3b      	adds	r3, r7, #4
 8000728:	2100      	movs	r1, #0
 800072a:	4618      	mov	r0, r3
 800072c:	f000 fe4a 	bl	80013c4 <HAL_RCC_ClockConfig>
 8000730:	4603      	mov	r3, r0
 8000732:	2b00      	cmp	r3, #0
 8000734:	d001      	beq.n	800073a <SystemClock_Config+0x6e>
  {
    Error_Handler();
 8000736:	f000 f837 	bl	80007a8 <Error_Handler>
  }
}
 800073a:	bf00      	nop
 800073c:	3740      	adds	r7, #64	; 0x40
 800073e:	46bd      	mov	sp, r7
 8000740:	bd80      	pop	{r7, pc}
	...

08000744 <MX_GPIO_Init>:
  * @brief GPIO Initialization Function
  * @param None
  * @retval None
  */
static void MX_GPIO_Init(void)
{
 8000744:	b580      	push	{r7, lr}
 8000746:	b086      	sub	sp, #24
 8000748:	af00      	add	r7, sp, #0
  GPIO_InitTypeDef GPIO_InitStruct = {0};
 800074a:	f107 0308 	add.w	r3, r7, #8
 800074e:	2200      	movs	r2, #0
 8000750:	601a      	str	r2, [r3, #0]
 8000752:	605a      	str	r2, [r3, #4]
 8000754:	609a      	str	r2, [r3, #8]
 8000756:	60da      	str	r2, [r3, #12]

  /* GPIO Ports Clock Enable */
  __HAL_RCC_GPIOA_CLK_ENABLE();
 8000758:	4b11      	ldr	r3, [pc, #68]	; (80007a0 <MX_GPIO_Init+0x5c>)
 800075a:	699b      	ldr	r3, [r3, #24]
 800075c:	4a10      	ldr	r2, [pc, #64]	; (80007a0 <MX_GPIO_Init+0x5c>)
 800075e:	f043 0304 	orr.w	r3, r3, #4
 8000762:	6193      	str	r3, [r2, #24]
 8000764:	4b0e      	ldr	r3, [pc, #56]	; (80007a0 <MX_GPIO_Init+0x5c>)
 8000766:	699b      	ldr	r3, [r3, #24]
 8000768:	f003 0304 	and.w	r3, r3, #4
 800076c:	607b      	str	r3, [r7, #4]
 800076e:	687b      	ldr	r3, [r7, #4]

  /*Configure GPIO pin Output Level */
  HAL_GPIO_WritePin(GPIOA, GPIO_PIN_0|GPIO_PIN_1|GPIO_PIN_2|GPIO_PIN_3 
 8000770:	2200      	movs	r2, #0
 8000772:	217f      	movs	r1, #127	; 0x7f
 8000774:	480b      	ldr	r0, [pc, #44]	; (80007a4 <MX_GPIO_Init+0x60>)
 8000776:	f000 fb8d 	bl	8000e94 <HAL_GPIO_WritePin>
                          |GPIO_PIN_4|GPIO_PIN_5|GPIO_PIN_6, GPIO_PIN_RESET);

  /*Configure GPIO pins : PA0 PA1 PA2 PA3 
                           PA4 PA5 PA6 */
  GPIO_InitStruct.Pin = GPIO_PIN_0|GPIO_PIN_1|GPIO_PIN_2|GPIO_PIN_3 
 800077a:	237f      	movs	r3, #127	; 0x7f
 800077c:	60bb      	str	r3, [r7, #8]
                          |GPIO_PIN_4|GPIO_PIN_5|GPIO_PIN_6;
  GPIO_InitStruct.Mode = GPIO_MODE_OUTPUT_PP;
 800077e:	2301      	movs	r3, #1
 8000780:	60fb      	str	r3, [r7, #12]
  GPIO_InitStruct.Pull = GPIO_NOPULL;
 8000782:	2300      	movs	r3, #0
 8000784:	613b      	str	r3, [r7, #16]
  GPIO_InitStruct.Speed = GPIO_SPEED_FREQ_LOW;
 8000786:	2302      	movs	r3, #2
 8000788:	617b      	str	r3, [r7, #20]
  HAL_GPIO_Init(GPIOA, &GPIO_InitStruct);
 800078a:	f107 0308 	add.w	r3, r7, #8
 800078e:	4619      	mov	r1, r3
 8000790:	4804      	ldr	r0, [pc, #16]	; (80007a4 <MX_GPIO_Init+0x60>)
 8000792:	f000 fa2d 	bl	8000bf0 <HAL_GPIO_Init>

}
 8000796:	bf00      	nop
 8000798:	3718      	adds	r7, #24
 800079a:	46bd      	mov	sp, r7
 800079c:	bd80      	pop	{r7, pc}
 800079e:	bf00      	nop
 80007a0:	40021000 	.word	0x40021000
 80007a4:	40010800 	.word	0x40010800

080007a8 <Error_Handler>:
/**
  * @brief  This function is executed in case of error occurrence.
  * @retval None
  */
void Error_Handler(void)
{
 80007a8:	b480      	push	{r7}
 80007aa:	af00      	add	r7, sp, #0
  /* USER CODE BEGIN Error_Handler_Debug */
  /* User can add his own implementation to report the HAL error return state */

  /* USER CODE END Error_Handler_Debug */
}
 80007ac:	bf00      	nop
 80007ae:	46bd      	mov	sp, r7
 80007b0:	bc80      	pop	{r7}
 80007b2:	4770      	bx	lr

080007b4 <HAL_MspInit>:
/* USER CODE END 0 */
/**
  * Initializes the Global MSP.
  */
void HAL_MspInit(void)
{
 80007b4:	b480      	push	{r7}
 80007b6:	b085      	sub	sp, #20
 80007b8:	af00      	add	r7, sp, #0
  /* USER CODE BEGIN MspInit 0 */

  /* USER CODE END MspInit 0 */

  __HAL_RCC_AFIO_CLK_ENABLE();
 80007ba:	4b15      	ldr	r3, [pc, #84]	; (8000810 <HAL_MspInit+0x5c>)
 80007bc:	699b      	ldr	r3, [r3, #24]
 80007be:	4a14      	ldr	r2, [pc, #80]	; (8000810 <HAL_MspInit+0x5c>)
 80007c0:	f043 0301 	orr.w	r3, r3, #1
 80007c4:	6193      	str	r3, [r2, #24]
 80007c6:	4b12      	ldr	r3, [pc, #72]	; (8000810 <HAL_MspInit+0x5c>)
 80007c8:	699b      	ldr	r3, [r3, #24]
 80007ca:	f003 0301 	and.w	r3, r3, #1
 80007ce:	60bb      	str	r3, [r7, #8]
 80007d0:	68bb      	ldr	r3, [r7, #8]
  __HAL_RCC_PWR_CLK_ENABLE();
 80007d2:	4b0f      	ldr	r3, [pc, #60]	; (8000810 <HAL_MspInit+0x5c>)
 80007d4:	69db      	ldr	r3, [r3, #28]
 80007d6:	4a0e      	ldr	r2, [pc, #56]	; (8000810 <HAL_MspInit+0x5c>)
 80007d8:	f043 5380 	orr.w	r3, r3, #268435456	; 0x10000000
 80007dc:	61d3      	str	r3, [r2, #28]
 80007de:	4b0c      	ldr	r3, [pc, #48]	; (8000810 <HAL_MspInit+0x5c>)
 80007e0:	69db      	ldr	r3, [r3, #28]
 80007e2:	f003 5380 	and.w	r3, r3, #268435456	; 0x10000000
 80007e6:	607b      	str	r3, [r7, #4]
 80007e8:	687b      	ldr	r3, [r7, #4]

  /* System interrupt init*/

  /** DISABLE: JTAG-DP Disabled and SW-DP Disabled 
  */
  __HAL_AFIO_REMAP_SWJ_DISABLE();
 80007ea:	4b0a      	ldr	r3, [pc, #40]	; (8000814 <HAL_MspInit+0x60>)
 80007ec:	685b      	ldr	r3, [r3, #4]
 80007ee:	60fb      	str	r3, [r7, #12]
 80007f0:	68fb      	ldr	r3, [r7, #12]
 80007f2:	f023 63e0 	bic.w	r3, r3, #117440512	; 0x7000000
 80007f6:	60fb      	str	r3, [r7, #12]
 80007f8:	68fb      	ldr	r3, [r7, #12]
 80007fa:	f043 6380 	orr.w	r3, r3, #67108864	; 0x4000000
 80007fe:	60fb      	str	r3, [r7, #12]
 8000800:	4a04      	ldr	r2, [pc, #16]	; (8000814 <HAL_MspInit+0x60>)
 8000802:	68fb      	ldr	r3, [r7, #12]
 8000804:	6053      	str	r3, [r2, #4]

  /* USER CODE BEGIN MspInit 1 */

  /* USER CODE END MspInit 1 */
}
 8000806:	bf00      	nop
 8000808:	3714      	adds	r7, #20
 800080a:	46bd      	mov	sp, r7
 800080c:	bc80      	pop	{r7}
 800080e:	4770      	bx	lr
 8000810:	40021000 	.word	0x40021000
 8000814:	40010000 	.word	0x40010000

08000818 <NMI_Handler>:
/******************************************************************************/
/**
  * @brief This function handles Non maskable interrupt.
  */
void NMI_Handler(void)
{
 8000818:	b480      	push	{r7}
 800081a:	af00      	add	r7, sp, #0

  /* USER CODE END NonMaskableInt_IRQn 0 */
  /* USER CODE BEGIN NonMaskableInt_IRQn 1 */

  /* USER CODE END NonMaskableInt_IRQn 1 */
}
 800081c:	bf00      	nop
 800081e:	46bd      	mov	sp, r7
 8000820:	bc80      	pop	{r7}
 8000822:	4770      	bx	lr

08000824 <HardFault_Handler>:

/**
  * @brief This function handles Hard fault interrupt.
  */
void HardFault_Handler(void)
{
 8000824:	b480      	push	{r7}
 8000826:	af00      	add	r7, sp, #0
  /* USER CODE BEGIN HardFault_IRQn 0 */

  /* USER CODE END HardFault_IRQn 0 */
  while (1)
 8000828:	e7fe      	b.n	8000828 <HardFault_Handler+0x4>

0800082a <MemManage_Handler>:

/**
  * @brief This function handles Memory management fault.
  */
void MemManage_Handler(void)
{
 800082a:	b480      	push	{r7}
 800082c:	af00      	add	r7, sp, #0
  /* USER CODE BEGIN MemoryManagement_IRQn 0 */

  /* USER CODE END MemoryManagement_IRQn 0 */
  while (1)
 800082e:	e7fe      	b.n	800082e <MemManage_Handler+0x4>

08000830 <BusFault_Handler>:

/**
  * @brief This function handles Prefetch fault, memory access fault.
  */
void BusFault_Handler(void)
{
 8000830:	b480      	push	{r7}
 8000832:	af00      	add	r7, sp, #0
  /* USER CODE BEGIN BusFault_IRQn 0 */

  /* USER CODE END BusFault_IRQn 0 */
  while (1)
 8000834:	e7fe      	b.n	8000834 <BusFault_Handler+0x4>

08000836 <UsageFault_Handler>:

/**
  * @brief This function handles Undefined instruction or illegal state.
  */
void UsageFault_Handler(void)
{
 8000836:	b480      	push	{r7}
 8000838:	af00      	add	r7, sp, #0
  /* USER CODE BEGIN UsageFault_IRQn 0 */

  /* USER CODE END UsageFault_IRQn 0 */
  while (1)
 800083a:	e7fe      	b.n	800083a <UsageFault_Handler+0x4>

0800083c <SVC_Handler>:

/**
  * @brief This function handles System service call via SWI instruction.
  */
void SVC_Handler(void)
{
 800083c:	b480      	push	{r7}
 800083e:	af00      	add	r7, sp, #0

  /* USER CODE END SVCall_IRQn 0 */
  /* USER CODE BEGIN SVCall_IRQn 1 */

  /* USER CODE END SVCall_IRQn 1 */
}
 8000840:	bf00      	nop
 8000842:	46bd      	mov	sp, r7
 8000844:	bc80      	pop	{r7}
 8000846:	4770      	bx	lr

08000848 <DebugMon_Handler>:

/**
  * @brief This function handles Debug monitor.
  */
void DebugMon_Handler(void)
{
 8000848:	b480      	push	{r7}
 800084a:	af00      	add	r7, sp, #0

  /* USER CODE END DebugMonitor_IRQn 0 */
  /* USER CODE BEGIN DebugMonitor_IRQn 1 */

  /* USER CODE END DebugMonitor_IRQn 1 */
}
 800084c:	bf00      	nop
 800084e:	46bd      	mov	sp, r7
 8000850:	bc80      	pop	{r7}
 8000852:	4770      	bx	lr

08000854 <PendSV_Handler>:

/**
  * @brief This function handles Pendable request for system service.
  */
void PendSV_Handler(void)
{
 8000854:	b480      	push	{r7}
 8000856:	af00      	add	r7, sp, #0

  /* USER CODE END PendSV_IRQn 0 */
  /* USER CODE BEGIN PendSV_IRQn 1 */

  /* USER CODE END PendSV_IRQn 1 */
}
 8000858:	bf00      	nop
 800085a:	46bd      	mov	sp, r7
 800085c:	bc80      	pop	{r7}
 800085e:	4770      	bx	lr

08000860 <SysTick_Handler>:

/**
  * @brief This function handles System tick timer.
  */
void SysTick_Handler(void)
{
 8000860:	b580      	push	{r7, lr}
 8000862:	af00      	add	r7, sp, #0
  /* USER CODE BEGIN SysTick_IRQn 0 */

  /* USER CODE END SysTick_IRQn 0 */
  HAL_IncTick();
 8000864:	f000 f8a2 	bl	80009ac <HAL_IncTick>
  /* USER CODE BEGIN SysTick_IRQn 1 */

  /* USER CODE END SysTick_IRQn 1 */
}
 8000868:	bf00      	nop
 800086a:	bd80      	pop	{r7, pc}

0800086c <SystemInit>:
  * @note   This function should be used only after reset.
  * @param  None
  * @retval None
  */
void SystemInit (void)
{
 800086c:	b480      	push	{r7}
 800086e:	af00      	add	r7, sp, #0
  /* Reset the RCC clock configuration to the default reset state(for debug purpose) */
  /* Set HSION bit */
  RCC->CR |= 0x00000001U;
 8000870:	4b15      	ldr	r3, [pc, #84]	; (80008c8 <SystemInit+0x5c>)
 8000872:	681b      	ldr	r3, [r3, #0]
 8000874:	4a14      	ldr	r2, [pc, #80]	; (80008c8 <SystemInit+0x5c>)
 8000876:	f043 0301 	orr.w	r3, r3, #1
 800087a:	6013      	str	r3, [r2, #0]

  /* Reset SW, HPRE, PPRE1, PPRE2, ADCPRE and MCO bits */
#if !defined(STM32F105xC) && !defined(STM32F107xC)
  RCC->CFGR &= 0xF8FF0000U;
 800087c:	4b12      	ldr	r3, [pc, #72]	; (80008c8 <SystemInit+0x5c>)
 800087e:	685a      	ldr	r2, [r3, #4]
 8000880:	4911      	ldr	r1, [pc, #68]	; (80008c8 <SystemInit+0x5c>)
 8000882:	4b12      	ldr	r3, [pc, #72]	; (80008cc <SystemInit+0x60>)
 8000884:	4013      	ands	r3, r2
 8000886:	604b      	str	r3, [r1, #4]
#else
  RCC->CFGR &= 0xF0FF0000U;
#endif /* STM32F105xC */   
  
  /* Reset HSEON, CSSON and PLLON bits */
  RCC->CR &= 0xFEF6FFFFU;
 8000888:	4b0f      	ldr	r3, [pc, #60]	; (80008c8 <SystemInit+0x5c>)
 800088a:	681b      	ldr	r3, [r3, #0]
 800088c:	4a0e      	ldr	r2, [pc, #56]	; (80008c8 <SystemInit+0x5c>)
 800088e:	f023 7384 	bic.w	r3, r3, #17301504	; 0x1080000
 8000892:	f423 3380 	bic.w	r3, r3, #65536	; 0x10000
 8000896:	6013      	str	r3, [r2, #0]

  /* Reset HSEBYP bit */
  RCC->CR &= 0xFFFBFFFFU;
 8000898:	4b0b      	ldr	r3, [pc, #44]	; (80008c8 <SystemInit+0x5c>)
 800089a:	681b      	ldr	r3, [r3, #0]
 800089c:	4a0a      	ldr	r2, [pc, #40]	; (80008c8 <SystemInit+0x5c>)
 800089e:	f423 2380 	bic.w	r3, r3, #262144	; 0x40000
 80008a2:	6013      	str	r3, [r2, #0]

  /* Reset PLLSRC, PLLXTPRE, PLLMUL and USBPRE/OTGFSPRE bits */
  RCC->CFGR &= 0xFF80FFFFU;
 80008a4:	4b08      	ldr	r3, [pc, #32]	; (80008c8 <SystemInit+0x5c>)
 80008a6:	685b      	ldr	r3, [r3, #4]
 80008a8:	4a07      	ldr	r2, [pc, #28]	; (80008c8 <SystemInit+0x5c>)
 80008aa:	f423 03fe 	bic.w	r3, r3, #8323072	; 0x7f0000
 80008ae:	6053      	str	r3, [r2, #4]

  /* Reset CFGR2 register */
  RCC->CFGR2 = 0x00000000U;      
#else
  /* Disable all interrupts and clear pending bits  */
  RCC->CIR = 0x009F0000U;
 80008b0:	4b05      	ldr	r3, [pc, #20]	; (80008c8 <SystemInit+0x5c>)
 80008b2:	f44f 021f 	mov.w	r2, #10420224	; 0x9f0000
 80008b6:	609a      	str	r2, [r3, #8]
#endif 

#ifdef VECT_TAB_SRAM
  SCB->VTOR = SRAM_BASE | VECT_TAB_OFFSET; /* Vector Table Relocation in Internal SRAM. */
#else
  SCB->VTOR = FLASH_BASE | VECT_TAB_OFFSET; /* Vector Table Relocation in Internal FLASH. */
 80008b8:	4b05      	ldr	r3, [pc, #20]	; (80008d0 <SystemInit+0x64>)
 80008ba:	f04f 6200 	mov.w	r2, #134217728	; 0x8000000
 80008be:	609a      	str	r2, [r3, #8]
#endif 
}
 80008c0:	bf00      	nop
 80008c2:	46bd      	mov	sp, r7
 80008c4:	bc80      	pop	{r7}
 80008c6:	4770      	bx	lr
 80008c8:	40021000 	.word	0x40021000
 80008cc:	f8ff0000 	.word	0xf8ff0000
 80008d0:	e000ed00 	.word	0xe000ed00

080008d4 <Reset_Handler>:
  .weak Reset_Handler
  .type Reset_Handler, %function
Reset_Handler:

/* Copy the data segment initializers from flash to SRAM */
  movs r1, #0
 80008d4:	2100      	movs	r1, #0
  b LoopCopyDataInit
 80008d6:	e003      	b.n	80008e0 <LoopCopyDataInit>

080008d8 <CopyDataInit>:

CopyDataInit:
  ldr r3, =_sidata
 80008d8:	4b0b      	ldr	r3, [pc, #44]	; (8000908 <LoopFillZerobss+0x14>)
  ldr r3, [r3, r1]
 80008da:	585b      	ldr	r3, [r3, r1]
  str r3, [r0, r1]
 80008dc:	5043      	str	r3, [r0, r1]
  adds r1, r1, #4
 80008de:	3104      	adds	r1, #4

080008e0 <LoopCopyDataInit>:

LoopCopyDataInit:
  ldr r0, =_sdata
 80008e0:	480a      	ldr	r0, [pc, #40]	; (800090c <LoopFillZerobss+0x18>)
  ldr r3, =_edata
 80008e2:	4b0b      	ldr	r3, [pc, #44]	; (8000910 <LoopFillZerobss+0x1c>)
  adds r2, r0, r1
 80008e4:	1842      	adds	r2, r0, r1
  cmp r2, r3
 80008e6:	429a      	cmp	r2, r3
  bcc CopyDataInit
 80008e8:	d3f6      	bcc.n	80008d8 <CopyDataInit>
  ldr r2, =_sbss
 80008ea:	4a0a      	ldr	r2, [pc, #40]	; (8000914 <LoopFillZerobss+0x20>)
  b LoopFillZerobss
 80008ec:	e002      	b.n	80008f4 <LoopFillZerobss>

080008ee <FillZerobss>:
/* Zero fill the bss segment. */
FillZerobss:
  movs r3, #0
 80008ee:	2300      	movs	r3, #0
  str r3, [r2], #4
 80008f0:	f842 3b04 	str.w	r3, [r2], #4

080008f4 <LoopFillZerobss>:

LoopFillZerobss:
  ldr r3, = _ebss
 80008f4:	4b08      	ldr	r3, [pc, #32]	; (8000918 <LoopFillZerobss+0x24>)
  cmp r2, r3
 80008f6:	429a      	cmp	r2, r3
  bcc FillZerobss
 80008f8:	d3f9      	bcc.n	80008ee <FillZerobss>

/* Call the clock system intitialization function.*/
    bl  SystemInit
 80008fa:	f7ff ffb7 	bl	800086c <SystemInit>
/* Call static constructors */
    bl __libc_init_array
 80008fe:	f000 fecb 	bl	8001698 <__libc_init_array>
/* Call the application's entry point.*/
  bl main
 8000902:	f7ff fe6f 	bl	80005e4 <main>
  bx lr
 8000906:	4770      	bx	lr
  ldr r3, =_sidata
 8000908:	08001754 	.word	0x08001754
  ldr r0, =_sdata
 800090c:	20000000 	.word	0x20000000
  ldr r3, =_edata
 8000910:	20000024 	.word	0x20000024
  ldr r2, =_sbss
 8000914:	20000024 	.word	0x20000024
  ldr r3, = _ebss
 8000918:	20000044 	.word	0x20000044

0800091c <ADC1_2_IRQHandler>:
 * @retval : None
*/
    .section .text.Default_Handler,"ax",%progbits
Default_Handler:
Infinite_Loop:
  b Infinite_Loop
 800091c:	e7fe      	b.n	800091c <ADC1_2_IRQHandler>
	...

08000920 <HAL_Init>:
  *         need to ensure that the SysTick time base is always set to 1 millisecond
  *         to have correct HAL operation.
  * @retval HAL status
  */
HAL_StatusTypeDef HAL_Init(void)
{
 8000920:	b580      	push	{r7, lr}
 8000922:	af00      	add	r7, sp, #0
    defined(STM32F102x6) || defined(STM32F102xB) || \
    defined(STM32F103x6) || defined(STM32F103xB) || defined(STM32F103xE) || defined(STM32F103xG) || \
    defined(STM32F105xC) || defined(STM32F107xC)

  /* Prefetch buffer is not available on value line devices */
  __HAL_FLASH_PREFETCH_BUFFER_ENABLE();
 8000924:	4b08      	ldr	r3, [pc, #32]	; (8000948 <HAL_Init+0x28>)
 8000926:	681b      	ldr	r3, [r3, #0]
 8000928:	4a07      	ldr	r2, [pc, #28]	; (8000948 <HAL_Init+0x28>)
 800092a:	f043 0310 	orr.w	r3, r3, #16
 800092e:	6013      	str	r3, [r2, #0]
#endif
#endif /* PREFETCH_ENABLE */

  /* Set Interrupt Group Priority */
  HAL_NVIC_SetPriorityGrouping(NVIC_PRIORITYGROUP_4);
 8000930:	2003      	movs	r0, #3
 8000932:	f000 f929 	bl	8000b88 <HAL_NVIC_SetPriorityGrouping>

  /* Use systick as time base source and configure 1ms tick (default clock after Reset is HSI) */
  HAL_InitTick(TICK_INT_PRIORITY);
 8000936:	2000      	movs	r0, #0
 8000938:	f000 f808 	bl	800094c <HAL_InitTick>

  /* Init the low level hardware */
  HAL_MspInit();
 800093c:	f7ff ff3a 	bl	80007b4 <HAL_MspInit>

  /* Return function status */
  return HAL_OK;
 8000940:	2300      	movs	r3, #0
}
 8000942:	4618      	mov	r0, r3
 8000944:	bd80      	pop	{r7, pc}
 8000946:	bf00      	nop
 8000948:	40022000 	.word	0x40022000

0800094c <HAL_InitTick>:
  *       implementation  in user file.
  * @param TickPriority Tick interrupt priority.
  * @retval HAL status
  */
__weak HAL_StatusTypeDef HAL_InitTick(uint32_t TickPriority)
{
 800094c:	b580      	push	{r7, lr}
 800094e:	b082      	sub	sp, #8
 8000950:	af00      	add	r7, sp, #0
 8000952:	6078      	str	r0, [r7, #4]
  /* Configure the SysTick to have interrupt in 1ms time basis*/
  if (HAL_SYSTICK_Config(SystemCoreClock / (1000U / uwTickFreq)) > 0U)
 8000954:	4b12      	ldr	r3, [pc, #72]	; (80009a0 <HAL_InitTick+0x54>)
 8000956:	681a      	ldr	r2, [r3, #0]
 8000958:	4b12      	ldr	r3, [pc, #72]	; (80009a4 <HAL_InitTick+0x58>)
 800095a:	781b      	ldrb	r3, [r3, #0]
 800095c:	4619      	mov	r1, r3
 800095e:	f44f 737a 	mov.w	r3, #1000	; 0x3e8
 8000962:	fbb3 f3f1 	udiv	r3, r3, r1
 8000966:	fbb2 f3f3 	udiv	r3, r2, r3
 800096a:	4618      	mov	r0, r3
 800096c:	f000 f933 	bl	8000bd6 <HAL_SYSTICK_Config>
 8000970:	4603      	mov	r3, r0
 8000972:	2b00      	cmp	r3, #0
 8000974:	d001      	beq.n	800097a <HAL_InitTick+0x2e>
  {
    return HAL_ERROR;
 8000976:	2301      	movs	r3, #1
 8000978:	e00e      	b.n	8000998 <HAL_InitTick+0x4c>
  }

  /* Configure the SysTick IRQ priority */
  if (TickPriority < (1UL << __NVIC_PRIO_BITS))
 800097a:	687b      	ldr	r3, [r7, #4]
 800097c:	2b0f      	cmp	r3, #15
 800097e:	d80a      	bhi.n	8000996 <HAL_InitTick+0x4a>
  {
    HAL_NVIC_SetPriority(SysTick_IRQn, TickPriority, 0U);
 8000980:	2200      	movs	r2, #0
 8000982:	6879      	ldr	r1, [r7, #4]
 8000984:	f04f 30ff 	mov.w	r0, #4294967295
 8000988:	f000 f909 	bl	8000b9e <HAL_NVIC_SetPriority>
    uwTickPrio = TickPriority;
 800098c:	4a06      	ldr	r2, [pc, #24]	; (80009a8 <HAL_InitTick+0x5c>)
 800098e:	687b      	ldr	r3, [r7, #4]
 8000990:	6013      	str	r3, [r2, #0]
  {
    return HAL_ERROR;
  }

  /* Return function status */
  return HAL_OK;
 8000992:	2300      	movs	r3, #0
 8000994:	e000      	b.n	8000998 <HAL_InitTick+0x4c>
    return HAL_ERROR;
 8000996:	2301      	movs	r3, #1
}
 8000998:	4618      	mov	r0, r3
 800099a:	3708      	adds	r7, #8
 800099c:	46bd      	mov	sp, r7
 800099e:	bd80      	pop	{r7, pc}
 80009a0:	20000018 	.word	0x20000018
 80009a4:	20000020 	.word	0x20000020
 80009a8:	2000001c 	.word	0x2000001c

080009ac <HAL_IncTick>:
  * @note This function is declared as __weak to be overwritten in case of other
  *      implementations in user file.
  * @retval None
  */
__weak void HAL_IncTick(void)
{
 80009ac:	b480      	push	{r7}
 80009ae:	af00      	add	r7, sp, #0
  uwTick += uwTickFreq;
 80009b0:	4b05      	ldr	r3, [pc, #20]	; (80009c8 <HAL_IncTick+0x1c>)
 80009b2:	781b      	ldrb	r3, [r3, #0]
 80009b4:	461a      	mov	r2, r3
 80009b6:	4b05      	ldr	r3, [pc, #20]	; (80009cc <HAL_IncTick+0x20>)
 80009b8:	681b      	ldr	r3, [r3, #0]
 80009ba:	4413      	add	r3, r2
 80009bc:	4a03      	ldr	r2, [pc, #12]	; (80009cc <HAL_IncTick+0x20>)
 80009be:	6013      	str	r3, [r2, #0]
}
 80009c0:	bf00      	nop
 80009c2:	46bd      	mov	sp, r7
 80009c4:	bc80      	pop	{r7}
 80009c6:	4770      	bx	lr
 80009c8:	20000020 	.word	0x20000020
 80009cc:	20000040 	.word	0x20000040

080009d0 <HAL_GetTick>:
  * @note  This function is declared as __weak to be overwritten in case of other
  *       implementations in user file.
  * @retval tick value
  */
__weak uint32_t HAL_GetTick(void)
{
 80009d0:	b480      	push	{r7}
 80009d2:	af00      	add	r7, sp, #0
  return uwTick;
 80009d4:	4b02      	ldr	r3, [pc, #8]	; (80009e0 <HAL_GetTick+0x10>)
 80009d6:	681b      	ldr	r3, [r3, #0]
}
 80009d8:	4618      	mov	r0, r3
 80009da:	46bd      	mov	sp, r7
 80009dc:	bc80      	pop	{r7}
 80009de:	4770      	bx	lr
 80009e0:	20000040 	.word	0x20000040

080009e4 <HAL_Delay>:
  *       implementations in user file.
  * @param Delay specifies the delay time length, in milliseconds.
  * @retval None
  */
__weak void HAL_Delay(uint32_t Delay)
{
 80009e4:	b580      	push	{r7, lr}
 80009e6:	b084      	sub	sp, #16
 80009e8:	af00      	add	r7, sp, #0
 80009ea:	6078      	str	r0, [r7, #4]
  uint32_t tickstart = HAL_GetTick();
 80009ec:	f7ff fff0 	bl	80009d0 <HAL_GetTick>
 80009f0:	60b8      	str	r0, [r7, #8]
  uint32_t wait = Delay;
 80009f2:	687b      	ldr	r3, [r7, #4]
 80009f4:	60fb      	str	r3, [r7, #12]

  /* Add a freq to guarantee minimum wait */
  if (wait < HAL_MAX_DELAY)
 80009f6:	68fb      	ldr	r3, [r7, #12]
 80009f8:	f1b3 3fff 	cmp.w	r3, #4294967295
 80009fc:	d005      	beq.n	8000a0a <HAL_Delay+0x26>
  {
    wait += (uint32_t)(uwTickFreq);
 80009fe:	4b09      	ldr	r3, [pc, #36]	; (8000a24 <HAL_Delay+0x40>)
 8000a00:	781b      	ldrb	r3, [r3, #0]
 8000a02:	461a      	mov	r2, r3
 8000a04:	68fb      	ldr	r3, [r7, #12]
 8000a06:	4413      	add	r3, r2
 8000a08:	60fb      	str	r3, [r7, #12]
  }

  while ((HAL_GetTick() - tickstart) < wait)
 8000a0a:	bf00      	nop
 8000a0c:	f7ff ffe0 	bl	80009d0 <HAL_GetTick>
 8000a10:	4602      	mov	r2, r0
 8000a12:	68bb      	ldr	r3, [r7, #8]
 8000a14:	1ad3      	subs	r3, r2, r3
 8000a16:	68fa      	ldr	r2, [r7, #12]
 8000a18:	429a      	cmp	r2, r3
 8000a1a:	d8f7      	bhi.n	8000a0c <HAL_Delay+0x28>
  {
  }
}
 8000a1c:	bf00      	nop
 8000a1e:	3710      	adds	r7, #16
 8000a20:	46bd      	mov	sp, r7
 8000a22:	bd80      	pop	{r7, pc}
 8000a24:	20000020 	.word	0x20000020

08000a28 <__NVIC_SetPriorityGrouping>:
           In case of a conflict between priority grouping and available
           priority bits (__NVIC_PRIO_BITS), the smallest possible priority group is set.
  \param [in]      PriorityGroup  Priority grouping field.
 */
__STATIC_INLINE void __NVIC_SetPriorityGrouping(uint32_t PriorityGroup)
{
 8000a28:	b480      	push	{r7}
 8000a2a:	b085      	sub	sp, #20
 8000a2c:	af00      	add	r7, sp, #0
 8000a2e:	6078      	str	r0, [r7, #4]
  uint32_t reg_value;
  uint32_t PriorityGroupTmp = (PriorityGroup & (uint32_t)0x07UL);             /* only values 0..7 are used          */
 8000a30:	687b      	ldr	r3, [r7, #4]
 8000a32:	f003 0307 	and.w	r3, r3, #7
 8000a36:	60fb      	str	r3, [r7, #12]

  reg_value  =  SCB->AIRCR;                                                   /* read old register configuration    */
 8000a38:	4b0c      	ldr	r3, [pc, #48]	; (8000a6c <__NVIC_SetPriorityGrouping+0x44>)
 8000a3a:	68db      	ldr	r3, [r3, #12]
 8000a3c:	60bb      	str	r3, [r7, #8]
  reg_value &= ~((uint32_t)(SCB_AIRCR_VECTKEY_Msk | SCB_AIRCR_PRIGROUP_Msk)); /* clear bits to change               */
 8000a3e:	68ba      	ldr	r2, [r7, #8]
 8000a40:	f64f 03ff 	movw	r3, #63743	; 0xf8ff
 8000a44:	4013      	ands	r3, r2
 8000a46:	60bb      	str	r3, [r7, #8]
  reg_value  =  (reg_value                                   |
                ((uint32_t)0x5FAUL << SCB_AIRCR_VECTKEY_Pos) |
                (PriorityGroupTmp << SCB_AIRCR_PRIGROUP_Pos) );               /* Insert write key and priority group */
 8000a48:	68fb      	ldr	r3, [r7, #12]
 8000a4a:	021a      	lsls	r2, r3, #8
                ((uint32_t)0x5FAUL << SCB_AIRCR_VECTKEY_Pos) |
 8000a4c:	68bb      	ldr	r3, [r7, #8]
 8000a4e:	4313      	orrs	r3, r2
  reg_value  =  (reg_value                                   |
 8000a50:	f043 63bf 	orr.w	r3, r3, #100139008	; 0x5f80000
 8000a54:	f443 3300 	orr.w	r3, r3, #131072	; 0x20000
 8000a58:	60bb      	str	r3, [r7, #8]
  SCB->AIRCR =  reg_value;
 8000a5a:	4a04      	ldr	r2, [pc, #16]	; (8000a6c <__NVIC_SetPriorityGrouping+0x44>)
 8000a5c:	68bb      	ldr	r3, [r7, #8]
 8000a5e:	60d3      	str	r3, [r2, #12]
}
 8000a60:	bf00      	nop
 8000a62:	3714      	adds	r7, #20
 8000a64:	46bd      	mov	sp, r7
 8000a66:	bc80      	pop	{r7}
 8000a68:	4770      	bx	lr
 8000a6a:	bf00      	nop
 8000a6c:	e000ed00 	.word	0xe000ed00

08000a70 <__NVIC_GetPriorityGrouping>:
  \brief   Get Priority Grouping
  \details Reads the priority grouping field from the NVIC Interrupt Controller.
  \return                Priority grouping field (SCB->AIRCR [10:8] PRIGROUP field).
 */
__STATIC_INLINE uint32_t __NVIC_GetPriorityGrouping(void)
{
 8000a70:	b480      	push	{r7}
 8000a72:	af00      	add	r7, sp, #0
  return ((uint32_t)((SCB->AIRCR & SCB_AIRCR_PRIGROUP_Msk) >> SCB_AIRCR_PRIGROUP_Pos));
 8000a74:	4b04      	ldr	r3, [pc, #16]	; (8000a88 <__NVIC_GetPriorityGrouping+0x18>)
 8000a76:	68db      	ldr	r3, [r3, #12]
 8000a78:	0a1b      	lsrs	r3, r3, #8
 8000a7a:	f003 0307 	and.w	r3, r3, #7
}
 8000a7e:	4618      	mov	r0, r3
 8000a80:	46bd      	mov	sp, r7
 8000a82:	bc80      	pop	{r7}
 8000a84:	4770      	bx	lr
 8000a86:	bf00      	nop
 8000a88:	e000ed00 	.word	0xe000ed00

08000a8c <__NVIC_SetPriority>:
  \param [in]      IRQn  Interrupt number.
  \param [in]  priority  Priority to set.
  \note    The priority cannot be set for every processor exception.
 */
__STATIC_INLINE void __NVIC_SetPriority(IRQn_Type IRQn, uint32_t priority)
{
 8000a8c:	b480      	push	{r7}
 8000a8e:	b083      	sub	sp, #12
 8000a90:	af00      	add	r7, sp, #0
 8000a92:	4603      	mov	r3, r0
 8000a94:	6039      	str	r1, [r7, #0]
 8000a96:	71fb      	strb	r3, [r7, #7]
  if ((int32_t)(IRQn) >= 0)
 8000a98:	f997 3007 	ldrsb.w	r3, [r7, #7]
 8000a9c:	2b00      	cmp	r3, #0
 8000a9e:	db0a      	blt.n	8000ab6 <__NVIC_SetPriority+0x2a>
  {
    NVIC->IP[((uint32_t)IRQn)]               = (uint8_t)((priority << (8U - __NVIC_PRIO_BITS)) & (uint32_t)0xFFUL);
 8000aa0:	683b      	ldr	r3, [r7, #0]
 8000aa2:	b2da      	uxtb	r2, r3
 8000aa4:	490c      	ldr	r1, [pc, #48]	; (8000ad8 <__NVIC_SetPriority+0x4c>)
 8000aa6:	f997 3007 	ldrsb.w	r3, [r7, #7]
 8000aaa:	0112      	lsls	r2, r2, #4
 8000aac:	b2d2      	uxtb	r2, r2
 8000aae:	440b      	add	r3, r1
 8000ab0:	f883 2300 	strb.w	r2, [r3, #768]	; 0x300
  }
  else
  {
    SCB->SHP[(((uint32_t)IRQn) & 0xFUL)-4UL] = (uint8_t)((priority << (8U - __NVIC_PRIO_BITS)) & (uint32_t)0xFFUL);
  }
}
 8000ab4:	e00a      	b.n	8000acc <__NVIC_SetPriority+0x40>
    SCB->SHP[(((uint32_t)IRQn) & 0xFUL)-4UL] = (uint8_t)((priority << (8U - __NVIC_PRIO_BITS)) & (uint32_t)0xFFUL);
 8000ab6:	683b      	ldr	r3, [r7, #0]
 8000ab8:	b2da      	uxtb	r2, r3
 8000aba:	4908      	ldr	r1, [pc, #32]	; (8000adc <__NVIC_SetPriority+0x50>)
 8000abc:	79fb      	ldrb	r3, [r7, #7]
 8000abe:	f003 030f 	and.w	r3, r3, #15
 8000ac2:	3b04      	subs	r3, #4
 8000ac4:	0112      	lsls	r2, r2, #4
 8000ac6:	b2d2      	uxtb	r2, r2
 8000ac8:	440b      	add	r3, r1
 8000aca:	761a      	strb	r2, [r3, #24]
}
 8000acc:	bf00      	nop
 8000ace:	370c      	adds	r7, #12
 8000ad0:	46bd      	mov	sp, r7
 8000ad2:	bc80      	pop	{r7}
 8000ad4:	4770      	bx	lr
 8000ad6:	bf00      	nop
 8000ad8:	e000e100 	.word	0xe000e100
 8000adc:	e000ed00 	.word	0xe000ed00

08000ae0 <NVIC_EncodePriority>:
  \param [in]   PreemptPriority  Preemptive priority value (starting from 0).
  \param [in]       SubPriority  Subpriority value (starting from 0).
  \return                        Encoded priority. Value can be used in the function \ref NVIC_SetPriority().
 */
__STATIC_INLINE uint32_t NVIC_EncodePriority (uint32_t PriorityGroup, uint32_t PreemptPriority, uint32_t SubPriority)
{
 8000ae0:	b480      	push	{r7}
 8000ae2:	b089      	sub	sp, #36	; 0x24
 8000ae4:	af00      	add	r7, sp, #0
 8000ae6:	60f8      	str	r0, [r7, #12]
 8000ae8:	60b9      	str	r1, [r7, #8]
 8000aea:	607a      	str	r2, [r7, #4]
  uint32_t PriorityGroupTmp = (PriorityGroup & (uint32_t)0x07UL);   /* only values 0..7 are used          */
 8000aec:	68fb      	ldr	r3, [r7, #12]
 8000aee:	f003 0307 	and.w	r3, r3, #7
 8000af2:	61fb      	str	r3, [r7, #28]
  uint32_t PreemptPriorityBits;
  uint32_t SubPriorityBits;

  PreemptPriorityBits = ((7UL - PriorityGroupTmp) > (uint32_t)(__NVIC_PRIO_BITS)) ? (uint32_t)(__NVIC_PRIO_BITS) : (uint32_t)(7UL - PriorityGroupTmp);
 8000af4:	69fb      	ldr	r3, [r7, #28]
 8000af6:	f1c3 0307 	rsb	r3, r3, #7
 8000afa:	2b04      	cmp	r3, #4
 8000afc:	bf28      	it	cs
 8000afe:	2304      	movcs	r3, #4
 8000b00:	61bb      	str	r3, [r7, #24]
  SubPriorityBits     = ((PriorityGroupTmp + (uint32_t)(__NVIC_PRIO_BITS)) < (uint32_t)7UL) ? (uint32_t)0UL : (uint32_t)((PriorityGroupTmp - 7UL) + (uint32_t)(__NVIC_PRIO_BITS));
 8000b02:	69fb      	ldr	r3, [r7, #28]
 8000b04:	3304      	adds	r3, #4
 8000b06:	2b06      	cmp	r3, #6
 8000b08:	d902      	bls.n	8000b10 <NVIC_EncodePriority+0x30>
 8000b0a:	69fb      	ldr	r3, [r7, #28]
 8000b0c:	3b03      	subs	r3, #3
 8000b0e:	e000      	b.n	8000b12 <NVIC_EncodePriority+0x32>
 8000b10:	2300      	movs	r3, #0
 8000b12:	617b      	str	r3, [r7, #20]

  return (
           ((PreemptPriority & (uint32_t)((1UL << (PreemptPriorityBits)) - 1UL)) << SubPriorityBits) |
 8000b14:	f04f 32ff 	mov.w	r2, #4294967295
 8000b18:	69bb      	ldr	r3, [r7, #24]
 8000b1a:	fa02 f303 	lsl.w	r3, r2, r3
 8000b1e:	43da      	mvns	r2, r3
 8000b20:	68bb      	ldr	r3, [r7, #8]
 8000b22:	401a      	ands	r2, r3
 8000b24:	697b      	ldr	r3, [r7, #20]
 8000b26:	409a      	lsls	r2, r3
           ((SubPriority     & (uint32_t)((1UL << (SubPriorityBits    )) - 1UL)))
 8000b28:	f04f 31ff 	mov.w	r1, #4294967295
 8000b2c:	697b      	ldr	r3, [r7, #20]
 8000b2e:	fa01 f303 	lsl.w	r3, r1, r3
 8000b32:	43d9      	mvns	r1, r3
 8000b34:	687b      	ldr	r3, [r7, #4]
 8000b36:	400b      	ands	r3, r1
           ((PreemptPriority & (uint32_t)((1UL << (PreemptPriorityBits)) - 1UL)) << SubPriorityBits) |
 8000b38:	4313      	orrs	r3, r2
         );
}
 8000b3a:	4618      	mov	r0, r3
 8000b3c:	3724      	adds	r7, #36	; 0x24
 8000b3e:	46bd      	mov	sp, r7
 8000b40:	bc80      	pop	{r7}
 8000b42:	4770      	bx	lr

08000b44 <SysTick_Config>:
  \note    When the variable <b>__Vendor_SysTickConfig</b> is set to 1, then the
           function <b>SysTick_Config</b> is not included. In this case, the file <b><i>device</i>.h</b>
           must contain a vendor-specific implementation of this function.
 */
__STATIC_INLINE uint32_t SysTick_Config(uint32_t ticks)
{
 8000b44:	b580      	push	{r7, lr}
 8000b46:	b082      	sub	sp, #8
 8000b48:	af00      	add	r7, sp, #0
 8000b4a:	6078      	str	r0, [r7, #4]
  if ((ticks - 1UL) > SysTick_LOAD_RELOAD_Msk)
 8000b4c:	687b      	ldr	r3, [r7, #4]
 8000b4e:	3b01      	subs	r3, #1
 8000b50:	f1b3 7f80 	cmp.w	r3, #16777216	; 0x1000000
 8000b54:	d301      	bcc.n	8000b5a <SysTick_Config+0x16>
  {
    return (1UL);                                                   /* Reload value impossible */
 8000b56:	2301      	movs	r3, #1
 8000b58:	e00f      	b.n	8000b7a <SysTick_Config+0x36>
  }

  SysTick->LOAD  = (uint32_t)(ticks - 1UL);                         /* set reload register */
 8000b5a:	4a0a      	ldr	r2, [pc, #40]	; (8000b84 <SysTick_Config+0x40>)
 8000b5c:	687b      	ldr	r3, [r7, #4]
 8000b5e:	3b01      	subs	r3, #1
 8000b60:	6053      	str	r3, [r2, #4]
  NVIC_SetPriority (SysTick_IRQn, (1UL << __NVIC_PRIO_BITS) - 1UL); /* set Priority for Systick Interrupt */
 8000b62:	210f      	movs	r1, #15
 8000b64:	f04f 30ff 	mov.w	r0, #4294967295
 8000b68:	f7ff ff90 	bl	8000a8c <__NVIC_SetPriority>
  SysTick->VAL   = 0UL;                                             /* Load the SysTick Counter Value */
 8000b6c:	4b05      	ldr	r3, [pc, #20]	; (8000b84 <SysTick_Config+0x40>)
 8000b6e:	2200      	movs	r2, #0
 8000b70:	609a      	str	r2, [r3, #8]
  SysTick->CTRL  = SysTick_CTRL_CLKSOURCE_Msk |
 8000b72:	4b04      	ldr	r3, [pc, #16]	; (8000b84 <SysTick_Config+0x40>)
 8000b74:	2207      	movs	r2, #7
 8000b76:	601a      	str	r2, [r3, #0]
                   SysTick_CTRL_TICKINT_Msk   |
                   SysTick_CTRL_ENABLE_Msk;                         /* Enable SysTick IRQ and SysTick Timer */
  return (0UL);                                                     /* Function successful */
 8000b78:	2300      	movs	r3, #0
}
 8000b7a:	4618      	mov	r0, r3
 8000b7c:	3708      	adds	r7, #8
 8000b7e:	46bd      	mov	sp, r7
 8000b80:	bd80      	pop	{r7, pc}
 8000b82:	bf00      	nop
 8000b84:	e000e010 	.word	0xe000e010

08000b88 <HAL_NVIC_SetPriorityGrouping>:
  * @note   When the NVIC_PriorityGroup_0 is selected, IRQ preemption is no more possible. 
  *         The pending IRQ priority will be managed only by the subpriority. 
  * @retval None
  */
void HAL_NVIC_SetPriorityGrouping(uint32_t PriorityGroup)
{
 8000b88:	b580      	push	{r7, lr}
 8000b8a:	b082      	sub	sp, #8
 8000b8c:	af00      	add	r7, sp, #0
 8000b8e:	6078      	str	r0, [r7, #4]
  /* Check the parameters */
  assert_param(IS_NVIC_PRIORITY_GROUP(PriorityGroup));
  
  /* Set the PRIGROUP[10:8] bits according to the PriorityGroup parameter value */
  NVIC_SetPriorityGrouping(PriorityGroup);
 8000b90:	6878      	ldr	r0, [r7, #4]
 8000b92:	f7ff ff49 	bl	8000a28 <__NVIC_SetPriorityGrouping>
}
 8000b96:	bf00      	nop
 8000b98:	3708      	adds	r7, #8
 8000b9a:	46bd      	mov	sp, r7
 8000b9c:	bd80      	pop	{r7, pc}

08000b9e <HAL_NVIC_SetPriority>:
  *         This parameter can be a value between 0 and 15
  *         A lower priority value indicates a higher priority.          
  * @retval None
  */
void HAL_NVIC_SetPriority(IRQn_Type IRQn, uint32_t PreemptPriority, uint32_t SubPriority)
{ 
 8000b9e:	b580      	push	{r7, lr}
 8000ba0:	b086      	sub	sp, #24
 8000ba2:	af00      	add	r7, sp, #0
 8000ba4:	4603      	mov	r3, r0
 8000ba6:	60b9      	str	r1, [r7, #8]
 8000ba8:	607a      	str	r2, [r7, #4]
 8000baa:	73fb      	strb	r3, [r7, #15]
  uint32_t prioritygroup = 0x00U;
 8000bac:	2300      	movs	r3, #0
 8000bae:	617b      	str	r3, [r7, #20]
  
  /* Check the parameters */
  assert_param(IS_NVIC_SUB_PRIORITY(SubPriority));
  assert_param(IS_NVIC_PREEMPTION_PRIORITY(PreemptPriority));
  
  prioritygroup = NVIC_GetPriorityGrouping();
 8000bb0:	f7ff ff5e 	bl	8000a70 <__NVIC_GetPriorityGrouping>
 8000bb4:	6178      	str	r0, [r7, #20]
  
  NVIC_SetPriority(IRQn, NVIC_EncodePriority(prioritygroup, PreemptPriority, SubPriority));
 8000bb6:	687a      	ldr	r2, [r7, #4]
 8000bb8:	68b9      	ldr	r1, [r7, #8]
 8000bba:	6978      	ldr	r0, [r7, #20]
 8000bbc:	f7ff ff90 	bl	8000ae0 <NVIC_EncodePriority>
 8000bc0:	4602      	mov	r2, r0
 8000bc2:	f997 300f 	ldrsb.w	r3, [r7, #15]
 8000bc6:	4611      	mov	r1, r2
 8000bc8:	4618      	mov	r0, r3
 8000bca:	f7ff ff5f 	bl	8000a8c <__NVIC_SetPriority>
}
 8000bce:	bf00      	nop
 8000bd0:	3718      	adds	r7, #24
 8000bd2:	46bd      	mov	sp, r7
 8000bd4:	bd80      	pop	{r7, pc}

08000bd6 <HAL_SYSTICK_Config>:
  * @param  TicksNumb: Specifies the ticks Number of ticks between two interrupts.
  * @retval status:  - 0  Function succeeded.
  *                  - 1  Function failed.
  */
uint32_t HAL_SYSTICK_Config(uint32_t TicksNumb)
{
 8000bd6:	b580      	push	{r7, lr}
 8000bd8:	b082      	sub	sp, #8
 8000bda:	af00      	add	r7, sp, #0
 8000bdc:	6078      	str	r0, [r7, #4]
   return SysTick_Config(TicksNumb);
 8000bde:	6878      	ldr	r0, [r7, #4]
 8000be0:	f7ff ffb0 	bl	8000b44 <SysTick_Config>
 8000be4:	4603      	mov	r3, r0
}
 8000be6:	4618      	mov	r0, r3
 8000be8:	3708      	adds	r7, #8
 8000bea:	46bd      	mov	sp, r7
 8000bec:	bd80      	pop	{r7, pc}
	...

08000bf0 <HAL_GPIO_Init>:
  * @param  GPIO_Init: pointer to a GPIO_InitTypeDef structure that contains
  *         the configuration information for the specified GPIO peripheral.
  * @retval None
  */
void HAL_GPIO_Init(GPIO_TypeDef  *GPIOx, GPIO_InitTypeDef *GPIO_Init)
{
 8000bf0:	b480      	push	{r7}
 8000bf2:	b08b      	sub	sp, #44	; 0x2c
 8000bf4:	af00      	add	r7, sp, #0
 8000bf6:	6078      	str	r0, [r7, #4]
 8000bf8:	6039      	str	r1, [r7, #0]
  uint32_t position = 0x00u;
 8000bfa:	2300      	movs	r3, #0
 8000bfc:	627b      	str	r3, [r7, #36]	; 0x24
  uint32_t ioposition;
  uint32_t iocurrent;
  uint32_t temp;
  uint32_t config = 0x00u;
 8000bfe:	2300      	movs	r3, #0
 8000c00:	623b      	str	r3, [r7, #32]
  assert_param(IS_GPIO_ALL_INSTANCE(GPIOx));
  assert_param(IS_GPIO_PIN(GPIO_Init->Pin));
  assert_param(IS_GPIO_MODE(GPIO_Init->Mode));

  /* Configure the port pins */
  while (((GPIO_Init->Pin) >> position) != 0x00u)
 8000c02:	e121      	b.n	8000e48 <HAL_GPIO_Init+0x258>
  {
    /* Get the IO position */
    ioposition = (0x01uL << position);
 8000c04:	2201      	movs	r2, #1
 8000c06:	6a7b      	ldr	r3, [r7, #36]	; 0x24
 8000c08:	fa02 f303 	lsl.w	r3, r2, r3
 8000c0c:	61fb      	str	r3, [r7, #28]

    /* Get the current IO position */
    iocurrent = (uint32_t)(GPIO_Init->Pin) & ioposition;
 8000c0e:	683b      	ldr	r3, [r7, #0]
 8000c10:	681b      	ldr	r3, [r3, #0]
 8000c12:	69fa      	ldr	r2, [r7, #28]
 8000c14:	4013      	ands	r3, r2
 8000c16:	61bb      	str	r3, [r7, #24]

    if (iocurrent == ioposition)
 8000c18:	69ba      	ldr	r2, [r7, #24]
 8000c1a:	69fb      	ldr	r3, [r7, #28]
 8000c1c:	429a      	cmp	r2, r3
 8000c1e:	f040 8110 	bne.w	8000e42 <HAL_GPIO_Init+0x252>
    {
      /* Check the Alternate function parameters */
      assert_param(IS_GPIO_AF_INSTANCE(GPIOx));

      /* Based on the required mode, filling config variable with MODEy[1:0] and CNFy[3:2] corresponding bits */
      switch (GPIO_Init->Mode)
 8000c22:	683b      	ldr	r3, [r7, #0]
 8000c24:	685b      	ldr	r3, [r3, #4]
 8000c26:	2b12      	cmp	r3, #18
 8000c28:	d034      	beq.n	8000c94 <HAL_GPIO_Init+0xa4>
 8000c2a:	2b12      	cmp	r3, #18
 8000c2c:	d80d      	bhi.n	8000c4a <HAL_GPIO_Init+0x5a>
 8000c2e:	2b02      	cmp	r3, #2
 8000c30:	d02b      	beq.n	8000c8a <HAL_GPIO_Init+0x9a>
 8000c32:	2b02      	cmp	r3, #2
 8000c34:	d804      	bhi.n	8000c40 <HAL_GPIO_Init+0x50>
 8000c36:	2b00      	cmp	r3, #0
 8000c38:	d031      	beq.n	8000c9e <HAL_GPIO_Init+0xae>
 8000c3a:	2b01      	cmp	r3, #1
 8000c3c:	d01c      	beq.n	8000c78 <HAL_GPIO_Init+0x88>
          config = GPIO_CR_MODE_INPUT + GPIO_CR_CNF_ANALOG;
          break;

        /* Parameters are checked with assert_param */
        default:
          break;
 8000c3e:	e048      	b.n	8000cd2 <HAL_GPIO_Init+0xe2>
      switch (GPIO_Init->Mode)
 8000c40:	2b03      	cmp	r3, #3
 8000c42:	d043      	beq.n	8000ccc <HAL_GPIO_Init+0xdc>
 8000c44:	2b11      	cmp	r3, #17
 8000c46:	d01b      	beq.n	8000c80 <HAL_GPIO_Init+0x90>
          break;
 8000c48:	e043      	b.n	8000cd2 <HAL_GPIO_Init+0xe2>
      switch (GPIO_Init->Mode)
 8000c4a:	4a86      	ldr	r2, [pc, #536]	; (8000e64 <HAL_GPIO_Init+0x274>)
 8000c4c:	4293      	cmp	r3, r2
 8000c4e:	d026      	beq.n	8000c9e <HAL_GPIO_Init+0xae>
 8000c50:	4a84      	ldr	r2, [pc, #528]	; (8000e64 <HAL_GPIO_Init+0x274>)
 8000c52:	4293      	cmp	r3, r2
 8000c54:	d806      	bhi.n	8000c64 <HAL_GPIO_Init+0x74>
 8000c56:	4a84      	ldr	r2, [pc, #528]	; (8000e68 <HAL_GPIO_Init+0x278>)
 8000c58:	4293      	cmp	r3, r2
 8000c5a:	d020      	beq.n	8000c9e <HAL_GPIO_Init+0xae>
 8000c5c:	4a83      	ldr	r2, [pc, #524]	; (8000e6c <HAL_GPIO_Init+0x27c>)
 8000c5e:	4293      	cmp	r3, r2
 8000c60:	d01d      	beq.n	8000c9e <HAL_GPIO_Init+0xae>
          break;
 8000c62:	e036      	b.n	8000cd2 <HAL_GPIO_Init+0xe2>
      switch (GPIO_Init->Mode)
 8000c64:	4a82      	ldr	r2, [pc, #520]	; (8000e70 <HAL_GPIO_Init+0x280>)
 8000c66:	4293      	cmp	r3, r2
 8000c68:	d019      	beq.n	8000c9e <HAL_GPIO_Init+0xae>
 8000c6a:	4a82      	ldr	r2, [pc, #520]	; (8000e74 <HAL_GPIO_Init+0x284>)
 8000c6c:	4293      	cmp	r3, r2
 8000c6e:	d016      	beq.n	8000c9e <HAL_GPIO_Init+0xae>
 8000c70:	4a81      	ldr	r2, [pc, #516]	; (8000e78 <HAL_GPIO_Init+0x288>)
 8000c72:	4293      	cmp	r3, r2
 8000c74:	d013      	beq.n	8000c9e <HAL_GPIO_Init+0xae>
          break;
 8000c76:	e02c      	b.n	8000cd2 <HAL_GPIO_Init+0xe2>
          config = GPIO_Init->Speed + GPIO_CR_CNF_GP_OUTPUT_PP;
 8000c78:	683b      	ldr	r3, [r7, #0]
 8000c7a:	68db      	ldr	r3, [r3, #12]
 8000c7c:	623b      	str	r3, [r7, #32]
          break;
 8000c7e:	e028      	b.n	8000cd2 <HAL_GPIO_Init+0xe2>
          config = GPIO_Init->Speed + GPIO_CR_CNF_GP_OUTPUT_OD;
 8000c80:	683b      	ldr	r3, [r7, #0]
 8000c82:	68db      	ldr	r3, [r3, #12]
 8000c84:	3304      	adds	r3, #4
 8000c86:	623b      	str	r3, [r7, #32]
          break;
 8000c88:	e023      	b.n	8000cd2 <HAL_GPIO_Init+0xe2>
          config = GPIO_Init->Speed + GPIO_CR_CNF_AF_OUTPUT_PP;
 8000c8a:	683b      	ldr	r3, [r7, #0]
 8000c8c:	68db      	ldr	r3, [r3, #12]
 8000c8e:	3308      	adds	r3, #8
 8000c90:	623b      	str	r3, [r7, #32]
          break;
 8000c92:	e01e      	b.n	8000cd2 <HAL_GPIO_Init+0xe2>
          config = GPIO_Init->Speed + GPIO_CR_CNF_AF_OUTPUT_OD;
 8000c94:	683b      	ldr	r3, [r7, #0]
 8000c96:	68db      	ldr	r3, [r3, #12]
 8000c98:	330c      	adds	r3, #12
 8000c9a:	623b      	str	r3, [r7, #32]
          break;
 8000c9c:	e019      	b.n	8000cd2 <HAL_GPIO_Init+0xe2>
          if (GPIO_Init->Pull == GPIO_NOPULL)
 8000c9e:	683b      	ldr	r3, [r7, #0]
 8000ca0:	689b      	ldr	r3, [r3, #8]
 8000ca2:	2b00      	cmp	r3, #0
 8000ca4:	d102      	bne.n	8000cac <HAL_GPIO_Init+0xbc>
            config = GPIO_CR_MODE_INPUT + GPIO_CR_CNF_INPUT_FLOATING;
 8000ca6:	2304      	movs	r3, #4
 8000ca8:	623b      	str	r3, [r7, #32]
          break;
 8000caa:	e012      	b.n	8000cd2 <HAL_GPIO_Init+0xe2>
          else if (GPIO_Init->Pull == GPIO_PULLUP)
 8000cac:	683b      	ldr	r3, [r7, #0]
 8000cae:	689b      	ldr	r3, [r3, #8]
 8000cb0:	2b01      	cmp	r3, #1
 8000cb2:	d105      	bne.n	8000cc0 <HAL_GPIO_Init+0xd0>
            config = GPIO_CR_MODE_INPUT + GPIO_CR_CNF_INPUT_PU_PD;
 8000cb4:	2308      	movs	r3, #8
 8000cb6:	623b      	str	r3, [r7, #32]
            GPIOx->BSRR = ioposition;
 8000cb8:	687b      	ldr	r3, [r7, #4]
 8000cba:	69fa      	ldr	r2, [r7, #28]
 8000cbc:	611a      	str	r2, [r3, #16]
          break;
 8000cbe:	e008      	b.n	8000cd2 <HAL_GPIO_Init+0xe2>
            config = GPIO_CR_MODE_INPUT + GPIO_CR_CNF_INPUT_PU_PD;
 8000cc0:	2308      	movs	r3, #8
 8000cc2:	623b      	str	r3, [r7, #32]
            GPIOx->BRR = ioposition;
 8000cc4:	687b      	ldr	r3, [r7, #4]
 8000cc6:	69fa      	ldr	r2, [r7, #28]
 8000cc8:	615a      	str	r2, [r3, #20]
          break;
 8000cca:	e002      	b.n	8000cd2 <HAL_GPIO_Init+0xe2>
          config = GPIO_CR_MODE_INPUT + GPIO_CR_CNF_ANALOG;
 8000ccc:	2300      	movs	r3, #0
 8000cce:	623b      	str	r3, [r7, #32]
          break;
 8000cd0:	bf00      	nop
      }

      /* Check if the current bit belongs to first half or last half of the pin count number
       in order to address CRH or CRL register*/
      configregister = (iocurrent < GPIO_PIN_8) ? &GPIOx->CRL     : &GPIOx->CRH;
 8000cd2:	69bb      	ldr	r3, [r7, #24]
 8000cd4:	2bff      	cmp	r3, #255	; 0xff
 8000cd6:	d801      	bhi.n	8000cdc <HAL_GPIO_Init+0xec>
 8000cd8:	687b      	ldr	r3, [r7, #4]
 8000cda:	e001      	b.n	8000ce0 <HAL_GPIO_Init+0xf0>
 8000cdc:	687b      	ldr	r3, [r7, #4]
 8000cde:	3304      	adds	r3, #4
 8000ce0:	617b      	str	r3, [r7, #20]
      registeroffset = (iocurrent < GPIO_PIN_8) ? (position << 2u) : ((position - 8u) << 2u);
 8000ce2:	69bb      	ldr	r3, [r7, #24]
 8000ce4:	2bff      	cmp	r3, #255	; 0xff
 8000ce6:	d802      	bhi.n	8000cee <HAL_GPIO_Init+0xfe>
 8000ce8:	6a7b      	ldr	r3, [r7, #36]	; 0x24
 8000cea:	009b      	lsls	r3, r3, #2
 8000cec:	e002      	b.n	8000cf4 <HAL_GPIO_Init+0x104>
 8000cee:	6a7b      	ldr	r3, [r7, #36]	; 0x24
 8000cf0:	3b08      	subs	r3, #8
 8000cf2:	009b      	lsls	r3, r3, #2
 8000cf4:	613b      	str	r3, [r7, #16]

      /* Apply the new configuration of the pin to the register */
      MODIFY_REG((*configregister), ((GPIO_CRL_MODE0 | GPIO_CRL_CNF0) << registeroffset), (config << registeroffset));
 8000cf6:	697b      	ldr	r3, [r7, #20]
 8000cf8:	681a      	ldr	r2, [r3, #0]
 8000cfa:	210f      	movs	r1, #15
 8000cfc:	693b      	ldr	r3, [r7, #16]
 8000cfe:	fa01 f303 	lsl.w	r3, r1, r3
 8000d02:	43db      	mvns	r3, r3
 8000d04:	401a      	ands	r2, r3
 8000d06:	6a39      	ldr	r1, [r7, #32]
 8000d08:	693b      	ldr	r3, [r7, #16]
 8000d0a:	fa01 f303 	lsl.w	r3, r1, r3
 8000d0e:	431a      	orrs	r2, r3
 8000d10:	697b      	ldr	r3, [r7, #20]
 8000d12:	601a      	str	r2, [r3, #0]

      /*--------------------- EXTI Mode Configuration ------------------------*/
      /* Configure the External Interrupt or event for the current IO */
      if ((GPIO_Init->Mode & EXTI_MODE) == EXTI_MODE)
 8000d14:	683b      	ldr	r3, [r7, #0]
 8000d16:	685b      	ldr	r3, [r3, #4]
 8000d18:	f003 5380 	and.w	r3, r3, #268435456	; 0x10000000
 8000d1c:	2b00      	cmp	r3, #0
 8000d1e:	f000 8090 	beq.w	8000e42 <HAL_GPIO_Init+0x252>
      {
        /* Enable AFIO Clock */
        __HAL_RCC_AFIO_CLK_ENABLE();
 8000d22:	4b56      	ldr	r3, [pc, #344]	; (8000e7c <HAL_GPIO_Init+0x28c>)
 8000d24:	699b      	ldr	r3, [r3, #24]
 8000d26:	4a55      	ldr	r2, [pc, #340]	; (8000e7c <HAL_GPIO_Init+0x28c>)
 8000d28:	f043 0301 	orr.w	r3, r3, #1
 8000d2c:	6193      	str	r3, [r2, #24]
 8000d2e:	4b53      	ldr	r3, [pc, #332]	; (8000e7c <HAL_GPIO_Init+0x28c>)
 8000d30:	699b      	ldr	r3, [r3, #24]
 8000d32:	f003 0301 	and.w	r3, r3, #1
 8000d36:	60bb      	str	r3, [r7, #8]
 8000d38:	68bb      	ldr	r3, [r7, #8]
        temp = AFIO->EXTICR[position >> 2u];
 8000d3a:	4a51      	ldr	r2, [pc, #324]	; (8000e80 <HAL_GPIO_Init+0x290>)
 8000d3c:	6a7b      	ldr	r3, [r7, #36]	; 0x24
 8000d3e:	089b      	lsrs	r3, r3, #2
 8000d40:	3302      	adds	r3, #2
 8000d42:	f852 3023 	ldr.w	r3, [r2, r3, lsl #2]
 8000d46:	60fb      	str	r3, [r7, #12]
        CLEAR_BIT(temp, (0x0Fu) << (4u * (position & 0x03u)));
 8000d48:	6a7b      	ldr	r3, [r7, #36]	; 0x24
 8000d4a:	f003 0303 	and.w	r3, r3, #3
 8000d4e:	009b      	lsls	r3, r3, #2
 8000d50:	220f      	movs	r2, #15
 8000d52:	fa02 f303 	lsl.w	r3, r2, r3
 8000d56:	43db      	mvns	r3, r3
 8000d58:	68fa      	ldr	r2, [r7, #12]
 8000d5a:	4013      	ands	r3, r2
 8000d5c:	60fb      	str	r3, [r7, #12]
        SET_BIT(temp, (GPIO_GET_INDEX(GPIOx)) << (4u * (position & 0x03u)));
 8000d5e:	687b      	ldr	r3, [r7, #4]
 8000d60:	4a48      	ldr	r2, [pc, #288]	; (8000e84 <HAL_GPIO_Init+0x294>)
 8000d62:	4293      	cmp	r3, r2
 8000d64:	d00d      	beq.n	8000d82 <HAL_GPIO_Init+0x192>
 8000d66:	687b      	ldr	r3, [r7, #4]
 8000d68:	4a47      	ldr	r2, [pc, #284]	; (8000e88 <HAL_GPIO_Init+0x298>)
 8000d6a:	4293      	cmp	r3, r2
 8000d6c:	d007      	beq.n	8000d7e <HAL_GPIO_Init+0x18e>
 8000d6e:	687b      	ldr	r3, [r7, #4]
 8000d70:	4a46      	ldr	r2, [pc, #280]	; (8000e8c <HAL_GPIO_Init+0x29c>)
 8000d72:	4293      	cmp	r3, r2
 8000d74:	d101      	bne.n	8000d7a <HAL_GPIO_Init+0x18a>
 8000d76:	2302      	movs	r3, #2
 8000d78:	e004      	b.n	8000d84 <HAL_GPIO_Init+0x194>
 8000d7a:	2303      	movs	r3, #3
 8000d7c:	e002      	b.n	8000d84 <HAL_GPIO_Init+0x194>
 8000d7e:	2301      	movs	r3, #1
 8000d80:	e000      	b.n	8000d84 <HAL_GPIO_Init+0x194>
 8000d82:	2300      	movs	r3, #0
 8000d84:	6a7a      	ldr	r2, [r7, #36]	; 0x24
 8000d86:	f002 0203 	and.w	r2, r2, #3
 8000d8a:	0092      	lsls	r2, r2, #2
 8000d8c:	4093      	lsls	r3, r2
 8000d8e:	68fa      	ldr	r2, [r7, #12]
 8000d90:	4313      	orrs	r3, r2
 8000d92:	60fb      	str	r3, [r7, #12]
        AFIO->EXTICR[position >> 2u] = temp;
 8000d94:	493a      	ldr	r1, [pc, #232]	; (8000e80 <HAL_GPIO_Init+0x290>)
 8000d96:	6a7b      	ldr	r3, [r7, #36]	; 0x24
 8000d98:	089b      	lsrs	r3, r3, #2
 8000d9a:	3302      	adds	r3, #2
 8000d9c:	68fa      	ldr	r2, [r7, #12]
 8000d9e:	f841 2023 	str.w	r2, [r1, r3, lsl #2]


        /* Configure the interrupt mask */
        if ((GPIO_Init->Mode & GPIO_MODE_IT) == GPIO_MODE_IT)
 8000da2:	683b      	ldr	r3, [r7, #0]
 8000da4:	685b      	ldr	r3, [r3, #4]
 8000da6:	f403 3380 	and.w	r3, r3, #65536	; 0x10000
 8000daa:	2b00      	cmp	r3, #0
 8000dac:	d006      	beq.n	8000dbc <HAL_GPIO_Init+0x1cc>
        {
          SET_BIT(EXTI->IMR, iocurrent);
 8000dae:	4b38      	ldr	r3, [pc, #224]	; (8000e90 <HAL_GPIO_Init+0x2a0>)
 8000db0:	681a      	ldr	r2, [r3, #0]
 8000db2:	4937      	ldr	r1, [pc, #220]	; (8000e90 <HAL_GPIO_Init+0x2a0>)
 8000db4:	69bb      	ldr	r3, [r7, #24]
 8000db6:	4313      	orrs	r3, r2
 8000db8:	600b      	str	r3, [r1, #0]
 8000dba:	e006      	b.n	8000dca <HAL_GPIO_Init+0x1da>
        }
        else
        {
          CLEAR_BIT(EXTI->IMR, iocurrent);
 8000dbc:	4b34      	ldr	r3, [pc, #208]	; (8000e90 <HAL_GPIO_Init+0x2a0>)
 8000dbe:	681a      	ldr	r2, [r3, #0]
 8000dc0:	69bb      	ldr	r3, [r7, #24]
 8000dc2:	43db      	mvns	r3, r3
 8000dc4:	4932      	ldr	r1, [pc, #200]	; (8000e90 <HAL_GPIO_Init+0x2a0>)
 8000dc6:	4013      	ands	r3, r2
 8000dc8:	600b      	str	r3, [r1, #0]
        }

        /* Configure the event mask */
        if ((GPIO_Init->Mode & GPIO_MODE_EVT) == GPIO_MODE_EVT)
 8000dca:	683b      	ldr	r3, [r7, #0]
 8000dcc:	685b      	ldr	r3, [r3, #4]
 8000dce:	f403 3300 	and.w	r3, r3, #131072	; 0x20000
 8000dd2:	2b00      	cmp	r3, #0
 8000dd4:	d006      	beq.n	8000de4 <HAL_GPIO_Init+0x1f4>
        {
          SET_BIT(EXTI->EMR, iocurrent);
 8000dd6:	4b2e      	ldr	r3, [pc, #184]	; (8000e90 <HAL_GPIO_Init+0x2a0>)
 8000dd8:	685a      	ldr	r2, [r3, #4]
 8000dda:	492d      	ldr	r1, [pc, #180]	; (8000e90 <HAL_GPIO_Init+0x2a0>)
 8000ddc:	69bb      	ldr	r3, [r7, #24]
 8000dde:	4313      	orrs	r3, r2
 8000de0:	604b      	str	r3, [r1, #4]
 8000de2:	e006      	b.n	8000df2 <HAL_GPIO_Init+0x202>
        }
        else
        {
          CLEAR_BIT(EXTI->EMR, iocurrent);
 8000de4:	4b2a      	ldr	r3, [pc, #168]	; (8000e90 <HAL_GPIO_Init+0x2a0>)
 8000de6:	685a      	ldr	r2, [r3, #4]
 8000de8:	69bb      	ldr	r3, [r7, #24]
 8000dea:	43db      	mvns	r3, r3
 8000dec:	4928      	ldr	r1, [pc, #160]	; (8000e90 <HAL_GPIO_Init+0x2a0>)
 8000dee:	4013      	ands	r3, r2
 8000df0:	604b      	str	r3, [r1, #4]
        }

        /* Enable or disable the rising trigger */
        if ((GPIO_Init->Mode & RISING_EDGE) == RISING_EDGE)
 8000df2:	683b      	ldr	r3, [r7, #0]
 8000df4:	685b      	ldr	r3, [r3, #4]
 8000df6:	f403 1380 	and.w	r3, r3, #1048576	; 0x100000
 8000dfa:	2b00      	cmp	r3, #0
 8000dfc:	d006      	beq.n	8000e0c <HAL_GPIO_Init+0x21c>
        {
          SET_BIT(EXTI->RTSR, iocurrent);
 8000dfe:	4b24      	ldr	r3, [pc, #144]	; (8000e90 <HAL_GPIO_Init+0x2a0>)
 8000e00:	689a      	ldr	r2, [r3, #8]
 8000e02:	4923      	ldr	r1, [pc, #140]	; (8000e90 <HAL_GPIO_Init+0x2a0>)
 8000e04:	69bb      	ldr	r3, [r7, #24]
 8000e06:	4313      	orrs	r3, r2
 8000e08:	608b      	str	r3, [r1, #8]
 8000e0a:	e006      	b.n	8000e1a <HAL_GPIO_Init+0x22a>
        }
        else
        {
          CLEAR_BIT(EXTI->RTSR, iocurrent);
 8000e0c:	4b20      	ldr	r3, [pc, #128]	; (8000e90 <HAL_GPIO_Init+0x2a0>)
 8000e0e:	689a      	ldr	r2, [r3, #8]
 8000e10:	69bb      	ldr	r3, [r7, #24]
 8000e12:	43db      	mvns	r3, r3
 8000e14:	491e      	ldr	r1, [pc, #120]	; (8000e90 <HAL_GPIO_Init+0x2a0>)
 8000e16:	4013      	ands	r3, r2
 8000e18:	608b      	str	r3, [r1, #8]
        }

        /* Enable or disable the falling trigger */
        if ((GPIO_Init->Mode & FALLING_EDGE) == FALLING_EDGE)
 8000e1a:	683b      	ldr	r3, [r7, #0]
 8000e1c:	685b      	ldr	r3, [r3, #4]
 8000e1e:	f403 1300 	and.w	r3, r3, #2097152	; 0x200000
 8000e22:	2b00      	cmp	r3, #0
 8000e24:	d006      	beq.n	8000e34 <HAL_GPIO_Init+0x244>
        {
          SET_BIT(EXTI->FTSR, iocurrent);
 8000e26:	4b1a      	ldr	r3, [pc, #104]	; (8000e90 <HAL_GPIO_Init+0x2a0>)
 8000e28:	68da      	ldr	r2, [r3, #12]
 8000e2a:	4919      	ldr	r1, [pc, #100]	; (8000e90 <HAL_GPIO_Init+0x2a0>)
 8000e2c:	69bb      	ldr	r3, [r7, #24]
 8000e2e:	4313      	orrs	r3, r2
 8000e30:	60cb      	str	r3, [r1, #12]
 8000e32:	e006      	b.n	8000e42 <HAL_GPIO_Init+0x252>
        }
        else
        {
          CLEAR_BIT(EXTI->FTSR, iocurrent);
 8000e34:	4b16      	ldr	r3, [pc, #88]	; (8000e90 <HAL_GPIO_Init+0x2a0>)
 8000e36:	68da      	ldr	r2, [r3, #12]
 8000e38:	69bb      	ldr	r3, [r7, #24]
 8000e3a:	43db      	mvns	r3, r3
 8000e3c:	4914      	ldr	r1, [pc, #80]	; (8000e90 <HAL_GPIO_Init+0x2a0>)
 8000e3e:	4013      	ands	r3, r2
 8000e40:	60cb      	str	r3, [r1, #12]
        }
      }
    }

	position++;
 8000e42:	6a7b      	ldr	r3, [r7, #36]	; 0x24
 8000e44:	3301      	adds	r3, #1
 8000e46:	627b      	str	r3, [r7, #36]	; 0x24
  while (((GPIO_Init->Pin) >> position) != 0x00u)
 8000e48:	683b      	ldr	r3, [r7, #0]
 8000e4a:	681a      	ldr	r2, [r3, #0]
 8000e4c:	6a7b      	ldr	r3, [r7, #36]	; 0x24
 8000e4e:	fa22 f303 	lsr.w	r3, r2, r3
 8000e52:	2b00      	cmp	r3, #0
 8000e54:	f47f aed6 	bne.w	8000c04 <HAL_GPIO_Init+0x14>
  }
}
 8000e58:	bf00      	nop
 8000e5a:	372c      	adds	r7, #44	; 0x2c
 8000e5c:	46bd      	mov	sp, r7
 8000e5e:	bc80      	pop	{r7}
 8000e60:	4770      	bx	lr
 8000e62:	bf00      	nop
 8000e64:	10210000 	.word	0x10210000
 8000e68:	10110000 	.word	0x10110000
 8000e6c:	10120000 	.word	0x10120000
 8000e70:	10310000 	.word	0x10310000
 8000e74:	10320000 	.word	0x10320000
 8000e78:	10220000 	.word	0x10220000
 8000e7c:	40021000 	.word	0x40021000
 8000e80:	40010000 	.word	0x40010000
 8000e84:	40010800 	.word	0x40010800
 8000e88:	40010c00 	.word	0x40010c00
 8000e8c:	40011000 	.word	0x40011000
 8000e90:	40010400 	.word	0x40010400

08000e94 <HAL_GPIO_WritePin>:
  *            @arg GPIO_PIN_RESET: to clear the port pin
  *            @arg GPIO_PIN_SET: to set the port pin
  * @retval None
  */
void HAL_GPIO_WritePin(GPIO_TypeDef *GPIOx, uint16_t GPIO_Pin, GPIO_PinState PinState)
{
 8000e94:	b480      	push	{r7}
 8000e96:	b083      	sub	sp, #12
 8000e98:	af00      	add	r7, sp, #0
 8000e9a:	6078      	str	r0, [r7, #4]
 8000e9c:	460b      	mov	r3, r1
 8000e9e:	807b      	strh	r3, [r7, #2]
 8000ea0:	4613      	mov	r3, r2
 8000ea2:	707b      	strb	r3, [r7, #1]
  /* Check the parameters */
  assert_param(IS_GPIO_PIN(GPIO_Pin));
  assert_param(IS_GPIO_PIN_ACTION(PinState));

  if (PinState != GPIO_PIN_RESET)
 8000ea4:	787b      	ldrb	r3, [r7, #1]
 8000ea6:	2b00      	cmp	r3, #0
 8000ea8:	d003      	beq.n	8000eb2 <HAL_GPIO_WritePin+0x1e>
  {
    GPIOx->BSRR = GPIO_Pin;
 8000eaa:	887a      	ldrh	r2, [r7, #2]
 8000eac:	687b      	ldr	r3, [r7, #4]
 8000eae:	611a      	str	r2, [r3, #16]
  }
  else
  {
    GPIOx->BSRR = (uint32_t)GPIO_Pin << 16u;
  }
}
 8000eb0:	e003      	b.n	8000eba <HAL_GPIO_WritePin+0x26>
    GPIOx->BSRR = (uint32_t)GPIO_Pin << 16u;
 8000eb2:	887b      	ldrh	r3, [r7, #2]
 8000eb4:	041a      	lsls	r2, r3, #16
 8000eb6:	687b      	ldr	r3, [r7, #4]
 8000eb8:	611a      	str	r2, [r3, #16]
}
 8000eba:	bf00      	nop
 8000ebc:	370c      	adds	r7, #12
 8000ebe:	46bd      	mov	sp, r7
 8000ec0:	bc80      	pop	{r7}
 8000ec2:	4770      	bx	lr

08000ec4 <HAL_RCC_OscConfig>:
  *         supported by this macro. User should request a transition to HSE Off
  *         first and then HSE On or HSE Bypass.
  * @retval HAL status
  */
HAL_StatusTypeDef HAL_RCC_OscConfig(RCC_OscInitTypeDef  *RCC_OscInitStruct)
{
 8000ec4:	b580      	push	{r7, lr}
 8000ec6:	b086      	sub	sp, #24
 8000ec8:	af00      	add	r7, sp, #0
 8000eca:	6078      	str	r0, [r7, #4]
  uint32_t tickstart;
  uint32_t pll_config;

  /* Check Null pointer */
  if (RCC_OscInitStruct == NULL)
 8000ecc:	687b      	ldr	r3, [r7, #4]
 8000ece:	2b00      	cmp	r3, #0
 8000ed0:	d101      	bne.n	8000ed6 <HAL_RCC_OscConfig+0x12>
  {
    return HAL_ERROR;
 8000ed2:	2301      	movs	r3, #1
 8000ed4:	e26c      	b.n	80013b0 <HAL_RCC_OscConfig+0x4ec>

  /* Check the parameters */
  assert_param(IS_RCC_OSCILLATORTYPE(RCC_OscInitStruct->OscillatorType));

  /*------------------------------- HSE Configuration ------------------------*/
  if (((RCC_OscInitStruct->OscillatorType) & RCC_OSCILLATORTYPE_HSE) == RCC_OSCILLATORTYPE_HSE)
 8000ed6:	687b      	ldr	r3, [r7, #4]
 8000ed8:	681b      	ldr	r3, [r3, #0]
 8000eda:	f003 0301 	and.w	r3, r3, #1
 8000ede:	2b00      	cmp	r3, #0
 8000ee0:	f000 8087 	beq.w	8000ff2 <HAL_RCC_OscConfig+0x12e>
  {
    /* Check the parameters */
    assert_param(IS_RCC_HSE(RCC_OscInitStruct->HSEState));

    /* When the HSE is used as system clock or clock source for PLL in these cases it is not allowed to be disabled */
    if ((__HAL_RCC_GET_SYSCLK_SOURCE() == RCC_SYSCLKSOURCE_STATUS_HSE)
 8000ee4:	4b92      	ldr	r3, [pc, #584]	; (8001130 <HAL_RCC_OscConfig+0x26c>)
 8000ee6:	685b      	ldr	r3, [r3, #4]
 8000ee8:	f003 030c 	and.w	r3, r3, #12
 8000eec:	2b04      	cmp	r3, #4
 8000eee:	d00c      	beq.n	8000f0a <HAL_RCC_OscConfig+0x46>
        || ((__HAL_RCC_GET_SYSCLK_SOURCE() == RCC_SYSCLKSOURCE_STATUS_PLLCLK) && (__HAL_RCC_GET_PLL_OSCSOURCE() == RCC_PLLSOURCE_HSE)))
 8000ef0:	4b8f      	ldr	r3, [pc, #572]	; (8001130 <HAL_RCC_OscConfig+0x26c>)
 8000ef2:	685b      	ldr	r3, [r3, #4]
 8000ef4:	f003 030c 	and.w	r3, r3, #12
 8000ef8:	2b08      	cmp	r3, #8
 8000efa:	d112      	bne.n	8000f22 <HAL_RCC_OscConfig+0x5e>
 8000efc:	4b8c      	ldr	r3, [pc, #560]	; (8001130 <HAL_RCC_OscConfig+0x26c>)
 8000efe:	685b      	ldr	r3, [r3, #4]
 8000f00:	f403 3380 	and.w	r3, r3, #65536	; 0x10000
 8000f04:	f5b3 3f80 	cmp.w	r3, #65536	; 0x10000
 8000f08:	d10b      	bne.n	8000f22 <HAL_RCC_OscConfig+0x5e>
    {
      if ((__HAL_RCC_GET_FLAG(RCC_FLAG_HSERDY) != RESET) && (RCC_OscInitStruct->HSEState == RCC_HSE_OFF))
 8000f0a:	4b89      	ldr	r3, [pc, #548]	; (8001130 <HAL_RCC_OscConfig+0x26c>)
 8000f0c:	681b      	ldr	r3, [r3, #0]
 8000f0e:	f403 3300 	and.w	r3, r3, #131072	; 0x20000
 8000f12:	2b00      	cmp	r3, #0
 8000f14:	d06c      	beq.n	8000ff0 <HAL_RCC_OscConfig+0x12c>
 8000f16:	687b      	ldr	r3, [r7, #4]
 8000f18:	685b      	ldr	r3, [r3, #4]
 8000f1a:	2b00      	cmp	r3, #0
 8000f1c:	d168      	bne.n	8000ff0 <HAL_RCC_OscConfig+0x12c>
      {
        return HAL_ERROR;
 8000f1e:	2301      	movs	r3, #1
 8000f20:	e246      	b.n	80013b0 <HAL_RCC_OscConfig+0x4ec>
      }
    }
    else
    {
      /* Set the new HSE configuration ---------------------------------------*/
      __HAL_RCC_HSE_CONFIG(RCC_OscInitStruct->HSEState);
 8000f22:	687b      	ldr	r3, [r7, #4]
 8000f24:	685b      	ldr	r3, [r3, #4]
 8000f26:	f5b3 3f80 	cmp.w	r3, #65536	; 0x10000
 8000f2a:	d106      	bne.n	8000f3a <HAL_RCC_OscConfig+0x76>
 8000f2c:	4b80      	ldr	r3, [pc, #512]	; (8001130 <HAL_RCC_OscConfig+0x26c>)
 8000f2e:	681b      	ldr	r3, [r3, #0]
 8000f30:	4a7f      	ldr	r2, [pc, #508]	; (8001130 <HAL_RCC_OscConfig+0x26c>)
 8000f32:	f443 3380 	orr.w	r3, r3, #65536	; 0x10000
 8000f36:	6013      	str	r3, [r2, #0]
 8000f38:	e02e      	b.n	8000f98 <HAL_RCC_OscConfig+0xd4>
 8000f3a:	687b      	ldr	r3, [r7, #4]
 8000f3c:	685b      	ldr	r3, [r3, #4]
 8000f3e:	2b00      	cmp	r3, #0
 8000f40:	d10c      	bne.n	8000f5c <HAL_RCC_OscConfig+0x98>
 8000f42:	4b7b      	ldr	r3, [pc, #492]	; (8001130 <HAL_RCC_OscConfig+0x26c>)
 8000f44:	681b      	ldr	r3, [r3, #0]
 8000f46:	4a7a      	ldr	r2, [pc, #488]	; (8001130 <HAL_RCC_OscConfig+0x26c>)
 8000f48:	f423 3380 	bic.w	r3, r3, #65536	; 0x10000
 8000f4c:	6013      	str	r3, [r2, #0]
 8000f4e:	4b78      	ldr	r3, [pc, #480]	; (8001130 <HAL_RCC_OscConfig+0x26c>)
 8000f50:	681b      	ldr	r3, [r3, #0]
 8000f52:	4a77      	ldr	r2, [pc, #476]	; (8001130 <HAL_RCC_OscConfig+0x26c>)
 8000f54:	f423 2380 	bic.w	r3, r3, #262144	; 0x40000
 8000f58:	6013      	str	r3, [r2, #0]
 8000f5a:	e01d      	b.n	8000f98 <HAL_RCC_OscConfig+0xd4>
 8000f5c:	687b      	ldr	r3, [r7, #4]
 8000f5e:	685b      	ldr	r3, [r3, #4]
 8000f60:	f5b3 2fa0 	cmp.w	r3, #327680	; 0x50000
 8000f64:	d10c      	bne.n	8000f80 <HAL_RCC_OscConfig+0xbc>
 8000f66:	4b72      	ldr	r3, [pc, #456]	; (8001130 <HAL_RCC_OscConfig+0x26c>)
 8000f68:	681b      	ldr	r3, [r3, #0]
 8000f6a:	4a71      	ldr	r2, [pc, #452]	; (8001130 <HAL_RCC_OscConfig+0x26c>)
 8000f6c:	f443 2380 	orr.w	r3, r3, #262144	; 0x40000
 8000f70:	6013      	str	r3, [r2, #0]
 8000f72:	4b6f      	ldr	r3, [pc, #444]	; (8001130 <HAL_RCC_OscConfig+0x26c>)
 8000f74:	681b      	ldr	r3, [r3, #0]
 8000f76:	4a6e      	ldr	r2, [pc, #440]	; (8001130 <HAL_RCC_OscConfig+0x26c>)
 8000f78:	f443 3380 	orr.w	r3, r3, #65536	; 0x10000
 8000f7c:	6013      	str	r3, [r2, #0]
 8000f7e:	e00b      	b.n	8000f98 <HAL_RCC_OscConfig+0xd4>
 8000f80:	4b6b      	ldr	r3, [pc, #428]	; (8001130 <HAL_RCC_OscConfig+0x26c>)
 8000f82:	681b      	ldr	r3, [r3, #0]
 8000f84:	4a6a      	ldr	r2, [pc, #424]	; (8001130 <HAL_RCC_OscConfig+0x26c>)
 8000f86:	f423 3380 	bic.w	r3, r3, #65536	; 0x10000
 8000f8a:	6013      	str	r3, [r2, #0]
 8000f8c:	4b68      	ldr	r3, [pc, #416]	; (8001130 <HAL_RCC_OscConfig+0x26c>)
 8000f8e:	681b      	ldr	r3, [r3, #0]
 8000f90:	4a67      	ldr	r2, [pc, #412]	; (8001130 <HAL_RCC_OscConfig+0x26c>)
 8000f92:	f423 2380 	bic.w	r3, r3, #262144	; 0x40000
 8000f96:	6013      	str	r3, [r2, #0]


      /* Check the HSE State */
      if (RCC_OscInitStruct->HSEState != RCC_HSE_OFF)
 8000f98:	687b      	ldr	r3, [r7, #4]
 8000f9a:	685b      	ldr	r3, [r3, #4]
 8000f9c:	2b00      	cmp	r3, #0
 8000f9e:	d013      	beq.n	8000fc8 <HAL_RCC_OscConfig+0x104>
      {
        /* Get Start Tick */
        tickstart = HAL_GetTick();
 8000fa0:	f7ff fd16 	bl	80009d0 <HAL_GetTick>
 8000fa4:	6138      	str	r0, [r7, #16]

        /* Wait till HSE is ready */
        while (__HAL_RCC_GET_FLAG(RCC_FLAG_HSERDY) == RESET)
 8000fa6:	e008      	b.n	8000fba <HAL_RCC_OscConfig+0xf6>
        {
          if ((HAL_GetTick() - tickstart) > HSE_TIMEOUT_VALUE)
 8000fa8:	f7ff fd12 	bl	80009d0 <HAL_GetTick>
 8000fac:	4602      	mov	r2, r0
 8000fae:	693b      	ldr	r3, [r7, #16]
 8000fb0:	1ad3      	subs	r3, r2, r3
 8000fb2:	2b64      	cmp	r3, #100	; 0x64
 8000fb4:	d901      	bls.n	8000fba <HAL_RCC_OscConfig+0xf6>
          {
            return HAL_TIMEOUT;
 8000fb6:	2303      	movs	r3, #3
 8000fb8:	e1fa      	b.n	80013b0 <HAL_RCC_OscConfig+0x4ec>
        while (__HAL_RCC_GET_FLAG(RCC_FLAG_HSERDY) == RESET)
 8000fba:	4b5d      	ldr	r3, [pc, #372]	; (8001130 <HAL_RCC_OscConfig+0x26c>)
 8000fbc:	681b      	ldr	r3, [r3, #0]
 8000fbe:	f403 3300 	and.w	r3, r3, #131072	; 0x20000
 8000fc2:	2b00      	cmp	r3, #0
 8000fc4:	d0f0      	beq.n	8000fa8 <HAL_RCC_OscConfig+0xe4>
 8000fc6:	e014      	b.n	8000ff2 <HAL_RCC_OscConfig+0x12e>
        }
      }
      else
      {
        /* Get Start Tick */
        tickstart = HAL_GetTick();
 8000fc8:	f7ff fd02 	bl	80009d0 <HAL_GetTick>
 8000fcc:	6138      	str	r0, [r7, #16]

        /* Wait till HSE is disabled */
        while (__HAL_RCC_GET_FLAG(RCC_FLAG_HSERDY) != RESET)
 8000fce:	e008      	b.n	8000fe2 <HAL_RCC_OscConfig+0x11e>
        {
          if ((HAL_GetTick() - tickstart) > HSE_TIMEOUT_VALUE)
 8000fd0:	f7ff fcfe 	bl	80009d0 <HAL_GetTick>
 8000fd4:	4602      	mov	r2, r0
 8000fd6:	693b      	ldr	r3, [r7, #16]
 8000fd8:	1ad3      	subs	r3, r2, r3
 8000fda:	2b64      	cmp	r3, #100	; 0x64
 8000fdc:	d901      	bls.n	8000fe2 <HAL_RCC_OscConfig+0x11e>
          {
            return HAL_TIMEOUT;
 8000fde:	2303      	movs	r3, #3
 8000fe0:	e1e6      	b.n	80013b0 <HAL_RCC_OscConfig+0x4ec>
        while (__HAL_RCC_GET_FLAG(RCC_FLAG_HSERDY) != RESET)
 8000fe2:	4b53      	ldr	r3, [pc, #332]	; (8001130 <HAL_RCC_OscConfig+0x26c>)
 8000fe4:	681b      	ldr	r3, [r3, #0]
 8000fe6:	f403 3300 	and.w	r3, r3, #131072	; 0x20000
 8000fea:	2b00      	cmp	r3, #0
 8000fec:	d1f0      	bne.n	8000fd0 <HAL_RCC_OscConfig+0x10c>
 8000fee:	e000      	b.n	8000ff2 <HAL_RCC_OscConfig+0x12e>
      if ((__HAL_RCC_GET_FLAG(RCC_FLAG_HSERDY) != RESET) && (RCC_OscInitStruct->HSEState == RCC_HSE_OFF))
 8000ff0:	bf00      	nop
        }
      }
    }
  }
  /*----------------------------- HSI Configuration --------------------------*/
  if (((RCC_OscInitStruct->OscillatorType) & RCC_OSCILLATORTYPE_HSI) == RCC_OSCILLATORTYPE_HSI)
 8000ff2:	687b      	ldr	r3, [r7, #4]
 8000ff4:	681b      	ldr	r3, [r3, #0]
 8000ff6:	f003 0302 	and.w	r3, r3, #2
 8000ffa:	2b00      	cmp	r3, #0
 8000ffc:	d063      	beq.n	80010c6 <HAL_RCC_OscConfig+0x202>
    /* Check the parameters */
    assert_param(IS_RCC_HSI(RCC_OscInitStruct->HSIState));
    assert_param(IS_RCC_CALIBRATION_VALUE(RCC_OscInitStruct->HSICalibrationValue));

    /* Check if HSI is used as system clock or as PLL source when PLL is selected as system clock */
    if ((__HAL_RCC_GET_SYSCLK_SOURCE() == RCC_SYSCLKSOURCE_STATUS_HSI)
 8000ffe:	4b4c      	ldr	r3, [pc, #304]	; (8001130 <HAL_RCC_OscConfig+0x26c>)
 8001000:	685b      	ldr	r3, [r3, #4]
 8001002:	f003 030c 	and.w	r3, r3, #12
 8001006:	2b00      	cmp	r3, #0
 8001008:	d00b      	beq.n	8001022 <HAL_RCC_OscConfig+0x15e>
        || ((__HAL_RCC_GET_SYSCLK_SOURCE() == RCC_SYSCLKSOURCE_STATUS_PLLCLK) && (__HAL_RCC_GET_PLL_OSCSOURCE() == RCC_PLLSOURCE_HSI_DIV2)))
 800100a:	4b49      	ldr	r3, [pc, #292]	; (8001130 <HAL_RCC_OscConfig+0x26c>)
 800100c:	685b      	ldr	r3, [r3, #4]
 800100e:	f003 030c 	and.w	r3, r3, #12
 8001012:	2b08      	cmp	r3, #8
 8001014:	d11c      	bne.n	8001050 <HAL_RCC_OscConfig+0x18c>
 8001016:	4b46      	ldr	r3, [pc, #280]	; (8001130 <HAL_RCC_OscConfig+0x26c>)
 8001018:	685b      	ldr	r3, [r3, #4]
 800101a:	f403 3380 	and.w	r3, r3, #65536	; 0x10000
 800101e:	2b00      	cmp	r3, #0
 8001020:	d116      	bne.n	8001050 <HAL_RCC_OscConfig+0x18c>
    {
      /* When HSI is used as system clock it will not disabled */
      if ((__HAL_RCC_GET_FLAG(RCC_FLAG_HSIRDY) != RESET) && (RCC_OscInitStruct->HSIState != RCC_HSI_ON))
 8001022:	4b43      	ldr	r3, [pc, #268]	; (8001130 <HAL_RCC_OscConfig+0x26c>)
 8001024:	681b      	ldr	r3, [r3, #0]
 8001026:	f003 0302 	and.w	r3, r3, #2
 800102a:	2b00      	cmp	r3, #0
 800102c:	d005      	beq.n	800103a <HAL_RCC_OscConfig+0x176>
 800102e:	687b      	ldr	r3, [r7, #4]
 8001030:	691b      	ldr	r3, [r3, #16]
 8001032:	2b01      	cmp	r3, #1
 8001034:	d001      	beq.n	800103a <HAL_RCC_OscConfig+0x176>
      {
        return HAL_ERROR;
 8001036:	2301      	movs	r3, #1
 8001038:	e1ba      	b.n	80013b0 <HAL_RCC_OscConfig+0x4ec>
      }
      /* Otherwise, just the calibration is allowed */
      else
      {
        /* Adjusts the Internal High Speed oscillator (HSI) calibration value.*/
        __HAL_RCC_HSI_CALIBRATIONVALUE_ADJUST(RCC_OscInitStruct->HSICalibrationValue);
 800103a:	4b3d      	ldr	r3, [pc, #244]	; (8001130 <HAL_RCC_OscConfig+0x26c>)
 800103c:	681b      	ldr	r3, [r3, #0]
 800103e:	f023 02f8 	bic.w	r2, r3, #248	; 0xf8
 8001042:	687b      	ldr	r3, [r7, #4]
 8001044:	695b      	ldr	r3, [r3, #20]
 8001046:	00db      	lsls	r3, r3, #3
 8001048:	4939      	ldr	r1, [pc, #228]	; (8001130 <HAL_RCC_OscConfig+0x26c>)
 800104a:	4313      	orrs	r3, r2
 800104c:	600b      	str	r3, [r1, #0]
      if ((__HAL_RCC_GET_FLAG(RCC_FLAG_HSIRDY) != RESET) && (RCC_OscInitStruct->HSIState != RCC_HSI_ON))
 800104e:	e03a      	b.n	80010c6 <HAL_RCC_OscConfig+0x202>
      }
    }
    else
    {
      /* Check the HSI State */
      if (RCC_OscInitStruct->HSIState != RCC_HSI_OFF)
 8001050:	687b      	ldr	r3, [r7, #4]
 8001052:	691b      	ldr	r3, [r3, #16]
 8001054:	2b00      	cmp	r3, #0
 8001056:	d020      	beq.n	800109a <HAL_RCC_OscConfig+0x1d6>
      {
        /* Enable the Internal High Speed oscillator (HSI). */
        __HAL_RCC_HSI_ENABLE();
 8001058:	4b36      	ldr	r3, [pc, #216]	; (8001134 <HAL_RCC_OscConfig+0x270>)
 800105a:	2201      	movs	r2, #1
 800105c:	601a      	str	r2, [r3, #0]

        /* Get Start Tick */
        tickstart = HAL_GetTick();
 800105e:	f7ff fcb7 	bl	80009d0 <HAL_GetTick>
 8001062:	6138      	str	r0, [r7, #16]

        /* Wait till HSI is ready */
        while (__HAL_RCC_GET_FLAG(RCC_FLAG_HSIRDY) == RESET)
 8001064:	e008      	b.n	8001078 <HAL_RCC_OscConfig+0x1b4>
        {
          if ((HAL_GetTick() - tickstart) > HSI_TIMEOUT_VALUE)
 8001066:	f7ff fcb3 	bl	80009d0 <HAL_GetTick>
 800106a:	4602      	mov	r2, r0
 800106c:	693b      	ldr	r3, [r7, #16]
 800106e:	1ad3      	subs	r3, r2, r3
 8001070:	2b02      	cmp	r3, #2
 8001072:	d901      	bls.n	8001078 <HAL_RCC_OscConfig+0x1b4>
          {
            return HAL_TIMEOUT;
 8001074:	2303      	movs	r3, #3
 8001076:	e19b      	b.n	80013b0 <HAL_RCC_OscConfig+0x4ec>
        while (__HAL_RCC_GET_FLAG(RCC_FLAG_HSIRDY) == RESET)
 8001078:	4b2d      	ldr	r3, [pc, #180]	; (8001130 <HAL_RCC_OscConfig+0x26c>)
 800107a:	681b      	ldr	r3, [r3, #0]
 800107c:	f003 0302 	and.w	r3, r3, #2
 8001080:	2b00      	cmp	r3, #0
 8001082:	d0f0      	beq.n	8001066 <HAL_RCC_OscConfig+0x1a2>
          }
        }

        /* Adjusts the Internal High Speed oscillator (HSI) calibration value.*/
        __HAL_RCC_HSI_CALIBRATIONVALUE_ADJUST(RCC_OscInitStruct->HSICalibrationValue);
 8001084:	4b2a      	ldr	r3, [pc, #168]	; (8001130 <HAL_RCC_OscConfig+0x26c>)
 8001086:	681b      	ldr	r3, [r3, #0]
 8001088:	f023 02f8 	bic.w	r2, r3, #248	; 0xf8
 800108c:	687b      	ldr	r3, [r7, #4]
 800108e:	695b      	ldr	r3, [r3, #20]
 8001090:	00db      	lsls	r3, r3, #3
 8001092:	4927      	ldr	r1, [pc, #156]	; (8001130 <HAL_RCC_OscConfig+0x26c>)
 8001094:	4313      	orrs	r3, r2
 8001096:	600b      	str	r3, [r1, #0]
 8001098:	e015      	b.n	80010c6 <HAL_RCC_OscConfig+0x202>
      }
      else
      {
        /* Disable the Internal High Speed oscillator (HSI). */
        __HAL_RCC_HSI_DISABLE();
 800109a:	4b26      	ldr	r3, [pc, #152]	; (8001134 <HAL_RCC_OscConfig+0x270>)
 800109c:	2200      	movs	r2, #0
 800109e:	601a      	str	r2, [r3, #0]

        /* Get Start Tick */
        tickstart = HAL_GetTick();
 80010a0:	f7ff fc96 	bl	80009d0 <HAL_GetTick>
 80010a4:	6138      	str	r0, [r7, #16]

        /* Wait till HSI is disabled */
        while (__HAL_RCC_GET_FLAG(RCC_FLAG_HSIRDY) != RESET)
 80010a6:	e008      	b.n	80010ba <HAL_RCC_OscConfig+0x1f6>
        {
          if ((HAL_GetTick() - tickstart) > HSI_TIMEOUT_VALUE)
 80010a8:	f7ff fc92 	bl	80009d0 <HAL_GetTick>
 80010ac:	4602      	mov	r2, r0
 80010ae:	693b      	ldr	r3, [r7, #16]
 80010b0:	1ad3      	subs	r3, r2, r3
 80010b2:	2b02      	cmp	r3, #2
 80010b4:	d901      	bls.n	80010ba <HAL_RCC_OscConfig+0x1f6>
          {
            return HAL_TIMEOUT;
 80010b6:	2303      	movs	r3, #3
 80010b8:	e17a      	b.n	80013b0 <HAL_RCC_OscConfig+0x4ec>
        while (__HAL_RCC_GET_FLAG(RCC_FLAG_HSIRDY) != RESET)
 80010ba:	4b1d      	ldr	r3, [pc, #116]	; (8001130 <HAL_RCC_OscConfig+0x26c>)
 80010bc:	681b      	ldr	r3, [r3, #0]
 80010be:	f003 0302 	and.w	r3, r3, #2
 80010c2:	2b00      	cmp	r3, #0
 80010c4:	d1f0      	bne.n	80010a8 <HAL_RCC_OscConfig+0x1e4>
        }
      }
    }
  }
  /*------------------------------ LSI Configuration -------------------------*/
  if (((RCC_OscInitStruct->OscillatorType) & RCC_OSCILLATORTYPE_LSI) == RCC_OSCILLATORTYPE_LSI)
 80010c6:	687b      	ldr	r3, [r7, #4]
 80010c8:	681b      	ldr	r3, [r3, #0]
 80010ca:	f003 0308 	and.w	r3, r3, #8
 80010ce:	2b00      	cmp	r3, #0
 80010d0:	d03a      	beq.n	8001148 <HAL_RCC_OscConfig+0x284>
  {
    /* Check the parameters */
    assert_param(IS_RCC_LSI(RCC_OscInitStruct->LSIState));

    /* Check the LSI State */
    if (RCC_OscInitStruct->LSIState != RCC_LSI_OFF)
 80010d2:	687b      	ldr	r3, [r7, #4]
 80010d4:	699b      	ldr	r3, [r3, #24]
 80010d6:	2b00      	cmp	r3, #0
 80010d8:	d019      	beq.n	800110e <HAL_RCC_OscConfig+0x24a>
    {
      /* Enable the Internal Low Speed oscillator (LSI). */
      __HAL_RCC_LSI_ENABLE();
 80010da:	4b17      	ldr	r3, [pc, #92]	; (8001138 <HAL_RCC_OscConfig+0x274>)
 80010dc:	2201      	movs	r2, #1
 80010de:	601a      	str	r2, [r3, #0]

      /* Get Start Tick */
      tickstart = HAL_GetTick();
 80010e0:	f7ff fc76 	bl	80009d0 <HAL_GetTick>
 80010e4:	6138      	str	r0, [r7, #16]

      /* Wait till LSI is ready */
      while (__HAL_RCC_GET_FLAG(RCC_FLAG_LSIRDY) == RESET)
 80010e6:	e008      	b.n	80010fa <HAL_RCC_OscConfig+0x236>
      {
        if ((HAL_GetTick() - tickstart) > LSI_TIMEOUT_VALUE)
 80010e8:	f7ff fc72 	bl	80009d0 <HAL_GetTick>
 80010ec:	4602      	mov	r2, r0
 80010ee:	693b      	ldr	r3, [r7, #16]
 80010f0:	1ad3      	subs	r3, r2, r3
 80010f2:	2b02      	cmp	r3, #2
 80010f4:	d901      	bls.n	80010fa <HAL_RCC_OscConfig+0x236>
        {
          return HAL_TIMEOUT;
 80010f6:	2303      	movs	r3, #3
 80010f8:	e15a      	b.n	80013b0 <HAL_RCC_OscConfig+0x4ec>
      while (__HAL_RCC_GET_FLAG(RCC_FLAG_LSIRDY) == RESET)
 80010fa:	4b0d      	ldr	r3, [pc, #52]	; (8001130 <HAL_RCC_OscConfig+0x26c>)
 80010fc:	6a5b      	ldr	r3, [r3, #36]	; 0x24
 80010fe:	f003 0302 	and.w	r3, r3, #2
 8001102:	2b00      	cmp	r3, #0
 8001104:	d0f0      	beq.n	80010e8 <HAL_RCC_OscConfig+0x224>
        }
      }
      /*  To have a fully stabilized clock in the specified range, a software delay of 1ms
          should be added.*/
      RCC_Delay(1);
 8001106:	2001      	movs	r0, #1
 8001108:	f000 faa8 	bl	800165c <RCC_Delay>
 800110c:	e01c      	b.n	8001148 <HAL_RCC_OscConfig+0x284>
    }
    else
    {
      /* Disable the Internal Low Speed oscillator (LSI). */
      __HAL_RCC_LSI_DISABLE();
 800110e:	4b0a      	ldr	r3, [pc, #40]	; (8001138 <HAL_RCC_OscConfig+0x274>)
 8001110:	2200      	movs	r2, #0
 8001112:	601a      	str	r2, [r3, #0]

      /* Get Start Tick */
      tickstart = HAL_GetTick();
 8001114:	f7ff fc5c 	bl	80009d0 <HAL_GetTick>
 8001118:	6138      	str	r0, [r7, #16]

      /* Wait till LSI is disabled */
      while (__HAL_RCC_GET_FLAG(RCC_FLAG_LSIRDY) != RESET)
 800111a:	e00f      	b.n	800113c <HAL_RCC_OscConfig+0x278>
      {
        if ((HAL_GetTick() - tickstart) > LSI_TIMEOUT_VALUE)
 800111c:	f7ff fc58 	bl	80009d0 <HAL_GetTick>
 8001120:	4602      	mov	r2, r0
 8001122:	693b      	ldr	r3, [r7, #16]
 8001124:	1ad3      	subs	r3, r2, r3
 8001126:	2b02      	cmp	r3, #2
 8001128:	d908      	bls.n	800113c <HAL_RCC_OscConfig+0x278>
        {
          return HAL_TIMEOUT;
 800112a:	2303      	movs	r3, #3
 800112c:	e140      	b.n	80013b0 <HAL_RCC_OscConfig+0x4ec>
 800112e:	bf00      	nop
 8001130:	40021000 	.word	0x40021000
 8001134:	42420000 	.word	0x42420000
 8001138:	42420480 	.word	0x42420480
      while (__HAL_RCC_GET_FLAG(RCC_FLAG_LSIRDY) != RESET)
 800113c:	4b9e      	ldr	r3, [pc, #632]	; (80013b8 <HAL_RCC_OscConfig+0x4f4>)
 800113e:	6a5b      	ldr	r3, [r3, #36]	; 0x24
 8001140:	f003 0302 	and.w	r3, r3, #2
 8001144:	2b00      	cmp	r3, #0
 8001146:	d1e9      	bne.n	800111c <HAL_RCC_OscConfig+0x258>
        }
      }
    }
  }
  /*------------------------------ LSE Configuration -------------------------*/
  if (((RCC_OscInitStruct->OscillatorType) & RCC_OSCILLATORTYPE_LSE) == RCC_OSCILLATORTYPE_LSE)
 8001148:	687b      	ldr	r3, [r7, #4]
 800114a:	681b      	ldr	r3, [r3, #0]
 800114c:	f003 0304 	and.w	r3, r3, #4
 8001150:	2b00      	cmp	r3, #0
 8001152:	f000 80a6 	beq.w	80012a2 <HAL_RCC_OscConfig+0x3de>
  {
    FlagStatus       pwrclkchanged = RESET;
 8001156:	2300      	movs	r3, #0
 8001158:	75fb      	strb	r3, [r7, #23]
    /* Check the parameters */
    assert_param(IS_RCC_LSE(RCC_OscInitStruct->LSEState));

    /* Update LSE configuration in Backup Domain control register    */
    /* Requires to enable write access to Backup Domain of necessary */
    if (__HAL_RCC_PWR_IS_CLK_DISABLED())
 800115a:	4b97      	ldr	r3, [pc, #604]	; (80013b8 <HAL_RCC_OscConfig+0x4f4>)
 800115c:	69db      	ldr	r3, [r3, #28]
 800115e:	f003 5380 	and.w	r3, r3, #268435456	; 0x10000000
 8001162:	2b00      	cmp	r3, #0
 8001164:	d10d      	bne.n	8001182 <HAL_RCC_OscConfig+0x2be>
    {
      __HAL_RCC_PWR_CLK_ENABLE();
 8001166:	4b94      	ldr	r3, [pc, #592]	; (80013b8 <HAL_RCC_OscConfig+0x4f4>)
 8001168:	69db      	ldr	r3, [r3, #28]
 800116a:	4a93      	ldr	r2, [pc, #588]	; (80013b8 <HAL_RCC_OscConfig+0x4f4>)
 800116c:	f043 5380 	orr.w	r3, r3, #268435456	; 0x10000000
 8001170:	61d3      	str	r3, [r2, #28]
 8001172:	4b91      	ldr	r3, [pc, #580]	; (80013b8 <HAL_RCC_OscConfig+0x4f4>)
 8001174:	69db      	ldr	r3, [r3, #28]
 8001176:	f003 5380 	and.w	r3, r3, #268435456	; 0x10000000
 800117a:	60bb      	str	r3, [r7, #8]
 800117c:	68bb      	ldr	r3, [r7, #8]
      pwrclkchanged = SET;
 800117e:	2301      	movs	r3, #1
 8001180:	75fb      	strb	r3, [r7, #23]
    }

    if (HAL_IS_BIT_CLR(PWR->CR, PWR_CR_DBP))
 8001182:	4b8e      	ldr	r3, [pc, #568]	; (80013bc <HAL_RCC_OscConfig+0x4f8>)
 8001184:	681b      	ldr	r3, [r3, #0]
 8001186:	f403 7380 	and.w	r3, r3, #256	; 0x100
 800118a:	2b00      	cmp	r3, #0
 800118c:	d118      	bne.n	80011c0 <HAL_RCC_OscConfig+0x2fc>
    {
      /* Enable write access to Backup domain */
      SET_BIT(PWR->CR, PWR_CR_DBP);
 800118e:	4b8b      	ldr	r3, [pc, #556]	; (80013bc <HAL_RCC_OscConfig+0x4f8>)
 8001190:	681b      	ldr	r3, [r3, #0]
 8001192:	4a8a      	ldr	r2, [pc, #552]	; (80013bc <HAL_RCC_OscConfig+0x4f8>)
 8001194:	f443 7380 	orr.w	r3, r3, #256	; 0x100
 8001198:	6013      	str	r3, [r2, #0]

      /* Wait for Backup domain Write protection disable */
      tickstart = HAL_GetTick();
 800119a:	f7ff fc19 	bl	80009d0 <HAL_GetTick>
 800119e:	6138      	str	r0, [r7, #16]

      while (HAL_IS_BIT_CLR(PWR->CR, PWR_CR_DBP))
 80011a0:	e008      	b.n	80011b4 <HAL_RCC_OscConfig+0x2f0>
      {
        if ((HAL_GetTick() - tickstart) > RCC_DBP_TIMEOUT_VALUE)
 80011a2:	f7ff fc15 	bl	80009d0 <HAL_GetTick>
 80011a6:	4602      	mov	r2, r0
 80011a8:	693b      	ldr	r3, [r7, #16]
 80011aa:	1ad3      	subs	r3, r2, r3
 80011ac:	2b64      	cmp	r3, #100	; 0x64
 80011ae:	d901      	bls.n	80011b4 <HAL_RCC_OscConfig+0x2f0>
        {
          return HAL_TIMEOUT;
 80011b0:	2303      	movs	r3, #3
 80011b2:	e0fd      	b.n	80013b0 <HAL_RCC_OscConfig+0x4ec>
      while (HAL_IS_BIT_CLR(PWR->CR, PWR_CR_DBP))
 80011b4:	4b81      	ldr	r3, [pc, #516]	; (80013bc <HAL_RCC_OscConfig+0x4f8>)
 80011b6:	681b      	ldr	r3, [r3, #0]
 80011b8:	f403 7380 	and.w	r3, r3, #256	; 0x100
 80011bc:	2b00      	cmp	r3, #0
 80011be:	d0f0      	beq.n	80011a2 <HAL_RCC_OscConfig+0x2de>
        }
      }
    }

    /* Set the new LSE configuration -----------------------------------------*/
    __HAL_RCC_LSE_CONFIG(RCC_OscInitStruct->LSEState);
 80011c0:	687b      	ldr	r3, [r7, #4]
 80011c2:	68db      	ldr	r3, [r3, #12]
 80011c4:	2b01      	cmp	r3, #1
 80011c6:	d106      	bne.n	80011d6 <HAL_RCC_OscConfig+0x312>
 80011c8:	4b7b      	ldr	r3, [pc, #492]	; (80013b8 <HAL_RCC_OscConfig+0x4f4>)
 80011ca:	6a1b      	ldr	r3, [r3, #32]
 80011cc:	4a7a      	ldr	r2, [pc, #488]	; (80013b8 <HAL_RCC_OscConfig+0x4f4>)
 80011ce:	f043 0301 	orr.w	r3, r3, #1
 80011d2:	6213      	str	r3, [r2, #32]
 80011d4:	e02d      	b.n	8001232 <HAL_RCC_OscConfig+0x36e>
 80011d6:	687b      	ldr	r3, [r7, #4]
 80011d8:	68db      	ldr	r3, [r3, #12]
 80011da:	2b00      	cmp	r3, #0
 80011dc:	d10c      	bne.n	80011f8 <HAL_RCC_OscConfig+0x334>
 80011de:	4b76      	ldr	r3, [pc, #472]	; (80013b8 <HAL_RCC_OscConfig+0x4f4>)
 80011e0:	6a1b      	ldr	r3, [r3, #32]
 80011e2:	4a75      	ldr	r2, [pc, #468]	; (80013b8 <HAL_RCC_OscConfig+0x4f4>)
 80011e4:	f023 0301 	bic.w	r3, r3, #1
 80011e8:	6213      	str	r3, [r2, #32]
 80011ea:	4b73      	ldr	r3, [pc, #460]	; (80013b8 <HAL_RCC_OscConfig+0x4f4>)
 80011ec:	6a1b      	ldr	r3, [r3, #32]
 80011ee:	4a72      	ldr	r2, [pc, #456]	; (80013b8 <HAL_RCC_OscConfig+0x4f4>)
 80011f0:	f023 0304 	bic.w	r3, r3, #4
 80011f4:	6213      	str	r3, [r2, #32]
 80011f6:	e01c      	b.n	8001232 <HAL_RCC_OscConfig+0x36e>
 80011f8:	687b      	ldr	r3, [r7, #4]
 80011fa:	68db      	ldr	r3, [r3, #12]
 80011fc:	2b05      	cmp	r3, #5
 80011fe:	d10c      	bne.n	800121a <HAL_RCC_OscConfig+0x356>
 8001200:	4b6d      	ldr	r3, [pc, #436]	; (80013b8 <HAL_RCC_OscConfig+0x4f4>)
 8001202:	6a1b      	ldr	r3, [r3, #32]
 8001204:	4a6c      	ldr	r2, [pc, #432]	; (80013b8 <HAL_RCC_OscConfig+0x4f4>)
 8001206:	f043 0304 	orr.w	r3, r3, #4
 800120a:	6213      	str	r3, [r2, #32]
 800120c:	4b6a      	ldr	r3, [pc, #424]	; (80013b8 <HAL_RCC_OscConfig+0x4f4>)
 800120e:	6a1b      	ldr	r3, [r3, #32]
 8001210:	4a69      	ldr	r2, [pc, #420]	; (80013b8 <HAL_RCC_OscConfig+0x4f4>)
 8001212:	f043 0301 	orr.w	r3, r3, #1
 8001216:	6213      	str	r3, [r2, #32]
 8001218:	e00b      	b.n	8001232 <HAL_RCC_OscConfig+0x36e>
 800121a:	4b67      	ldr	r3, [pc, #412]	; (80013b8 <HAL_RCC_OscConfig+0x4f4>)
 800121c:	6a1b      	ldr	r3, [r3, #32]
 800121e:	4a66      	ldr	r2, [pc, #408]	; (80013b8 <HAL_RCC_OscConfig+0x4f4>)
 8001220:	f023 0301 	bic.w	r3, r3, #1
 8001224:	6213      	str	r3, [r2, #32]
 8001226:	4b64      	ldr	r3, [pc, #400]	; (80013b8 <HAL_RCC_OscConfig+0x4f4>)
 8001228:	6a1b      	ldr	r3, [r3, #32]
 800122a:	4a63      	ldr	r2, [pc, #396]	; (80013b8 <HAL_RCC_OscConfig+0x4f4>)
 800122c:	f023 0304 	bic.w	r3, r3, #4
 8001230:	6213      	str	r3, [r2, #32]
    /* Check the LSE State */
    if (RCC_OscInitStruct->LSEState != RCC_LSE_OFF)
 8001232:	687b      	ldr	r3, [r7, #4]
 8001234:	68db      	ldr	r3, [r3, #12]
 8001236:	2b00      	cmp	r3, #0
 8001238:	d015      	beq.n	8001266 <HAL_RCC_OscConfig+0x3a2>
    {
      /* Get Start Tick */
      tickstart = HAL_GetTick();
 800123a:	f7ff fbc9 	bl	80009d0 <HAL_GetTick>
 800123e:	6138      	str	r0, [r7, #16]

      /* Wait till LSE is ready */
      while (__HAL_RCC_GET_FLAG(RCC_FLAG_LSERDY) == RESET)
 8001240:	e00a      	b.n	8001258 <HAL_RCC_OscConfig+0x394>
      {
        if ((HAL_GetTick() - tickstart) > RCC_LSE_TIMEOUT_VALUE)
 8001242:	f7ff fbc5 	bl	80009d0 <HAL_GetTick>
 8001246:	4602      	mov	r2, r0
 8001248:	693b      	ldr	r3, [r7, #16]
 800124a:	1ad3      	subs	r3, r2, r3
 800124c:	f241 3288 	movw	r2, #5000	; 0x1388
 8001250:	4293      	cmp	r3, r2
 8001252:	d901      	bls.n	8001258 <HAL_RCC_OscConfig+0x394>
        {
          return HAL_TIMEOUT;
 8001254:	2303      	movs	r3, #3
 8001256:	e0ab      	b.n	80013b0 <HAL_RCC_OscConfig+0x4ec>
      while (__HAL_RCC_GET_FLAG(RCC_FLAG_LSERDY) == RESET)
 8001258:	4b57      	ldr	r3, [pc, #348]	; (80013b8 <HAL_RCC_OscConfig+0x4f4>)
 800125a:	6a1b      	ldr	r3, [r3, #32]
 800125c:	f003 0302 	and.w	r3, r3, #2
 8001260:	2b00      	cmp	r3, #0
 8001262:	d0ee      	beq.n	8001242 <HAL_RCC_OscConfig+0x37e>
 8001264:	e014      	b.n	8001290 <HAL_RCC_OscConfig+0x3cc>
      }
    }
    else
    {
      /* Get Start Tick */
      tickstart = HAL_GetTick();
 8001266:	f7ff fbb3 	bl	80009d0 <HAL_GetTick>
 800126a:	6138      	str	r0, [r7, #16]

      /* Wait till LSE is disabled */
      while (__HAL_RCC_GET_FLAG(RCC_FLAG_LSERDY) != RESET)
 800126c:	e00a      	b.n	8001284 <HAL_RCC_OscConfig+0x3c0>
      {
        if ((HAL_GetTick() - tickstart) > RCC_LSE_TIMEOUT_VALUE)
 800126e:	f7ff fbaf 	bl	80009d0 <HAL_GetTick>
 8001272:	4602      	mov	r2, r0
 8001274:	693b      	ldr	r3, [r7, #16]
 8001276:	1ad3      	subs	r3, r2, r3
 8001278:	f241 3288 	movw	r2, #5000	; 0x1388
 800127c:	4293      	cmp	r3, r2
 800127e:	d901      	bls.n	8001284 <HAL_RCC_OscConfig+0x3c0>
        {
          return HAL_TIMEOUT;
 8001280:	2303      	movs	r3, #3
 8001282:	e095      	b.n	80013b0 <HAL_RCC_OscConfig+0x4ec>
      while (__HAL_RCC_GET_FLAG(RCC_FLAG_LSERDY) != RESET)
 8001284:	4b4c      	ldr	r3, [pc, #304]	; (80013b8 <HAL_RCC_OscConfig+0x4f4>)
 8001286:	6a1b      	ldr	r3, [r3, #32]
 8001288:	f003 0302 	and.w	r3, r3, #2
 800128c:	2b00      	cmp	r3, #0
 800128e:	d1ee      	bne.n	800126e <HAL_RCC_OscConfig+0x3aa>
        }
      }
    }

    /* Require to disable power clock if necessary */
    if (pwrclkchanged == SET)
 8001290:	7dfb      	ldrb	r3, [r7, #23]
 8001292:	2b01      	cmp	r3, #1
 8001294:	d105      	bne.n	80012a2 <HAL_RCC_OscConfig+0x3de>
    {
      __HAL_RCC_PWR_CLK_DISABLE();
 8001296:	4b48      	ldr	r3, [pc, #288]	; (80013b8 <HAL_RCC_OscConfig+0x4f4>)
 8001298:	69db      	ldr	r3, [r3, #28]
 800129a:	4a47      	ldr	r2, [pc, #284]	; (80013b8 <HAL_RCC_OscConfig+0x4f4>)
 800129c:	f023 5380 	bic.w	r3, r3, #268435456	; 0x10000000
 80012a0:	61d3      	str	r3, [r2, #28]

#endif /* RCC_CR_PLL2ON */
  /*-------------------------------- PLL Configuration -----------------------*/
  /* Check the parameters */
  assert_param(IS_RCC_PLL(RCC_OscInitStruct->PLL.PLLState));
  if ((RCC_OscInitStruct->PLL.PLLState) != RCC_PLL_NONE)
 80012a2:	687b      	ldr	r3, [r7, #4]
 80012a4:	69db      	ldr	r3, [r3, #28]
 80012a6:	2b00      	cmp	r3, #0
 80012a8:	f000 8081 	beq.w	80013ae <HAL_RCC_OscConfig+0x4ea>
  {
    /* Check if the PLL is used as system clock or not */
    if (__HAL_RCC_GET_SYSCLK_SOURCE() != RCC_SYSCLKSOURCE_STATUS_PLLCLK)
 80012ac:	4b42      	ldr	r3, [pc, #264]	; (80013b8 <HAL_RCC_OscConfig+0x4f4>)
 80012ae:	685b      	ldr	r3, [r3, #4]
 80012b0:	f003 030c 	and.w	r3, r3, #12
 80012b4:	2b08      	cmp	r3, #8
 80012b6:	d061      	beq.n	800137c <HAL_RCC_OscConfig+0x4b8>
    {
      if ((RCC_OscInitStruct->PLL.PLLState) == RCC_PLL_ON)
 80012b8:	687b      	ldr	r3, [r7, #4]
 80012ba:	69db      	ldr	r3, [r3, #28]
 80012bc:	2b02      	cmp	r3, #2
 80012be:	d146      	bne.n	800134e <HAL_RCC_OscConfig+0x48a>
        /* Check the parameters */
        assert_param(IS_RCC_PLLSOURCE(RCC_OscInitStruct->PLL.PLLSource));
        assert_param(IS_RCC_PLL_MUL(RCC_OscInitStruct->PLL.PLLMUL));

        /* Disable the main PLL. */
        __HAL_RCC_PLL_DISABLE();
 80012c0:	4b3f      	ldr	r3, [pc, #252]	; (80013c0 <HAL_RCC_OscConfig+0x4fc>)
 80012c2:	2200      	movs	r2, #0
 80012c4:	601a      	str	r2, [r3, #0]

        /* Get Start Tick */
        tickstart = HAL_GetTick();
 80012c6:	f7ff fb83 	bl	80009d0 <HAL_GetTick>
 80012ca:	6138      	str	r0, [r7, #16]

        /* Wait till PLL is disabled */
        while (__HAL_RCC_GET_FLAG(RCC_FLAG_PLLRDY)  != RESET)
 80012cc:	e008      	b.n	80012e0 <HAL_RCC_OscConfig+0x41c>
        {
          if ((HAL_GetTick() - tickstart) > PLL_TIMEOUT_VALUE)
 80012ce:	f7ff fb7f 	bl	80009d0 <HAL_GetTick>
 80012d2:	4602      	mov	r2, r0
 80012d4:	693b      	ldr	r3, [r7, #16]
 80012d6:	1ad3      	subs	r3, r2, r3
 80012d8:	2b02      	cmp	r3, #2
 80012da:	d901      	bls.n	80012e0 <HAL_RCC_OscConfig+0x41c>
          {
            return HAL_TIMEOUT;
 80012dc:	2303      	movs	r3, #3
 80012de:	e067      	b.n	80013b0 <HAL_RCC_OscConfig+0x4ec>
        while (__HAL_RCC_GET_FLAG(RCC_FLAG_PLLRDY)  != RESET)
 80012e0:	4b35      	ldr	r3, [pc, #212]	; (80013b8 <HAL_RCC_OscConfig+0x4f4>)
 80012e2:	681b      	ldr	r3, [r3, #0]
 80012e4:	f003 7300 	and.w	r3, r3, #33554432	; 0x2000000
 80012e8:	2b00      	cmp	r3, #0
 80012ea:	d1f0      	bne.n	80012ce <HAL_RCC_OscConfig+0x40a>
          }
        }

        /* Configure the HSE prediv factor --------------------------------*/
        /* It can be written only when the PLL is disabled. Not used in PLL source is different than HSE */
        if (RCC_OscInitStruct->PLL.PLLSource == RCC_PLLSOURCE_HSE)
 80012ec:	687b      	ldr	r3, [r7, #4]
 80012ee:	6a1b      	ldr	r3, [r3, #32]
 80012f0:	f5b3 3f80 	cmp.w	r3, #65536	; 0x10000
 80012f4:	d108      	bne.n	8001308 <HAL_RCC_OscConfig+0x444>
          /* Set PREDIV1 source */
          SET_BIT(RCC->CFGR2, RCC_OscInitStruct->Prediv1Source);
#endif /* RCC_CFGR2_PREDIV1SRC */

          /* Set PREDIV1 Value */
          __HAL_RCC_HSE_PREDIV_CONFIG(RCC_OscInitStruct->HSEPredivValue);
 80012f6:	4b30      	ldr	r3, [pc, #192]	; (80013b8 <HAL_RCC_OscConfig+0x4f4>)
 80012f8:	685b      	ldr	r3, [r3, #4]
 80012fa:	f423 3200 	bic.w	r2, r3, #131072	; 0x20000
 80012fe:	687b      	ldr	r3, [r7, #4]
 8001300:	689b      	ldr	r3, [r3, #8]
 8001302:	492d      	ldr	r1, [pc, #180]	; (80013b8 <HAL_RCC_OscConfig+0x4f4>)
 8001304:	4313      	orrs	r3, r2
 8001306:	604b      	str	r3, [r1, #4]
        }

        /* Configure the main PLL clock source and multiplication factors. */
        __HAL_RCC_PLL_CONFIG(RCC_OscInitStruct->PLL.PLLSource,
 8001308:	4b2b      	ldr	r3, [pc, #172]	; (80013b8 <HAL_RCC_OscConfig+0x4f4>)
 800130a:	685b      	ldr	r3, [r3, #4]
 800130c:	f423 1274 	bic.w	r2, r3, #3997696	; 0x3d0000
 8001310:	687b      	ldr	r3, [r7, #4]
 8001312:	6a19      	ldr	r1, [r3, #32]
 8001314:	687b      	ldr	r3, [r7, #4]
 8001316:	6a5b      	ldr	r3, [r3, #36]	; 0x24
 8001318:	430b      	orrs	r3, r1
 800131a:	4927      	ldr	r1, [pc, #156]	; (80013b8 <HAL_RCC_OscConfig+0x4f4>)
 800131c:	4313      	orrs	r3, r2
 800131e:	604b      	str	r3, [r1, #4]
                             RCC_OscInitStruct->PLL.PLLMUL);
        /* Enable the main PLL. */
        __HAL_RCC_PLL_ENABLE();
 8001320:	4b27      	ldr	r3, [pc, #156]	; (80013c0 <HAL_RCC_OscConfig+0x4fc>)
 8001322:	2201      	movs	r2, #1
 8001324:	601a      	str	r2, [r3, #0]

        /* Get Start Tick */
        tickstart = HAL_GetTick();
 8001326:	f7ff fb53 	bl	80009d0 <HAL_GetTick>
 800132a:	6138      	str	r0, [r7, #16]

        /* Wait till PLL is ready */
        while (__HAL_RCC_GET_FLAG(RCC_FLAG_PLLRDY)  == RESET)
 800132c:	e008      	b.n	8001340 <HAL_RCC_OscConfig+0x47c>
        {
          if ((HAL_GetTick() - tickstart) > PLL_TIMEOUT_VALUE)
 800132e:	f7ff fb4f 	bl	80009d0 <HAL_GetTick>
 8001332:	4602      	mov	r2, r0
 8001334:	693b      	ldr	r3, [r7, #16]
 8001336:	1ad3      	subs	r3, r2, r3
 8001338:	2b02      	cmp	r3, #2
 800133a:	d901      	bls.n	8001340 <HAL_RCC_OscConfig+0x47c>
          {
            return HAL_TIMEOUT;
 800133c:	2303      	movs	r3, #3
 800133e:	e037      	b.n	80013b0 <HAL_RCC_OscConfig+0x4ec>
        while (__HAL_RCC_GET_FLAG(RCC_FLAG_PLLRDY)  == RESET)
 8001340:	4b1d      	ldr	r3, [pc, #116]	; (80013b8 <HAL_RCC_OscConfig+0x4f4>)
 8001342:	681b      	ldr	r3, [r3, #0]
 8001344:	f003 7300 	and.w	r3, r3, #33554432	; 0x2000000
 8001348:	2b00      	cmp	r3, #0
 800134a:	d0f0      	beq.n	800132e <HAL_RCC_OscConfig+0x46a>
 800134c:	e02f      	b.n	80013ae <HAL_RCC_OscConfig+0x4ea>
        }
      }
      else
      {
        /* Disable the main PLL. */
        __HAL_RCC_PLL_DISABLE();
 800134e:	4b1c      	ldr	r3, [pc, #112]	; (80013c0 <HAL_RCC_OscConfig+0x4fc>)
 8001350:	2200      	movs	r2, #0
 8001352:	601a      	str	r2, [r3, #0]

        /* Get Start Tick */
        tickstart = HAL_GetTick();
 8001354:	f7ff fb3c 	bl	80009d0 <HAL_GetTick>
 8001358:	6138      	str	r0, [r7, #16]

        /* Wait till PLL is disabled */
        while (__HAL_RCC_GET_FLAG(RCC_FLAG_PLLRDY)  != RESET)
 800135a:	e008      	b.n	800136e <HAL_RCC_OscConfig+0x4aa>
        {
          if ((HAL_GetTick() - tickstart) > PLL_TIMEOUT_VALUE)
 800135c:	f7ff fb38 	bl	80009d0 <HAL_GetTick>
 8001360:	4602      	mov	r2, r0
 8001362:	693b      	ldr	r3, [r7, #16]
 8001364:	1ad3      	subs	r3, r2, r3
 8001366:	2b02      	cmp	r3, #2
 8001368:	d901      	bls.n	800136e <HAL_RCC_OscConfig+0x4aa>
          {
            return HAL_TIMEOUT;
 800136a:	2303      	movs	r3, #3
 800136c:	e020      	b.n	80013b0 <HAL_RCC_OscConfig+0x4ec>
        while (__HAL_RCC_GET_FLAG(RCC_FLAG_PLLRDY)  != RESET)
 800136e:	4b12      	ldr	r3, [pc, #72]	; (80013b8 <HAL_RCC_OscConfig+0x4f4>)
 8001370:	681b      	ldr	r3, [r3, #0]
 8001372:	f003 7300 	and.w	r3, r3, #33554432	; 0x2000000
 8001376:	2b00      	cmp	r3, #0
 8001378:	d1f0      	bne.n	800135c <HAL_RCC_OscConfig+0x498>
 800137a:	e018      	b.n	80013ae <HAL_RCC_OscConfig+0x4ea>
      }
    }
    else
    {
      /* Check if there is a request to disable the PLL used as System clock source */
      if ((RCC_OscInitStruct->PLL.PLLState) == RCC_PLL_OFF)
 800137c:	687b      	ldr	r3, [r7, #4]
 800137e:	69db      	ldr	r3, [r3, #28]
 8001380:	2b01      	cmp	r3, #1
 8001382:	d101      	bne.n	8001388 <HAL_RCC_OscConfig+0x4c4>
      {
        return HAL_ERROR;
 8001384:	2301      	movs	r3, #1
 8001386:	e013      	b.n	80013b0 <HAL_RCC_OscConfig+0x4ec>
      }
      else
      {
        /* Do not return HAL_ERROR if request repeats the current configuration */
        pll_config = RCC->CFGR;
 8001388:	4b0b      	ldr	r3, [pc, #44]	; (80013b8 <HAL_RCC_OscConfig+0x4f4>)
 800138a:	685b      	ldr	r3, [r3, #4]
 800138c:	60fb      	str	r3, [r7, #12]
        if ((READ_BIT(pll_config, RCC_CFGR_PLLSRC) != RCC_OscInitStruct->PLL.PLLSource) ||
 800138e:	68fb      	ldr	r3, [r7, #12]
 8001390:	f403 3280 	and.w	r2, r3, #65536	; 0x10000
 8001394:	687b      	ldr	r3, [r7, #4]
 8001396:	6a1b      	ldr	r3, [r3, #32]
 8001398:	429a      	cmp	r2, r3
 800139a:	d106      	bne.n	80013aa <HAL_RCC_OscConfig+0x4e6>
            (READ_BIT(pll_config, RCC_CFGR_PLLMULL) != RCC_OscInitStruct->PLL.PLLMUL))
 800139c:	68fb      	ldr	r3, [r7, #12]
 800139e:	f403 1270 	and.w	r2, r3, #3932160	; 0x3c0000
 80013a2:	687b      	ldr	r3, [r7, #4]
 80013a4:	6a5b      	ldr	r3, [r3, #36]	; 0x24
        if ((READ_BIT(pll_config, RCC_CFGR_PLLSRC) != RCC_OscInitStruct->PLL.PLLSource) ||
 80013a6:	429a      	cmp	r2, r3
 80013a8:	d001      	beq.n	80013ae <HAL_RCC_OscConfig+0x4ea>
        {
          return HAL_ERROR;
 80013aa:	2301      	movs	r3, #1
 80013ac:	e000      	b.n	80013b0 <HAL_RCC_OscConfig+0x4ec>
        }
      }
    }
  }

  return HAL_OK;
 80013ae:	2300      	movs	r3, #0
}
 80013b0:	4618      	mov	r0, r3
 80013b2:	3718      	adds	r7, #24
 80013b4:	46bd      	mov	sp, r7
 80013b6:	bd80      	pop	{r7, pc}
 80013b8:	40021000 	.word	0x40021000
 80013bc:	40007000 	.word	0x40007000
 80013c0:	42420060 	.word	0x42420060

080013c4 <HAL_RCC_ClockConfig>:
  *         You can use @ref HAL_RCC_GetClockConfig() function to know which clock is
  *         currently used as system clock source.
  * @retval HAL status
  */
HAL_StatusTypeDef HAL_RCC_ClockConfig(RCC_ClkInitTypeDef  *RCC_ClkInitStruct, uint32_t FLatency)
{
 80013c4:	b580      	push	{r7, lr}
 80013c6:	b084      	sub	sp, #16
 80013c8:	af00      	add	r7, sp, #0
 80013ca:	6078      	str	r0, [r7, #4]
 80013cc:	6039      	str	r1, [r7, #0]
  uint32_t tickstart;

  /* Check Null pointer */
  if (RCC_ClkInitStruct == NULL)
 80013ce:	687b      	ldr	r3, [r7, #4]
 80013d0:	2b00      	cmp	r3, #0
 80013d2:	d101      	bne.n	80013d8 <HAL_RCC_ClockConfig+0x14>
  {
    return HAL_ERROR;
 80013d4:	2301      	movs	r3, #1
 80013d6:	e0d0      	b.n	800157a <HAL_RCC_ClockConfig+0x1b6>
  must be correctly programmed according to the frequency of the CPU clock
    (HCLK) of the device. */

#if defined(FLASH_ACR_LATENCY)
  /* Increasing the number of wait states because of higher CPU frequency */
  if (FLatency > __HAL_FLASH_GET_LATENCY())
 80013d8:	4b6a      	ldr	r3, [pc, #424]	; (8001584 <HAL_RCC_ClockConfig+0x1c0>)
 80013da:	681b      	ldr	r3, [r3, #0]
 80013dc:	f003 0307 	and.w	r3, r3, #7
 80013e0:	683a      	ldr	r2, [r7, #0]
 80013e2:	429a      	cmp	r2, r3
 80013e4:	d910      	bls.n	8001408 <HAL_RCC_ClockConfig+0x44>
  {
    /* Program the new number of wait states to the LATENCY bits in the FLASH_ACR register */
    __HAL_FLASH_SET_LATENCY(FLatency);
 80013e6:	4b67      	ldr	r3, [pc, #412]	; (8001584 <HAL_RCC_ClockConfig+0x1c0>)
 80013e8:	681b      	ldr	r3, [r3, #0]
 80013ea:	f023 0207 	bic.w	r2, r3, #7
 80013ee:	4965      	ldr	r1, [pc, #404]	; (8001584 <HAL_RCC_ClockConfig+0x1c0>)
 80013f0:	683b      	ldr	r3, [r7, #0]
 80013f2:	4313      	orrs	r3, r2
 80013f4:	600b      	str	r3, [r1, #0]

    /* Check that the new number of wait states is taken into account to access the Flash
    memory by reading the FLASH_ACR register */
    if (__HAL_FLASH_GET_LATENCY() != FLatency)
 80013f6:	4b63      	ldr	r3, [pc, #396]	; (8001584 <HAL_RCC_ClockConfig+0x1c0>)
 80013f8:	681b      	ldr	r3, [r3, #0]
 80013fa:	f003 0307 	and.w	r3, r3, #7
 80013fe:	683a      	ldr	r2, [r7, #0]
 8001400:	429a      	cmp	r2, r3
 8001402:	d001      	beq.n	8001408 <HAL_RCC_ClockConfig+0x44>
  {
    return HAL_ERROR;
 8001404:	2301      	movs	r3, #1
 8001406:	e0b8      	b.n	800157a <HAL_RCC_ClockConfig+0x1b6>
  }
}

#endif /* FLASH_ACR_LATENCY */
/*-------------------------- HCLK Configuration --------------------------*/
if (((RCC_ClkInitStruct->ClockType) & RCC_CLOCKTYPE_HCLK) == RCC_CLOCKTYPE_HCLK)
 8001408:	687b      	ldr	r3, [r7, #4]
 800140a:	681b      	ldr	r3, [r3, #0]
 800140c:	f003 0302 	and.w	r3, r3, #2
 8001410:	2b00      	cmp	r3, #0
 8001412:	d020      	beq.n	8001456 <HAL_RCC_ClockConfig+0x92>
  {
    /* Set the highest APBx dividers in order to ensure that we do not go through
    a non-spec phase whatever we decrease or increase HCLK. */
    if (((RCC_ClkInitStruct->ClockType) & RCC_CLOCKTYPE_PCLK1) == RCC_CLOCKTYPE_PCLK1)
 8001414:	687b      	ldr	r3, [r7, #4]
 8001416:	681b      	ldr	r3, [r3, #0]
 8001418:	f003 0304 	and.w	r3, r3, #4
 800141c:	2b00      	cmp	r3, #0
 800141e:	d005      	beq.n	800142c <HAL_RCC_ClockConfig+0x68>
    {
      MODIFY_REG(RCC->CFGR, RCC_CFGR_PPRE1, RCC_HCLK_DIV16);
 8001420:	4b59      	ldr	r3, [pc, #356]	; (8001588 <HAL_RCC_ClockConfig+0x1c4>)
 8001422:	685b      	ldr	r3, [r3, #4]
 8001424:	4a58      	ldr	r2, [pc, #352]	; (8001588 <HAL_RCC_ClockConfig+0x1c4>)
 8001426:	f443 63e0 	orr.w	r3, r3, #1792	; 0x700
 800142a:	6053      	str	r3, [r2, #4]
    }

    if (((RCC_ClkInitStruct->ClockType) & RCC_CLOCKTYPE_PCLK2) == RCC_CLOCKTYPE_PCLK2)
 800142c:	687b      	ldr	r3, [r7, #4]
 800142e:	681b      	ldr	r3, [r3, #0]
 8001430:	f003 0308 	and.w	r3, r3, #8
 8001434:	2b00      	cmp	r3, #0
 8001436:	d005      	beq.n	8001444 <HAL_RCC_ClockConfig+0x80>
    {
      MODIFY_REG(RCC->CFGR, RCC_CFGR_PPRE2, (RCC_HCLK_DIV16 << 3));
 8001438:	4b53      	ldr	r3, [pc, #332]	; (8001588 <HAL_RCC_ClockConfig+0x1c4>)
 800143a:	685b      	ldr	r3, [r3, #4]
 800143c:	4a52      	ldr	r2, [pc, #328]	; (8001588 <HAL_RCC_ClockConfig+0x1c4>)
 800143e:	f443 5360 	orr.w	r3, r3, #14336	; 0x3800
 8001442:	6053      	str	r3, [r2, #4]
    }

    /* Set the new HCLK clock divider */
    assert_param(IS_RCC_HCLK(RCC_ClkInitStruct->AHBCLKDivider));
    MODIFY_REG(RCC->CFGR, RCC_CFGR_HPRE, RCC_ClkInitStruct->AHBCLKDivider);
 8001444:	4b50      	ldr	r3, [pc, #320]	; (8001588 <HAL_RCC_ClockConfig+0x1c4>)
 8001446:	685b      	ldr	r3, [r3, #4]
 8001448:	f023 02f0 	bic.w	r2, r3, #240	; 0xf0
 800144c:	687b      	ldr	r3, [r7, #4]
 800144e:	689b      	ldr	r3, [r3, #8]
 8001450:	494d      	ldr	r1, [pc, #308]	; (8001588 <HAL_RCC_ClockConfig+0x1c4>)
 8001452:	4313      	orrs	r3, r2
 8001454:	604b      	str	r3, [r1, #4]
  }

  /*------------------------- SYSCLK Configuration ---------------------------*/
  if (((RCC_ClkInitStruct->ClockType) & RCC_CLOCKTYPE_SYSCLK) == RCC_CLOCKTYPE_SYSCLK)
 8001456:	687b      	ldr	r3, [r7, #4]
 8001458:	681b      	ldr	r3, [r3, #0]
 800145a:	f003 0301 	and.w	r3, r3, #1
 800145e:	2b00      	cmp	r3, #0
 8001460:	d040      	beq.n	80014e4 <HAL_RCC_ClockConfig+0x120>
  {
    assert_param(IS_RCC_SYSCLKSOURCE(RCC_ClkInitStruct->SYSCLKSource));

    /* HSE is selected as System Clock Source */
    if (RCC_ClkInitStruct->SYSCLKSource == RCC_SYSCLKSOURCE_HSE)
 8001462:	687b      	ldr	r3, [r7, #4]
 8001464:	685b      	ldr	r3, [r3, #4]
 8001466:	2b01      	cmp	r3, #1
 8001468:	d107      	bne.n	800147a <HAL_RCC_ClockConfig+0xb6>
    {
      /* Check the HSE ready flag */
      if (__HAL_RCC_GET_FLAG(RCC_FLAG_HSERDY) == RESET)
 800146a:	4b47      	ldr	r3, [pc, #284]	; (8001588 <HAL_RCC_ClockConfig+0x1c4>)
 800146c:	681b      	ldr	r3, [r3, #0]
 800146e:	f403 3300 	and.w	r3, r3, #131072	; 0x20000
 8001472:	2b00      	cmp	r3, #0
 8001474:	d115      	bne.n	80014a2 <HAL_RCC_ClockConfig+0xde>
      {
        return HAL_ERROR;
 8001476:	2301      	movs	r3, #1
 8001478:	e07f      	b.n	800157a <HAL_RCC_ClockConfig+0x1b6>
      }
    }
    /* PLL is selected as System Clock Source */
    else if (RCC_ClkInitStruct->SYSCLKSource == RCC_SYSCLKSOURCE_PLLCLK)
 800147a:	687b      	ldr	r3, [r7, #4]
 800147c:	685b      	ldr	r3, [r3, #4]
 800147e:	2b02      	cmp	r3, #2
 8001480:	d107      	bne.n	8001492 <HAL_RCC_ClockConfig+0xce>
    {
      /* Check the PLL ready flag */
      if (__HAL_RCC_GET_FLAG(RCC_FLAG_PLLRDY) == RESET)
 8001482:	4b41      	ldr	r3, [pc, #260]	; (8001588 <HAL_RCC_ClockConfig+0x1c4>)
 8001484:	681b      	ldr	r3, [r3, #0]
 8001486:	f003 7300 	and.w	r3, r3, #33554432	; 0x2000000
 800148a:	2b00      	cmp	r3, #0
 800148c:	d109      	bne.n	80014a2 <HAL_RCC_ClockConfig+0xde>
      {
        return HAL_ERROR;
 800148e:	2301      	movs	r3, #1
 8001490:	e073      	b.n	800157a <HAL_RCC_ClockConfig+0x1b6>
    }
    /* HSI is selected as System Clock Source */
    else
    {
      /* Check the HSI ready flag */
      if (__HAL_RCC_GET_FLAG(RCC_FLAG_HSIRDY) == RESET)
 8001492:	4b3d      	ldr	r3, [pc, #244]	; (8001588 <HAL_RCC_ClockConfig+0x1c4>)
 8001494:	681b      	ldr	r3, [r3, #0]
 8001496:	f003 0302 	and.w	r3, r3, #2
 800149a:	2b00      	cmp	r3, #0
 800149c:	d101      	bne.n	80014a2 <HAL_RCC_ClockConfig+0xde>
      {
        return HAL_ERROR;
 800149e:	2301      	movs	r3, #1
 80014a0:	e06b      	b.n	800157a <HAL_RCC_ClockConfig+0x1b6>
      }
    }
    __HAL_RCC_SYSCLK_CONFIG(RCC_ClkInitStruct->SYSCLKSource);
 80014a2:	4b39      	ldr	r3, [pc, #228]	; (8001588 <HAL_RCC_ClockConfig+0x1c4>)
 80014a4:	685b      	ldr	r3, [r3, #4]
 80014a6:	f023 0203 	bic.w	r2, r3, #3
 80014aa:	687b      	ldr	r3, [r7, #4]
 80014ac:	685b      	ldr	r3, [r3, #4]
 80014ae:	4936      	ldr	r1, [pc, #216]	; (8001588 <HAL_RCC_ClockConfig+0x1c4>)
 80014b0:	4313      	orrs	r3, r2
 80014b2:	604b      	str	r3, [r1, #4]

    /* Get Start Tick */
    tickstart = HAL_GetTick();
 80014b4:	f7ff fa8c 	bl	80009d0 <HAL_GetTick>
 80014b8:	60f8      	str	r0, [r7, #12]

    while (__HAL_RCC_GET_SYSCLK_SOURCE() != (RCC_ClkInitStruct->SYSCLKSource << RCC_CFGR_SWS_Pos))
 80014ba:	e00a      	b.n	80014d2 <HAL_RCC_ClockConfig+0x10e>
    {
      if ((HAL_GetTick() - tickstart) > CLOCKSWITCH_TIMEOUT_VALUE)
 80014bc:	f7ff fa88 	bl	80009d0 <HAL_GetTick>
 80014c0:	4602      	mov	r2, r0
 80014c2:	68fb      	ldr	r3, [r7, #12]
 80014c4:	1ad3      	subs	r3, r2, r3
 80014c6:	f241 3288 	movw	r2, #5000	; 0x1388
 80014ca:	4293      	cmp	r3, r2
 80014cc:	d901      	bls.n	80014d2 <HAL_RCC_ClockConfig+0x10e>
      {
        return HAL_TIMEOUT;
 80014ce:	2303      	movs	r3, #3
 80014d0:	e053      	b.n	800157a <HAL_RCC_ClockConfig+0x1b6>
    while (__HAL_RCC_GET_SYSCLK_SOURCE() != (RCC_ClkInitStruct->SYSCLKSource << RCC_CFGR_SWS_Pos))
 80014d2:	4b2d      	ldr	r3, [pc, #180]	; (8001588 <HAL_RCC_ClockConfig+0x1c4>)
 80014d4:	685b      	ldr	r3, [r3, #4]
 80014d6:	f003 020c 	and.w	r2, r3, #12
 80014da:	687b      	ldr	r3, [r7, #4]
 80014dc:	685b      	ldr	r3, [r3, #4]
 80014de:	009b      	lsls	r3, r3, #2
 80014e0:	429a      	cmp	r2, r3
 80014e2:	d1eb      	bne.n	80014bc <HAL_RCC_ClockConfig+0xf8>
    }
  }

#if defined(FLASH_ACR_LATENCY)
  /* Decreasing the number of wait states because of lower CPU frequency */
  if (FLatency < __HAL_FLASH_GET_LATENCY())
 80014e4:	4b27      	ldr	r3, [pc, #156]	; (8001584 <HAL_RCC_ClockConfig+0x1c0>)
 80014e6:	681b      	ldr	r3, [r3, #0]
 80014e8:	f003 0307 	and.w	r3, r3, #7
 80014ec:	683a      	ldr	r2, [r7, #0]
 80014ee:	429a      	cmp	r2, r3
 80014f0:	d210      	bcs.n	8001514 <HAL_RCC_ClockConfig+0x150>
  {
    /* Program the new number of wait states to the LATENCY bits in the FLASH_ACR register */
    __HAL_FLASH_SET_LATENCY(FLatency);
 80014f2:	4b24      	ldr	r3, [pc, #144]	; (8001584 <HAL_RCC_ClockConfig+0x1c0>)
 80014f4:	681b      	ldr	r3, [r3, #0]
 80014f6:	f023 0207 	bic.w	r2, r3, #7
 80014fa:	4922      	ldr	r1, [pc, #136]	; (8001584 <HAL_RCC_ClockConfig+0x1c0>)
 80014fc:	683b      	ldr	r3, [r7, #0]
 80014fe:	4313      	orrs	r3, r2
 8001500:	600b      	str	r3, [r1, #0]

    /* Check that the new number of wait states is taken into account to access the Flash
    memory by reading the FLASH_ACR register */
    if (__HAL_FLASH_GET_LATENCY() != FLatency)
 8001502:	4b20      	ldr	r3, [pc, #128]	; (8001584 <HAL_RCC_ClockConfig+0x1c0>)
 8001504:	681b      	ldr	r3, [r3, #0]
 8001506:	f003 0307 	and.w	r3, r3, #7
 800150a:	683a      	ldr	r2, [r7, #0]
 800150c:	429a      	cmp	r2, r3
 800150e:	d001      	beq.n	8001514 <HAL_RCC_ClockConfig+0x150>
  {
    return HAL_ERROR;
 8001510:	2301      	movs	r3, #1
 8001512:	e032      	b.n	800157a <HAL_RCC_ClockConfig+0x1b6>
  }
}
#endif /* FLASH_ACR_LATENCY */

/*-------------------------- PCLK1 Configuration ---------------------------*/
if (((RCC_ClkInitStruct->ClockType) & RCC_CLOCKTYPE_PCLK1) == RCC_CLOCKTYPE_PCLK1)
 8001514:	687b      	ldr	r3, [r7, #4]
 8001516:	681b      	ldr	r3, [r3, #0]
 8001518:	f003 0304 	and.w	r3, r3, #4
 800151c:	2b00      	cmp	r3, #0
 800151e:	d008      	beq.n	8001532 <HAL_RCC_ClockConfig+0x16e>
  {
    assert_param(IS_RCC_PCLK(RCC_ClkInitStruct->APB1CLKDivider));
    MODIFY_REG(RCC->CFGR, RCC_CFGR_PPRE1, RCC_ClkInitStruct->APB1CLKDivider);
 8001520:	4b19      	ldr	r3, [pc, #100]	; (8001588 <HAL_RCC_ClockConfig+0x1c4>)
 8001522:	685b      	ldr	r3, [r3, #4]
 8001524:	f423 62e0 	bic.w	r2, r3, #1792	; 0x700
 8001528:	687b      	ldr	r3, [r7, #4]
 800152a:	68db      	ldr	r3, [r3, #12]
 800152c:	4916      	ldr	r1, [pc, #88]	; (8001588 <HAL_RCC_ClockConfig+0x1c4>)
 800152e:	4313      	orrs	r3, r2
 8001530:	604b      	str	r3, [r1, #4]
  }

  /*-------------------------- PCLK2 Configuration ---------------------------*/
  if (((RCC_ClkInitStruct->ClockType) & RCC_CLOCKTYPE_PCLK2) == RCC_CLOCKTYPE_PCLK2)
 8001532:	687b      	ldr	r3, [r7, #4]
 8001534:	681b      	ldr	r3, [r3, #0]
 8001536:	f003 0308 	and.w	r3, r3, #8
 800153a:	2b00      	cmp	r3, #0
 800153c:	d009      	beq.n	8001552 <HAL_RCC_ClockConfig+0x18e>
  {
    assert_param(IS_RCC_PCLK(RCC_ClkInitStruct->APB2CLKDivider));
    MODIFY_REG(RCC->CFGR, RCC_CFGR_PPRE2, ((RCC_ClkInitStruct->APB2CLKDivider) << 3));
 800153e:	4b12      	ldr	r3, [pc, #72]	; (8001588 <HAL_RCC_ClockConfig+0x1c4>)
 8001540:	685b      	ldr	r3, [r3, #4]
 8001542:	f423 5260 	bic.w	r2, r3, #14336	; 0x3800
 8001546:	687b      	ldr	r3, [r7, #4]
 8001548:	691b      	ldr	r3, [r3, #16]
 800154a:	00db      	lsls	r3, r3, #3
 800154c:	490e      	ldr	r1, [pc, #56]	; (8001588 <HAL_RCC_ClockConfig+0x1c4>)
 800154e:	4313      	orrs	r3, r2
 8001550:	604b      	str	r3, [r1, #4]
  }

  /* Update the SystemCoreClock global variable */
  SystemCoreClock = HAL_RCC_GetSysClockFreq() >> AHBPrescTable[(RCC->CFGR & RCC_CFGR_HPRE) >> RCC_CFGR_HPRE_Pos];
 8001552:	f000 f821 	bl	8001598 <HAL_RCC_GetSysClockFreq>
 8001556:	4601      	mov	r1, r0
 8001558:	4b0b      	ldr	r3, [pc, #44]	; (8001588 <HAL_RCC_ClockConfig+0x1c4>)
 800155a:	685b      	ldr	r3, [r3, #4]
 800155c:	091b      	lsrs	r3, r3, #4
 800155e:	f003 030f 	and.w	r3, r3, #15
 8001562:	4a0a      	ldr	r2, [pc, #40]	; (800158c <HAL_RCC_ClockConfig+0x1c8>)
 8001564:	5cd3      	ldrb	r3, [r2, r3]
 8001566:	fa21 f303 	lsr.w	r3, r1, r3
 800156a:	4a09      	ldr	r2, [pc, #36]	; (8001590 <HAL_RCC_ClockConfig+0x1cc>)
 800156c:	6013      	str	r3, [r2, #0]

  /* Configure the source of time base considering new system clocks settings*/
  HAL_InitTick(uwTickPrio);
 800156e:	4b09      	ldr	r3, [pc, #36]	; (8001594 <HAL_RCC_ClockConfig+0x1d0>)
 8001570:	681b      	ldr	r3, [r3, #0]
 8001572:	4618      	mov	r0, r3
 8001574:	f7ff f9ea 	bl	800094c <HAL_InitTick>

  return HAL_OK;
 8001578:	2300      	movs	r3, #0
}
 800157a:	4618      	mov	r0, r3
 800157c:	3710      	adds	r7, #16
 800157e:	46bd      	mov	sp, r7
 8001580:	bd80      	pop	{r7, pc}
 8001582:	bf00      	nop
 8001584:	40022000 	.word	0x40022000
 8001588:	40021000 	.word	0x40021000
 800158c:	0800173c 	.word	0x0800173c
 8001590:	20000018 	.word	0x20000018
 8001594:	2000001c 	.word	0x2000001c

08001598 <HAL_RCC_GetSysClockFreq>:
  *         right SYSCLK value. Otherwise, any configuration based on this function will be incorrect.
  *
  * @retval SYSCLK frequency
  */
uint32_t HAL_RCC_GetSysClockFreq(void)
{
 8001598:	b490      	push	{r4, r7}
 800159a:	b08a      	sub	sp, #40	; 0x28
 800159c:	af00      	add	r7, sp, #0
#if defined(RCC_CFGR2_PREDIV1SRC)
  const uint8_t aPLLMULFactorTable[14] = {0, 0, 4, 5, 6, 7, 8, 9, 0, 0, 0, 0, 0, 13};
  const uint8_t aPredivFactorTable[16] = {1, 2, 3, 4, 5, 6, 7, 8, 9, 10, 11, 12, 13, 14, 15, 16};
#else
  const uint8_t aPLLMULFactorTable[16] = {2, 3, 4, 5, 6, 7, 8, 9, 10, 11, 12, 13, 14, 15, 16, 16};
 800159e:	4b2a      	ldr	r3, [pc, #168]	; (8001648 <HAL_RCC_GetSysClockFreq+0xb0>)
 80015a0:	1d3c      	adds	r4, r7, #4
 80015a2:	cb0f      	ldmia	r3, {r0, r1, r2, r3}
 80015a4:	e884 000f 	stmia.w	r4, {r0, r1, r2, r3}
#if defined(RCC_CFGR2_PREDIV1)
  const uint8_t aPredivFactorTable[16] = {1, 2, 3, 4, 5, 6, 7, 8, 9, 10, 11, 12, 13, 14, 15, 16};
#else
  const uint8_t aPredivFactorTable[2] = {1, 2};
 80015a8:	4b28      	ldr	r3, [pc, #160]	; (800164c <HAL_RCC_GetSysClockFreq+0xb4>)
 80015aa:	881b      	ldrh	r3, [r3, #0]
 80015ac:	803b      	strh	r3, [r7, #0]
#endif /*RCC_CFGR2_PREDIV1*/

#endif
  uint32_t tmpreg = 0U, prediv = 0U, pllclk = 0U, pllmul = 0U;
 80015ae:	2300      	movs	r3, #0
 80015b0:	61fb      	str	r3, [r7, #28]
 80015b2:	2300      	movs	r3, #0
 80015b4:	61bb      	str	r3, [r7, #24]
 80015b6:	2300      	movs	r3, #0
 80015b8:	627b      	str	r3, [r7, #36]	; 0x24
 80015ba:	2300      	movs	r3, #0
 80015bc:	617b      	str	r3, [r7, #20]
  uint32_t sysclockfreq = 0U;
 80015be:	2300      	movs	r3, #0
 80015c0:	623b      	str	r3, [r7, #32]
#if defined(RCC_CFGR2_PREDIV1SRC)
  uint32_t prediv2 = 0U, pll2mul = 0U;
#endif /*RCC_CFGR2_PREDIV1SRC*/

  tmpreg = RCC->CFGR;
 80015c2:	4b23      	ldr	r3, [pc, #140]	; (8001650 <HAL_RCC_GetSysClockFreq+0xb8>)
 80015c4:	685b      	ldr	r3, [r3, #4]
 80015c6:	61fb      	str	r3, [r7, #28]

  /* Get SYSCLK source -------------------------------------------------------*/
  switch (tmpreg & RCC_CFGR_SWS)
 80015c8:	69fb      	ldr	r3, [r7, #28]
 80015ca:	f003 030c 	and.w	r3, r3, #12
 80015ce:	2b04      	cmp	r3, #4
 80015d0:	d002      	beq.n	80015d8 <HAL_RCC_GetSysClockFreq+0x40>
 80015d2:	2b08      	cmp	r3, #8
 80015d4:	d003      	beq.n	80015de <HAL_RCC_GetSysClockFreq+0x46>
 80015d6:	e02d      	b.n	8001634 <HAL_RCC_GetSysClockFreq+0x9c>
  {
    case RCC_SYSCLKSOURCE_STATUS_HSE:  /* HSE used as system clock */
    {
      sysclockfreq = HSE_VALUE;
 80015d8:	4b1e      	ldr	r3, [pc, #120]	; (8001654 <HAL_RCC_GetSysClockFreq+0xbc>)
 80015da:	623b      	str	r3, [r7, #32]
      break;
 80015dc:	e02d      	b.n	800163a <HAL_RCC_GetSysClockFreq+0xa2>
    }
    case RCC_SYSCLKSOURCE_STATUS_PLLCLK:  /* PLL used as system clock */
    {
      pllmul = aPLLMULFactorTable[(uint32_t)(tmpreg & RCC_CFGR_PLLMULL) >> RCC_CFGR_PLLMULL_Pos];
 80015de:	69fb      	ldr	r3, [r7, #28]
 80015e0:	0c9b      	lsrs	r3, r3, #18
 80015e2:	f003 030f 	and.w	r3, r3, #15
 80015e6:	f107 0228 	add.w	r2, r7, #40	; 0x28
 80015ea:	4413      	add	r3, r2
 80015ec:	f813 3c24 	ldrb.w	r3, [r3, #-36]
 80015f0:	617b      	str	r3, [r7, #20]
      if ((tmpreg & RCC_CFGR_PLLSRC) != RCC_PLLSOURCE_HSI_DIV2)
 80015f2:	69fb      	ldr	r3, [r7, #28]
 80015f4:	f403 3380 	and.w	r3, r3, #65536	; 0x10000
 80015f8:	2b00      	cmp	r3, #0
 80015fa:	d013      	beq.n	8001624 <HAL_RCC_GetSysClockFreq+0x8c>
      {
#if defined(RCC_CFGR2_PREDIV1)
        prediv = aPredivFactorTable[(uint32_t)(RCC->CFGR2 & RCC_CFGR2_PREDIV1) >> RCC_CFGR2_PREDIV1_Pos];
#else
        prediv = aPredivFactorTable[(uint32_t)(RCC->CFGR & RCC_CFGR_PLLXTPRE) >> RCC_CFGR_PLLXTPRE_Pos];
 80015fc:	4b14      	ldr	r3, [pc, #80]	; (8001650 <HAL_RCC_GetSysClockFreq+0xb8>)
 80015fe:	685b      	ldr	r3, [r3, #4]
 8001600:	0c5b      	lsrs	r3, r3, #17
 8001602:	f003 0301 	and.w	r3, r3, #1
 8001606:	f107 0228 	add.w	r2, r7, #40	; 0x28
 800160a:	4413      	add	r3, r2
 800160c:	f813 3c28 	ldrb.w	r3, [r3, #-40]
 8001610:	61bb      	str	r3, [r7, #24]
        {
          pllclk = pllclk / 2;
        }
#else
        /* HSE used as PLL clock source : PLLCLK = HSE/PREDIV1 * PLLMUL */
        pllclk = (uint32_t)((HSE_VALUE  * pllmul) / prediv);
 8001612:	697b      	ldr	r3, [r7, #20]
 8001614:	4a0f      	ldr	r2, [pc, #60]	; (8001654 <HAL_RCC_GetSysClockFreq+0xbc>)
 8001616:	fb02 f203 	mul.w	r2, r2, r3
 800161a:	69bb      	ldr	r3, [r7, #24]
 800161c:	fbb2 f3f3 	udiv	r3, r2, r3
 8001620:	627b      	str	r3, [r7, #36]	; 0x24
 8001622:	e004      	b.n	800162e <HAL_RCC_GetSysClockFreq+0x96>
#endif /*RCC_CFGR2_PREDIV1SRC*/
      }
      else
      {
        /* HSI used as PLL clock source : PLLCLK = HSI/2 * PLLMUL */
        pllclk = (uint32_t)((HSI_VALUE >> 1) * pllmul);
 8001624:	697b      	ldr	r3, [r7, #20]
 8001626:	4a0c      	ldr	r2, [pc, #48]	; (8001658 <HAL_RCC_GetSysClockFreq+0xc0>)
 8001628:	fb02 f303 	mul.w	r3, r2, r3
 800162c:	627b      	str	r3, [r7, #36]	; 0x24
      }
      sysclockfreq = pllclk;
 800162e:	6a7b      	ldr	r3, [r7, #36]	; 0x24
 8001630:	623b      	str	r3, [r7, #32]
      break;
 8001632:	e002      	b.n	800163a <HAL_RCC_GetSysClockFreq+0xa2>
    }
    case RCC_SYSCLKSOURCE_STATUS_HSI:  /* HSI used as system clock source */
    default: /* HSI used as system clock */
    {
      sysclockfreq = HSI_VALUE;
 8001634:	4b07      	ldr	r3, [pc, #28]	; (8001654 <HAL_RCC_GetSysClockFreq+0xbc>)
 8001636:	623b      	str	r3, [r7, #32]
      break;
 8001638:	bf00      	nop
    }
  }
  return sysclockfreq;
 800163a:	6a3b      	ldr	r3, [r7, #32]
}
 800163c:	4618      	mov	r0, r3
 800163e:	3728      	adds	r7, #40	; 0x28
 8001640:	46bd      	mov	sp, r7
 8001642:	bc90      	pop	{r4, r7}
 8001644:	4770      	bx	lr
 8001646:	bf00      	nop
 8001648:	08001728 	.word	0x08001728
 800164c:	08001738 	.word	0x08001738
 8001650:	40021000 	.word	0x40021000
 8001654:	007a1200 	.word	0x007a1200
 8001658:	003d0900 	.word	0x003d0900

0800165c <RCC_Delay>:
  * @brief  This function provides delay (in milliseconds) based on CPU cycles method.
  * @param  mdelay: specifies the delay time length, in milliseconds.
  * @retval None
  */
static void RCC_Delay(uint32_t mdelay)
{
 800165c:	b480      	push	{r7}
 800165e:	b085      	sub	sp, #20
 8001660:	af00      	add	r7, sp, #0
 8001662:	6078      	str	r0, [r7, #4]
  __IO uint32_t Delay = mdelay * (SystemCoreClock / 8U / 1000U);
 8001664:	4b0a      	ldr	r3, [pc, #40]	; (8001690 <RCC_Delay+0x34>)
 8001666:	681b      	ldr	r3, [r3, #0]
 8001668:	4a0a      	ldr	r2, [pc, #40]	; (8001694 <RCC_Delay+0x38>)
 800166a:	fba2 2303 	umull	r2, r3, r2, r3
 800166e:	0a5b      	lsrs	r3, r3, #9
 8001670:	687a      	ldr	r2, [r7, #4]
 8001672:	fb02 f303 	mul.w	r3, r2, r3
 8001676:	60fb      	str	r3, [r7, #12]
  do
  {
    __NOP();
 8001678:	bf00      	nop
  }
  while (Delay --);
 800167a:	68fb      	ldr	r3, [r7, #12]
 800167c:	1e5a      	subs	r2, r3, #1
 800167e:	60fa      	str	r2, [r7, #12]
 8001680:	2b00      	cmp	r3, #0
 8001682:	d1f9      	bne.n	8001678 <RCC_Delay+0x1c>
}
 8001684:	bf00      	nop
 8001686:	3714      	adds	r7, #20
 8001688:	46bd      	mov	sp, r7
 800168a:	bc80      	pop	{r7}
 800168c:	4770      	bx	lr
 800168e:	bf00      	nop
 8001690:	20000018 	.word	0x20000018
 8001694:	10624dd3 	.word	0x10624dd3

08001698 <__libc_init_array>:
 8001698:	b570      	push	{r4, r5, r6, lr}
 800169a:	2500      	movs	r5, #0
 800169c:	4e0c      	ldr	r6, [pc, #48]	; (80016d0 <__libc_init_array+0x38>)
 800169e:	4c0d      	ldr	r4, [pc, #52]	; (80016d4 <__libc_init_array+0x3c>)
 80016a0:	1ba4      	subs	r4, r4, r6
 80016a2:	10a4      	asrs	r4, r4, #2
 80016a4:	42a5      	cmp	r5, r4
 80016a6:	d109      	bne.n	80016bc <__libc_init_array+0x24>
 80016a8:	f000 f822 	bl	80016f0 <_init>
 80016ac:	2500      	movs	r5, #0
 80016ae:	4e0a      	ldr	r6, [pc, #40]	; (80016d8 <__libc_init_array+0x40>)
 80016b0:	4c0a      	ldr	r4, [pc, #40]	; (80016dc <__libc_init_array+0x44>)
 80016b2:	1ba4      	subs	r4, r4, r6
 80016b4:	10a4      	asrs	r4, r4, #2
 80016b6:	42a5      	cmp	r5, r4
 80016b8:	d105      	bne.n	80016c6 <__libc_init_array+0x2e>
 80016ba:	bd70      	pop	{r4, r5, r6, pc}
 80016bc:	f856 3025 	ldr.w	r3, [r6, r5, lsl #2]
 80016c0:	4798      	blx	r3
 80016c2:	3501      	adds	r5, #1
 80016c4:	e7ee      	b.n	80016a4 <__libc_init_array+0xc>
 80016c6:	f856 3025 	ldr.w	r3, [r6, r5, lsl #2]
 80016ca:	4798      	blx	r3
 80016cc:	3501      	adds	r5, #1
 80016ce:	e7f2      	b.n	80016b6 <__libc_init_array+0x1e>
 80016d0:	0800174c 	.word	0x0800174c
 80016d4:	0800174c 	.word	0x0800174c
 80016d8:	0800174c 	.word	0x0800174c
 80016dc:	08001750 	.word	0x08001750

080016e0 <memset>:
 80016e0:	4603      	mov	r3, r0
 80016e2:	4402      	add	r2, r0
 80016e4:	4293      	cmp	r3, r2
 80016e6:	d100      	bne.n	80016ea <memset+0xa>
 80016e8:	4770      	bx	lr
 80016ea:	f803 1b01 	strb.w	r1, [r3], #1
 80016ee:	e7f9      	b.n	80016e4 <memset+0x4>

080016f0 <_init>:
 80016f0:	b5f8      	push	{r3, r4, r5, r6, r7, lr}
 80016f2:	bf00      	nop
 80016f4:	bcf8      	pop	{r3, r4, r5, r6, r7}
 80016f6:	bc08      	pop	{r3}
 80016f8:	469e      	mov	lr, r3
 80016fa:	4770      	bx	lr

080016fc <_fini>:
 80016fc:	b5f8      	push	{r3, r4, r5, r6, r7, lr}
 80016fe:	bf00      	nop
 8001700:	bcf8      	pop	{r3, r4, r5, r6, r7}
 8001702:	bc08      	pop	{r3}
 8001704:	469e      	mov	lr, r3
 8001706:	4770      	bx	lr
